{
  "_format": "hh-sol-artifact-1",
  "contractName": "DBookPlatform",
  "sourceName": "contracts/DBookPlatform.sol",
  "abi": [
    {
      "anonymous": false,
      "inputs": [
        {
          "indexed": false,
          "internalType": "uint8",
          "name": "version",
          "type": "uint8"
        }
      ],
      "name": "Initialized",
      "type": "event"
    },
    {
      "anonymous": false,
      "inputs": [
        {
          "indexed": false,
          "internalType": "address",
          "name": "to",
          "type": "address"
        },
        {
          "indexed": false,
          "internalType": "uint256",
          "name": "nftId",
          "type": "uint256"
        },
        {
          "indexed": false,
          "internalType": "uint256",
          "name": "amount",
          "type": "uint256"
        },
        {
          "indexed": false,
          "internalType": "bytes",
          "name": "data",
          "type": "bytes"
        },
        {
          "indexed": false,
          "internalType": "uint256",
          "name": "price",
          "type": "uint256"
        },
        {
          "indexed": false,
          "internalType": "address",
          "name": "publisherAddress",
          "type": "address"
        },
        {
          "indexed": false,
          "internalType": "uint256",
          "name": "publisherRatio",
          "type": "uint256"
        }
      ],
      "name": "Issue",
      "type": "event"
    },
    {
      "anonymous": false,
      "inputs": [
        {
          "indexed": false,
          "internalType": "address",
          "name": "seller",
          "type": "address"
        },
        {
          "indexed": false,
          "internalType": "address",
          "name": "receiver",
          "type": "address"
        },
        {
          "indexed": false,
          "internalType": "uint256",
          "name": "nftId",
          "type": "uint256"
        },
        {
          "indexed": false,
          "internalType": "uint256",
          "name": "nftAmount",
          "type": "uint256"
        },
        {
          "indexed": false,
          "internalType": "bytes",
          "name": "data",
          "type": "bytes"
        },
        {
          "indexed": false,
          "internalType": "uint256",
          "name": "tradeValue",
          "type": "uint256"
        },
        {
          "indexed": false,
          "internalType": "uint256",
          "name": "fee",
          "type": "uint256"
        }
      ],
      "name": "Trade",
      "type": "event"
    },
    {
      "inputs": [
        {
          "internalType": "address",
          "name": "token1155",
          "type": "address"
        },
        {
          "internalType": "address",
          "name": "token20",
          "type": "address"
        },
        {
          "internalType": "string",
          "name": "version",
          "type": "string"
        }
      ],
      "name": "__DBookPlatform_init",
      "outputs": [],
      "stateMutability": "nonpayable",
      "type": "function"
    },
    {
      "inputs": [
        {
          "internalType": "address",
          "name": "minter",
          "type": "address"
        }
      ],
      "name": "addAuth",
      "outputs": [],
      "stateMutability": "nonpayable",
      "type": "function"
    },
    {
      "inputs": [
        {
          "internalType": "address",
          "name": "owner",
          "type": "address"
        },
        {
          "internalType": "uint256",
          "name": "nftId",
          "type": "uint256"
        },
        {
          "internalType": "uint256",
          "name": "amount",
          "type": "uint256"
        }
      ],
      "name": "burn",
      "outputs": [],
      "stateMutability": "nonpayable",
      "type": "function"
    },
    {
      "inputs": [
        {
          "internalType": "address",
          "name": "minter",
          "type": "address"
        }
      ],
      "name": "delAuth",
      "outputs": [],
      "stateMutability": "nonpayable",
      "type": "function"
    },
    {
      "inputs": [],
      "name": "getFee",
      "outputs": [
        {
          "internalType": "uint256",
          "name": "",
          "type": "uint256"
        }
      ],
      "stateMutability": "view",
      "type": "function"
    },
    {
      "inputs": [],
      "name": "getFirstTradeFee",
      "outputs": [
        {
          "internalType": "uint256",
          "name": "",
          "type": "uint256"
        }
      ],
      "stateMutability": "view",
      "type": "function"
    },
    {
      "inputs": [],
      "name": "getFrozen",
      "outputs": [
        {
          "internalType": "bool",
          "name": "",
          "type": "bool"
        }
      ],
      "stateMutability": "view",
      "type": "function"
    },
    {
      "inputs": [],
      "name": "getIssueList",
      "outputs": [
        {
          "internalType": "address[]",
          "name": "",
          "type": "address[]"
        }
      ],
      "stateMutability": "view",
      "type": "function"
    },
    {
      "inputs": [
        {
          "internalType": "uint256",
          "name": "nftId",
          "type": "uint256"
        }
      ],
      "name": "getNftPrice",
      "outputs": [
        {
          "internalType": "uint256",
          "name": "",
          "type": "uint256"
        }
      ],
      "stateMutability": "view",
      "type": "function"
    },
    {
      "inputs": [],
      "name": "getPlatformAddress",
      "outputs": [
        {
          "internalType": "address",
          "name": "",
          "type": "address"
        }
      ],
      "stateMutability": "view",
      "type": "function"
    },
    {
      "inputs": [],
      "name": "getPlatformRatio",
      "outputs": [
        {
          "internalType": "uint256",
          "name": "",
          "type": "uint256"
        }
      ],
      "stateMutability": "view",
      "type": "function"
    },
    {
      "inputs": [
        {
          "internalType": "uint256",
          "name": "nftId",
          "type": "uint256"
        }
      ],
      "name": "getPublisherAddress",
      "outputs": [
        {
          "internalType": "address",
          "name": "",
          "type": "address"
        }
      ],
      "stateMutability": "view",
      "type": "function"
    },
    {
      "inputs": [
        {
          "internalType": "uint256",
          "name": "nftId",
          "type": "uint256"
        }
      ],
      "name": "getPublisherRatio",
      "outputs": [
        {
          "internalType": "uint256",
          "name": "",
          "type": "uint256"
        }
      ],
      "stateMutability": "view",
      "type": "function"
    },
    {
      "inputs": [],
      "name": "getVersion",
      "outputs": [
        {
          "internalType": "string",
          "name": "",
          "type": "string"
        }
      ],
      "stateMutability": "view",
      "type": "function"
    },
    {
      "inputs": [
        {
          "internalType": "address",
          "name": "to",
          "type": "address"
        },
        {
          "internalType": "uint256",
          "name": "nftId",
          "type": "uint256"
        },
        {
          "internalType": "uint256",
          "name": "amount",
          "type": "uint256"
        },
        {
          "internalType": "bytes",
          "name": "data",
          "type": "bytes"
        },
        {
          "internalType": "uint256",
          "name": "price",
          "type": "uint256"
        },
        {
          "internalType": "address",
          "name": "publisherAddress",
          "type": "address"
        },
        {
          "internalType": "uint256",
          "name": "publisherRatio",
          "type": "uint256"
        }
      ],
      "name": "issue",
      "outputs": [],
      "stateMutability": "nonpayable",
      "type": "function"
    },
    {
      "inputs": [
        {
          "internalType": "uint256",
          "name": "payValue",
          "type": "uint256"
        }
      ],
      "name": "payFirstTrade",
      "outputs": [],
      "stateMutability": "payable",
      "type": "function"
    },
    {
      "inputs": [
        {
          "internalType": "address",
          "name": "seller",
          "type": "address"
        },
        {
          "internalType": "uint256",
          "name": "payValue",
          "type": "uint256"
        },
        {
          "internalType": "uint256",
          "name": "mintAmont",
          "type": "uint256"
        },
        {
          "internalType": "address",
          "name": "buyer",
          "type": "address"
        },
        {
          "internalType": "uint256",
          "name": "nftId",
          "type": "uint256"
        },
        {
          "internalType": "uint256",
          "name": "amount",
          "type": "uint256"
        },
        {
          "internalType": "bytes",
          "name": "metaData",
          "type": "bytes"
        }
      ],
      "name": "runFirstTrade",
      "outputs": [],
      "stateMutability": "nonpayable",
      "type": "function"
    },
    {
      "inputs": [
        {
          "internalType": "uint256",
          "name": "fee",
          "type": "uint256"
        }
      ],
      "name": "setFee",
      "outputs": [],
      "stateMutability": "nonpayable",
      "type": "function"
    },
    {
      "inputs": [
        {
          "internalType": "uint256",
          "name": "firstTradeFee",
          "type": "uint256"
        }
      ],
      "name": "setFirstTradeFee",
      "outputs": [],
      "stateMutability": "nonpayable",
      "type": "function"
    },
    {
      "inputs": [
        {
          "internalType": "bool",
          "name": "isFrozen",
          "type": "bool"
        }
      ],
      "name": "setFrozen",
      "outputs": [],
      "stateMutability": "nonpayable",
      "type": "function"
    },
    {
      "inputs": [
        {
          "internalType": "uint256",
          "name": "nftId",
          "type": "uint256"
        },
        {
          "internalType": "uint256",
          "name": "price",
          "type": "uint256"
        }
      ],
      "name": "setNftPrice",
      "outputs": [],
      "stateMutability": "nonpayable",
      "type": "function"
    },
    {
      "inputs": [
        {
          "internalType": "address",
          "name": "platformAddress",
          "type": "address"
        }
      ],
      "name": "setPlatformAddress",
      "outputs": [],
      "stateMutability": "nonpayable",
      "type": "function"
    },
    {
      "inputs": [
        {
          "internalType": "uint256",
          "name": "platformRatio",
          "type": "uint256"
        }
      ],
      "name": "setPlatformRatio",
      "outputs": [],
      "stateMutability": "nonpayable",
      "type": "function"
    },
    {
      "inputs": [
        {
          "internalType": "uint256",
          "name": "nftId",
          "type": "uint256"
        },
        {
          "internalType": "address",
          "name": "publishAddress",
          "type": "address"
        }
      ],
      "name": "setPublisherAddress",
      "outputs": [],
      "stateMutability": "nonpayable",
      "type": "function"
    },
    {
      "inputs": [
        {
          "internalType": "uint256",
          "name": "nftId",
          "type": "uint256"
        },
        {
          "internalType": "uint256",
          "name": "publishRatio",
          "type": "uint256"
        }
      ],
      "name": "setPublisherRatio",
      "outputs": [],
      "stateMutability": "nonpayable",
      "type": "function"
    },
    {
      "inputs": [
        {
          "internalType": "string",
          "name": "version",
          "type": "string"
        }
      ],
      "name": "setVersion",
      "outputs": [],
      "stateMutability": "nonpayable",
      "type": "function"
    },
    {
      "inputs": [
        {
          "internalType": "address",
          "name": "seller",
          "type": "address"
        },
        {
          "internalType": "address",
          "name": "receiver",
          "type": "address"
        },
        {
          "internalType": "uint256",
          "name": "nftId",
          "type": "uint256"
        },
        {
          "internalType": "uint256",
          "name": "nftAmount",
          "type": "uint256"
        },
        {
          "internalType": "bytes",
          "name": "data",
          "type": "bytes"
        },
        {
          "internalType": "uint256",
          "name": "tradeValue",
          "type": "uint256"
        },
        {
          "internalType": "uint256",
          "name": "fee",
          "type": "uint256"
        }
      ],
      "name": "trade",
      "outputs": [],
      "stateMutability": "nonpayable",
      "type": "function"
    },
    {
      "inputs": [
        {
          "internalType": "address payable",
          "name": "_to",
          "type": "address"
        }
      ],
      "name": "withdrawMoneyTo",
      "outputs": [],
      "stateMutability": "nonpayable",
      "type": "function"
    }
  ],
  "bytecode": "0x608060405234801561001057600080fd5b50613f09806100206000396000f3fe6080604052600436106101b75760003560e01c8063788bc78c116100ec578063cc03c3421161008a578063df5297a411610064578063df5297a4146105bd578063e78ec447146105e6578063ed4a28a91461060f578063f5298aca1461064c576101b7565b8063cc03c3421461054d578063ced72f8714610576578063d353f6b8146105a1576101b7565b80637e932d32116100c65780637e932d32146104a7578063a8d4c210146104d0578063bfb55440146104f9578063cacd0b1714610524576101b7565b8063788bc78c146104185780637a61013f146104415780637bf0989a1461046a576101b7565b806349d9edab116101595780635422224e116101335780635422224e146103705780635eccd72b1461039957806369fe0e2d146103c45780637495b353146103ed576101b7565b806349d9edab146102f55780634de1e8051461031e5780635046917014610347576101b7565b8063213a86f311610195578063213a86f31461024d57806335b1994b146102765780633c0c45661461029f5780633f75c6ac146102ca576101b7565b8063043d2ed6146101bc5780630d8e6e2c146101f95780630ff8d8a514610224575b600080fd5b3480156101c857600080fd5b506101e360048036038101906101de919061250b565b610675565b6040516101f09190612547565b60405180910390f35b34801561020557600080fd5b5061020e610692565b60405161021b91906125f2565b60405180910390f35b34801561023057600080fd5b5061024b60048036038101906102469190612672565b610724565b005b34801561025957600080fd5b50610274600480360381019061026f9190612742565b6107fe565b005b34801561028257600080fd5b5061029d60048036038101906102989190612804565b61102c565b005b3480156102ab57600080fd5b506102b46113e3565b6040516102c191906128d5565b60405180910390f35b3480156102d657600080fd5b506102df61140d565b6040516102ec9190612547565b60405180910390f35b34801561030157600080fd5b5061031c60048036038101906103179190612a20565b611417565b005b34801561032a57600080fd5b5061034560048036038101906103409190612a8f565b61164f565b005b34801561035357600080fd5b5061036e6004803603810190610369919061250b565b61186c565b005b34801561037c57600080fd5b5061039760048036038101906103929190612a8f565b611906565b005b3480156103a557600080fd5b506103ae6119fc565b6040516103bb9190612b7a565b60405180910390f35b3480156103d057600080fd5b506103eb60048036038101906103e6919061250b565b611a8a565b005b3480156103f957600080fd5b50610402611b24565b60405161040f9190612bb7565b60405180910390f35b34801561042457600080fd5b5061043f600480360381019061043a9190612c28565b611b3b565b005b34801561044d57600080fd5b5061046860048036038101906104639190612c75565b611be1565b005b34801561047657600080fd5b50610491600480360381019061048c919061250b565b611c07565b60405161049e9190612547565b60405180910390f35b3480156104b357600080fd5b506104ce60048036038101906104c99190612ce1565b611c24565b005b3480156104dc57600080fd5b506104f760048036038101906104f29190612d0e565b611cd1565b005b34801561050557600080fd5b5061050e611d31565b60405161051b9190612547565b60405180910390f35b34801561053057600080fd5b5061054b6004803603810190610546919061250b565b611d3b565b005b34801561055957600080fd5b50610574600480360381019061056f9190612a8f565b611d45565b005b34801561058257600080fd5b5061058b611e19565b6040516105989190612547565b60405180910390f35b6105bb60048036038101906105b6919061250b565b611e23565b005b3480156105c957600080fd5b506105e460048036038101906105df9190612c75565b611f74565b005b3480156105f257600080fd5b5061060d60048036038101906106089190612d4e565b611f9a565b005b34801561061b57600080fd5b506106366004803603810190610631919061250b565b612158565b60405161064391906128d5565b60405180910390f35b34801561065857600080fd5b50610673600480360381019061066e9190612e10565b612195565b005b6000600c6000838152602001908152602001600020549050919050565b6060600680546106a190612e92565b80601f01602080910402602001604051908101604052809291908181526020018280546106cd90612e92565b801561071a5780601f106106ef5761010080835404028352916020019161071a565b820191906000526020600020905b8154815290600101906020018083116106fd57829003601f168201915b5050505050905090565b3373ffffffffffffffffffffffffffffffffffffffff16600060029054906101000a900473ffffffffffffffffffffffffffffffffffffffff1673ffffffffffffffffffffffffffffffffffffffff16146107b4576040517f08c379a00000000000000000000000000000000000000000000000000000000081526004016107ab90612f0f565b60405180910390fd5b8073ffffffffffffffffffffffffffffffffffffffff166108fc479081150290604051600060405180830381858888f193505050501580156107fa573d6000803e3d6000fd5b5050565b600760009054906101000a900460ff161561084e576040517f08c379a000000000000000000000000000000000000000000000000000000000815260040161084590612f7b565b60405180910390fd5b600080600080600454851015610899576040517f08c379a000000000000000000000000000000000000000000000000000000000815260040161089090612fe7565b60405180910390fd5b84866108a59190613036565b600260009054906101000a900473ffffffffffffffffffffffffffffffffffffffff1673ffffffffffffffffffffffffffffffffffffffff166370a08231336040518263ffffffff1660e01b815260040161090091906128d5565b602060405180830381865afa15801561091d573d6000803e3d6000fd5b505050506040513d601f19601f82011682018060405250810190610941919061307f565b1015610982576040517f08c379a0000000000000000000000000000000000000000000000000000000008152600401610979906130f8565b60405180910390fd5b6000600d60008c815260200190815260200160002054036109d8576040517f08c379a00000000000000000000000000000000000000000000000000000000081526004016109cf90613164565b60405180910390fd5b6000600c60008c81526020019081526020016000205403610a2e576040517f08c379a0000000000000000000000000000000000000000000000000000000008152600401610a25906131d0565b60405180910390fd5b600073ffffffffffffffffffffffffffffffffffffffff16600b60008c815260200190815260200160002060009054906101000a900473ffffffffffffffffffffffffffffffffffffffff1673ffffffffffffffffffffffffffffffffffffffff1603610ad0576040517f08c379a0000000000000000000000000000000000000000000000000000000008152600401610ac79061323c565b60405180910390fd5b88600160009054906101000a900473ffffffffffffffffffffffffffffffffffffffff1673ffffffffffffffffffffffffffffffffffffffff1662fdd58e8e8d6040518363ffffffff1660e01b8152600401610b2d92919061325c565b602060405180830381865afa158015610b4a573d6000803e3d6000fd5b505050506040513d601f19601f82011682018060405250810190610b6e919061307f565b1015610baf576040517f08c379a0000000000000000000000000000000000000000000000000000000008152600401610ba6906132f7565b60405180910390fd5b600160009054906101000a900473ffffffffffffffffffffffffffffffffffffffff1673ffffffffffffffffffffffffffffffffffffffff1663f242432a8d8d8d8d8d8d6040518763ffffffff1660e01b8152600401610c1496959493929190613355565b600060405180830381600087803b158015610c2e57600080fd5b505af1158015610c42573d6000803e3d6000fd5b50505050610c8185610c73600854610c656005548b61223390919063ffffffff16565b61224990919063ffffffff16565b61225f90919063ffffffff16565b9350600260009054906101000a900473ffffffffffffffffffffffffffffffffffffffff1673ffffffffffffffffffffffffffffffffffffffff166323b872dd33600960009054906101000a900473ffffffffffffffffffffffffffffffffffffffff16876040518463ffffffff1660e01b8152600401610d04939291906133b1565b6020604051808303816000875af1158015610d23573d6000803e3d6000fd5b505050506040513d601f19601f82011682018060405250810190610d4791906133fd565b905080610d89576040517f08c379a0000000000000000000000000000000000000000000000000000000008152600401610d8090613476565b60405180910390fd5b610dc3600854610db5600c60008e8152602001908152602001600020548961223390919063ffffffff16565b61224990919063ffffffff16565b9250600260009054906101000a900473ffffffffffffffffffffffffffffffffffffffff1673ffffffffffffffffffffffffffffffffffffffff166323b872dd33600b60008e815260200190815260200160002060009054906101000a900473ffffffffffffffffffffffffffffffffffffffff16866040518463ffffffff1660e01b8152600401610e57939291906133b1565b6020604051808303816000875af1158015610e76573d6000803e3d6000fd5b505050506040513d601f19601f82011682018060405250810190610e9a91906133fd565b905080610edc576040517f08c379a0000000000000000000000000000000000000000000000000000000008152600401610ed3906134e2565b60405180910390fd5b828487610ee99190613502565b610ef39190613502565b9150600260009054906101000a900473ffffffffffffffffffffffffffffffffffffffff1673ffffffffffffffffffffffffffffffffffffffff166323b872dd338e856040518463ffffffff1660e01b8152600401610f54939291906133b1565b6020604051808303816000875af1158015610f73573d6000803e3d6000fd5b505050506040513d601f19601f82011682018060405250810190610f9791906133fd565b905080610fd9576040517f08c379a0000000000000000000000000000000000000000000000000000000008152600401610fd090613582565b60405180910390fd5b7f46e2575a969a2d3e4018a6f8fa81b789ba49d49fec3af90112b37a34b9f64dae8c8c8c8c8c8c8c8c6040516110169897969594939291906135a2565b60405180910390a1505050505050505050505050565b600087111561111d576000600260009054906101000a900473ffffffffffffffffffffffffffffffffffffffff1673ffffffffffffffffffffffffffffffffffffffff166323b872dd338b8b6040518463ffffffff1660e01b8152600401611096939291906133b1565b6020604051808303816000875af11580156110b5573d6000803e3d6000fd5b505050506040513d601f19601f820116820180604052508101906110d991906133fd565b90508061111b576040517f08c379a000000000000000000000000000000000000000000000000000000000815260040161111290613476565b60405180910390fd5b505b6000861115611263576000600160009054906101000a900473ffffffffffffffffffffffffffffffffffffffff1673ffffffffffffffffffffffffffffffffffffffff1662fdd58e8a876040518363ffffffff1660e01b815260040161118492919061325c565b602060405180830381865afa1580156111a1573d6000803e3d6000fd5b505050506040513d601f19601f820116820180604052508101906111c5919061307f565b90506000811161126157600160009054906101000a900473ffffffffffffffffffffffffffffffffffffffff1673ffffffffffffffffffffffffffffffffffffffff1663731133e98a878a6040518463ffffffff1660e01b815260040161122e93929190613666565b600060405180830381600087803b15801561124857600080fd5b505af115801561125c573d6000803e3d6000fd5b505050505b505b82600160009054906101000a900473ffffffffffffffffffffffffffffffffffffffff1673ffffffffffffffffffffffffffffffffffffffff1662fdd58e8a876040518363ffffffff1660e01b81526004016112c092919061325c565b602060405180830381865afa1580156112dd573d6000803e3d6000fd5b505050506040513d601f19601f82011682018060405250810190611301919061307f565b1015611342576040517f08c379a0000000000000000000000000000000000000000000000000000000008152600401611339906132f7565b60405180910390fd5b600160009054906101000a900473ffffffffffffffffffffffffffffffffffffffff1673ffffffffffffffffffffffffffffffffffffffff1663f242432a8987878787876040518763ffffffff1660e01b81526004016113a796959493929190613355565b600060405180830381600087803b1580156113c157600080fd5b505af11580156113d5573d6000803e3d6000fd5b505050505050505050505050565b6000600960009054906101000a900473ffffffffffffffffffffffffffffffffffffffff16905090565b6000600a54905090565b60008060019054906101000a900460ff161590508080156114485750600160008054906101000a900460ff1660ff16105b80611475575061145730612275565b1580156114745750600160008054906101000a900460ff1660ff16145b5b6114b4576040517f08c379a00000000000000000000000000000000000000000000000000000000081526004016114ab90613722565b60405180910390fd5b60016000806101000a81548160ff021916908360ff16021790555080156114f1576001600060016101000a81548160ff0219169083151502179055505b83600160006101000a81548173ffffffffffffffffffffffffffffffffffffffff021916908373ffffffffffffffffffffffffffffffffffffffff16021790555082600260006101000a81548173ffffffffffffffffffffffffffffffffffffffff021916908373ffffffffffffffffffffffffffffffffffffffff16021790555033600060026101000a81548173ffffffffffffffffffffffffffffffffffffffff021916908373ffffffffffffffffffffffffffffffffffffffff16021790555081600690816115c391906138ee565b506000600760006101000a81548160ff0219169083151502179055506127106008819055506000600a8190555080156116495760008060016101000a81548160ff0219169083151502179055507f7f26b83ff96e1f2b6a682f133852f6798a09c465da95921460cefb384740249860016040516116409190613a08565b60405180910390a15b50505050565b3373ffffffffffffffffffffffffffffffffffffffff16600060029054906101000a900473ffffffffffffffffffffffffffffffffffffffff1673ffffffffffffffffffffffffffffffffffffffff16146116df576040517f08c379a00000000000000000000000000000000000000000000000000000000081526004016116d690612f0f565b60405180910390fd5b6000600380549050905060005b81811015611867578273ffffffffffffffffffffffffffffffffffffffff166003828154811061171f5761171e613a23565b5b9060005260206000200160009054906101000a900473ffffffffffffffffffffffffffffffffffffffff1673ffffffffffffffffffffffffffffffffffffffff16036118545760036001836117749190613502565b8154811061178557611784613a23565b5b9060005260206000200160009054906101000a900473ffffffffffffffffffffffffffffffffffffffff16600382815481106117c4576117c3613a23565b5b9060005260206000200160006101000a81548173ffffffffffffffffffffffffffffffffffffffff021916908373ffffffffffffffffffffffffffffffffffffffff160217905550600380548061181e5761181d613a52565b5b6001900381819060005260206000200160006101000a81549073ffffffffffffffffffffffffffffffffffffffff021916905590555b808061185f90613a81565b9150506116ec565b505050565b3373ffffffffffffffffffffffffffffffffffffffff16600060029054906101000a900473ffffffffffffffffffffffffffffffffffffffff1673ffffffffffffffffffffffffffffffffffffffff16146118fc576040517f08c379a00000000000000000000000000000000000000000000000000000000081526004016118f390612f0f565b60405180910390fd5b8060058190555050565b3373ffffffffffffffffffffffffffffffffffffffff16600060029054906101000a900473ffffffffffffffffffffffffffffffffffffffff1673ffffffffffffffffffffffffffffffffffffffff1614611996576040517f08c379a000000000000000000000000000000000000000000000000000000000815260040161198d90612f0f565b60405180910390fd5b6003819080600181540180825580915050600190039060005260206000200160009091909190916101000a81548173ffffffffffffffffffffffffffffffffffffffff021916908373ffffffffffffffffffffffffffffffffffffffff16021790555050565b60606003805480602002602001604051908101604052809291908181526020018280548015611a8057602002820191906000526020600020905b8160009054906101000a900473ffffffffffffffffffffffffffffffffffffffff1673ffffffffffffffffffffffffffffffffffffffff1681526020019060010190808311611a36575b5050505050905090565b3373ffffffffffffffffffffffffffffffffffffffff16600060029054906101000a900473ffffffffffffffffffffffffffffffffffffffff1673ffffffffffffffffffffffffffffffffffffffff1614611b1a576040517f08c379a0000000000000000000000000000000000000000000000000000000008152600401611b1190612f0f565b60405180910390fd5b8060048190555050565b6000600760009054906101000a900460ff16905090565b3373ffffffffffffffffffffffffffffffffffffffff16600060029054906101000a900473ffffffffffffffffffffffffffffffffffffffff1673ffffffffffffffffffffffffffffffffffffffff1614611bcb576040517f08c379a0000000000000000000000000000000000000000000000000000000008152600401611bc290612f0f565b60405180910390fd5b818160069182611bdc929190613ad4565b505050565b611beb8233612298565b80600d6000848152602001908152602001600020819055505050565b6000600d6000838152602001908152602001600020549050919050565b3373ffffffffffffffffffffffffffffffffffffffff16600060029054906101000a900473ffffffffffffffffffffffffffffffffffffffff1673ffffffffffffffffffffffffffffffffffffffff1614611cb4576040517f08c379a0000000000000000000000000000000000000000000000000000000008152600401611cab90612f0f565b60405180910390fd5b80600760006101000a81548160ff02191690831515021790555050565b611cdb8233612298565b80600b600084815260200190815260200160002060006101000a81548173ffffffffffffffffffffffffffffffffffffffff021916908373ffffffffffffffffffffffffffffffffffffffff1602179055505050565b6000600554905090565b80600a8190555050565b3373ffffffffffffffffffffffffffffffffffffffff16600060029054906101000a900473ffffffffffffffffffffffffffffffffffffffff1673ffffffffffffffffffffffffffffffffffffffff1614611dd5576040517f08c379a0000000000000000000000000000000000000000000000000000000008152600401611dcc90612f0f565b60405180910390fd5b80600960006101000a81548173ffffffffffffffffffffffffffffffffffffffff021916908373ffffffffffffffffffffffffffffffffffffffff16021790555050565b6000600454905090565b600a54341015611e68576040517f08c379a0000000000000000000000000000000000000000000000000000000008152600401611e5f90613bf0565b60405180910390fd5b6000600260009054906101000a900473ffffffffffffffffffffffffffffffffffffffff1673ffffffffffffffffffffffffffffffffffffffff166323b872dd33600960009054906101000a900473ffffffffffffffffffffffffffffffffffffffff16856040518463ffffffff1660e01b8152600401611eeb939291906133b1565b6020604051808303816000875af1158015611f0a573d6000803e3d6000fd5b505050506040513d601f19601f82011682018060405250810190611f2e91906133fd565b905080611f70576040517f08c379a0000000000000000000000000000000000000000000000000000000008152600401611f6790613476565b60405180910390fd5b5050565b611f7e8233612298565b80600c6000848152602001908152602001600020819055505050565b600760009054906101000a900460ff1615611fea576040517f08c379a0000000000000000000000000000000000000000000000000000000008152600401611fe190612f7b565b60405180910390fd5b611ff26123d9565b82600d60008981526020019081526020016000208190555081600b600089815260200190815260200160002060006101000a81548173ffffffffffffffffffffffffffffffffffffffff021916908373ffffffffffffffffffffffffffffffffffffffff16021790555080600c600089815260200190815260200160002081905550600160009054906101000a900473ffffffffffffffffffffffffffffffffffffffff1673ffffffffffffffffffffffffffffffffffffffff1663731133e989898989896040518663ffffffff1660e01b81526004016120d7959493929190613c10565b600060405180830381600087803b1580156120f157600080fd5b505af1158015612105573d6000803e3d6000fd5b505050507fd7c8bfbe90e1b1a4bbd6ffc3ab55539ade4b4c7d505c11c15dd00dbda3f784128888888888888888604051612146989796959493929190613c5e565b60405180910390a15050505050505050565b6000600b600083815260200190815260200160002060009054906101000a900473ffffffffffffffffffffffffffffffffffffffff169050919050565b61219d6123d9565b600160009054906101000a900473ffffffffffffffffffffffffffffffffffffffff1673ffffffffffffffffffffffffffffffffffffffff1663f5298aca8484846040518463ffffffff1660e01b81526004016121fc93929190613cd6565b600060405180830381600087803b15801561221657600080fd5b505af115801561222a573d6000803e3d6000fd5b50505050505050565b600081836122419190613d0d565b905092915050565b600081836122579190613d7e565b905092915050565b6000818361226d9190613036565b905092915050565b6000808273ffffffffffffffffffffffffffffffffffffffff163b119050919050565b6000600160009054906101000a900473ffffffffffffffffffffffffffffffffffffffff1673ffffffffffffffffffffffffffffffffffffffff1662fdd58e83856040518363ffffffff1660e01b81526004016122f692919061325c565b602060405180830381865afa158015612313573d6000803e3d6000fd5b505050506040513d601f19601f82011682018060405250810190612337919061307f565b9050600060029054906101000a900473ffffffffffffffffffffffffffffffffffffffff1673ffffffffffffffffffffffffffffffffffffffff163373ffffffffffffffffffffffffffffffffffffffff1614806123955750600081115b6123d4576040517f08c379a00000000000000000000000000000000000000000000000000000000081526004016123cb90613e21565b60405180910390fd5b505050565b600060038054905090506000805b8281101561247c576003818154811061240357612402613a23565b5b9060005260206000200160009054906101000a900473ffffffffffffffffffffffffffffffffffffffff1673ffffffffffffffffffffffffffffffffffffffff163373ffffffffffffffffffffffffffffffffffffffff1603612469576001915061247c565b808061247490613a81565b9150506123e7565b50806124bd576040517f08c379a00000000000000000000000000000000000000000000000000000000081526004016124b490613eb3565b60405180910390fd5b5050565b6000604051905090565b600080fd5b600080fd5b6000819050919050565b6124e8816124d5565b81146124f357600080fd5b50565b600081359050612505816124df565b92915050565b600060208284031215612521576125206124cb565b5b600061252f848285016124f6565b91505092915050565b612541816124d5565b82525050565b600060208201905061255c6000830184612538565b92915050565b600081519050919050565b600082825260208201905092915050565b60005b8381101561259c578082015181840152602081019050612581565b60008484015250505050565b6000601f19601f8301169050919050565b60006125c482612562565b6125ce818561256d565b93506125de81856020860161257e565b6125e7816125a8565b840191505092915050565b6000602082019050818103600083015261260c81846125b9565b905092915050565b600073ffffffffffffffffffffffffffffffffffffffff82169050919050565b600061263f82612614565b9050919050565b61264f81612634565b811461265a57600080fd5b50565b60008135905061266c81612646565b92915050565b600060208284031215612688576126876124cb565b5b60006126968482850161265d565b91505092915050565b60006126aa82612614565b9050919050565b6126ba8161269f565b81146126c557600080fd5b50565b6000813590506126d7816126b1565b92915050565b600080fd5b600080fd5b600080fd5b60008083601f840112612702576127016126dd565b5b8235905067ffffffffffffffff81111561271f5761271e6126e2565b5b60208301915083600182028301111561273b5761273a6126e7565b5b9250929050565b60008060008060008060008060e0898b031215612762576127616124cb565b5b60006127708b828c016126c8565b98505060206127818b828c016126c8565b97505060406127928b828c016124f6565b96505060606127a38b828c016124f6565b955050608089013567ffffffffffffffff8111156127c4576127c36124d0565b5b6127d08b828c016126ec565b945094505060a06127e38b828c016124f6565b92505060c06127f48b828c016124f6565b9150509295985092959890939650565b60008060008060008060008060e0898b031215612824576128236124cb565b5b60006128328b828c016126c8565b98505060206128438b828c016124f6565b97505060406128548b828c016124f6565b96505060606128658b828c016126c8565b95505060806128768b828c016124f6565b94505060a06128878b828c016124f6565b93505060c089013567ffffffffffffffff8111156128a8576128a76124d0565b5b6128b48b828c016126ec565b92509250509295985092959890939650565b6128cf8161269f565b82525050565b60006020820190506128ea60008301846128c6565b92915050565b600080fd5b7f4e487b7100000000000000000000000000000000000000000000000000000000600052604160045260246000fd5b61292d826125a8565b810181811067ffffffffffffffff8211171561294c5761294b6128f5565b5b80604052505050565b600061295f6124c1565b905061296b8282612924565b919050565b600067ffffffffffffffff82111561298b5761298a6128f5565b5b612994826125a8565b9050602081019050919050565b82818337600083830152505050565b60006129c36129be84612970565b612955565b9050828152602081018484840111156129df576129de6128f0565b5b6129ea8482856129a1565b509392505050565b600082601f830112612a0757612a066126dd565b5b8135612a178482602086016129b0565b91505092915050565b600080600060608486031215612a3957612a386124cb565b5b6000612a47868287016126c8565b9350506020612a58868287016126c8565b925050604084013567ffffffffffffffff811115612a7957612a786124d0565b5b612a85868287016129f2565b9150509250925092565b600060208284031215612aa557612aa46124cb565b5b6000612ab3848285016126c8565b91505092915050565b600081519050919050565b600082825260208201905092915050565b6000819050602082019050919050565b612af18161269f565b82525050565b6000612b038383612ae8565b60208301905092915050565b6000602082019050919050565b6000612b2782612abc565b612b318185612ac7565b9350612b3c83612ad8565b8060005b83811015612b6d578151612b548882612af7565b9750612b5f83612b0f565b925050600181019050612b40565b5085935050505092915050565b60006020820190508181036000830152612b948184612b1c565b905092915050565b60008115159050919050565b612bb181612b9c565b82525050565b6000602082019050612bcc6000830184612ba8565b92915050565b60008083601f840112612be857612be76126dd565b5b8235905067ffffffffffffffff811115612c0557612c046126e2565b5b602083019150836001820283011115612c2157612c206126e7565b5b9250929050565b60008060208385031215612c3f57612c3e6124cb565b5b600083013567ffffffffffffffff811115612c5d57612c5c6124d0565b5b612c6985828601612bd2565b92509250509250929050565b60008060408385031215612c8c57612c8b6124cb565b5b6000612c9a858286016124f6565b9250506020612cab858286016124f6565b9150509250929050565b612cbe81612b9c565b8114612cc957600080fd5b50565b600081359050612cdb81612cb5565b92915050565b600060208284031215612cf757612cf66124cb565b5b6000612d0584828501612ccc565b91505092915050565b60008060408385031215612d2557612d246124cb565b5b6000612d33858286016124f6565b9250506020612d44858286016126c8565b9150509250929050565b60008060008060008060008060e0898b031215612d6e57612d6d6124cb565b5b6000612d7c8b828c016126c8565b9850506020612d8d8b828c016124f6565b9750506040612d9e8b828c016124f6565b965050606089013567ffffffffffffffff811115612dbf57612dbe6124d0565b5b612dcb8b828c016126ec565b95509550506080612dde8b828c016124f6565b93505060a0612def8b828c016126c8565b92505060c0612e008b828c016124f6565b9150509295985092959890939650565b600080600060608486031215612e2957612e286124cb565b5b6000612e37868287016126c8565b9350506020612e48868287016124f6565b9250506040612e59868287016124f6565b9150509250925092565b7f4e487b7100000000000000000000000000000000000000000000000000000000600052602260045260246000fd5b60006002820490506001821680612eaa57607f821691505b602082108103612ebd57612ebc612e63565b5b50919050565b7f6f6e6c79206f776e65722063616e20646f20746865207461736b000000000000600082015250565b6000612ef9601a8361256d565b9150612f0482612ec3565b602082019050919050565b60006020820190508181036000830152612f2881612eec565b9050919050565b7f43616e206e6f7420776f726b2c626563617573652069732066726f7a65640000600082015250565b6000612f65601e8361256d565b9150612f7082612f2f565b602082019050919050565b60006020820190508181036000830152612f9481612f58565b9050919050565b7f666565206973206e6f7420656e6f756768000000000000000000000000000000600082015250565b6000612fd160118361256d565b9150612fdc82612f9b565b602082019050919050565b6000602082019050818103600083015261300081612fc4565b9050919050565b7f4e487b7100000000000000000000000000000000000000000000000000000000600052601160045260246000fd5b6000613041826124d5565b915061304c836124d5565b925082820190508082111561306457613063613007565b5b92915050565b600081519050613079816124df565b92915050565b600060208284031215613095576130946124cb565b5b60006130a38482850161306a565b91505092915050565b7f62616c616e6365206973206e6f7420656e6f7567680000000000000000000000600082015250565b60006130e260158361256d565b91506130ed826130ac565b602082019050919050565b60006020820190508181036000830152613111816130d5565b9050919050565b7f6e667420496420646f6573206e6f742073657420707269636500000000000000600082015250565b600061314e60198361256d565b915061315982613118565b602082019050919050565b6000602082019050818103600083015261317d81613141565b9050919050565b7f6e667420496420646f6573206e6f742073657420726174696f00000000000000600082015250565b60006131ba60198361256d565b91506131c582613184565b602082019050919050565b600060208201905081810360008301526131e9816131ad565b9050919050565b7f6e667420496420646f6573206e6f7420736574207075626c6973686572000000600082015250565b6000613226601d8361256d565b9150613231826131f0565b602082019050919050565b6000602082019050818103600083015261325581613219565b9050919050565b600060408201905061327160008301856128c6565b61327e6020830184612538565b9392505050565b7f73656c6c6c657220646f206e6f74206861766520656e6f756768206e6674206e60008201527f756d626572000000000000000000000000000000000000000000000000000000602082015250565b60006132e160258361256d565b91506132ec82613285565b604082019050919050565b60006020820190508181036000830152613310816132d4565b9050919050565b600082825260208201905092915050565b60006133348385613317565b93506133418385846129a1565b61334a836125a8565b840190509392505050565b600060a08201905061336a60008301896128c6565b61337760208301886128c6565b6133846040830187612538565b6133916060830186612538565b81810360808301526133a4818486613328565b9050979650505050505050565b60006060820190506133c660008301866128c6565b6133d360208301856128c6565b6133e06040830184612538565b949350505050565b6000815190506133f781612cb5565b92915050565b600060208284031215613413576134126124cb565b5b6000613421848285016133e8565b91505092915050565b7f73656e6420746f20706c6174666f726d206661696c6564000000000000000000600082015250565b600061346060178361256d565b915061346b8261342a565b602082019050919050565b6000602082019050818103600083015261348f81613453565b9050919050565b7f73656e6420746f207075626c6973686572206661696c65640000000000000000600082015250565b60006134cc60188361256d565b91506134d782613496565b602082019050919050565b600060208201905081810360008301526134fb816134bf565b9050919050565b600061350d826124d5565b9150613518836124d5565b92508282039050818111156135305761352f613007565b5b92915050565b7f73656e6420746f2073656c6c6572206661696c65640000000000000000000000600082015250565b600061356c60158361256d565b915061357782613536565b602082019050919050565b6000602082019050818103600083015261359b8161355f565b9050919050565b600060e0820190506135b7600083018b6128c6565b6135c4602083018a6128c6565b6135d16040830189612538565b6135de6060830188612538565b81810360808301526135f1818688613328565b905061360060a0830185612538565b61360d60c0830184612538565b9998505050505050505050565b7f3078303100000000000000000000000000000000000000000000000000000000600082015250565b6000613650600483613317565b915061365b8261361a565b602082019050919050565b600060808201905061367b60008301866128c6565b6136886020830185612538565b6136956040830184612538565b81810360608301526136a681613643565b9050949350505050565b7f496e697469616c697a61626c653a20636f6e747261637420697320616c72656160008201527f647920696e697469616c697a6564000000000000000000000000000000000000602082015250565b600061370c602e8361256d565b9150613717826136b0565b604082019050919050565b6000602082019050818103600083015261373b816136ff565b9050919050565b60008190508160005260206000209050919050565b60006020601f8301049050919050565b600082821b905092915050565b6000600883026137a47fffffffffffffffffffffffffffffffffffffffffffffffffffffffffffffffff82613767565b6137ae8683613767565b95508019841693508086168417925050509392505050565b6000819050919050565b60006137eb6137e66137e1846124d5565b6137c6565b6124d5565b9050919050565b6000819050919050565b613805836137d0565b613819613811826137f2565b848454613774565b825550505050565b600090565b61382e613821565b6138398184846137fc565b505050565b5b8181101561385d57613852600082613826565b60018101905061383f565b5050565b601f8211156138a25761387381613742565b61387c84613757565b8101602085101561388b578190505b61389f61389785613757565b83018261383e565b50505b505050565b600082821c905092915050565b60006138c5600019846008026138a7565b1980831691505092915050565b60006138de83836138b4565b9150826002028217905092915050565b6138f782612562565b67ffffffffffffffff8111156139105761390f6128f5565b5b61391a8254612e92565b613925828285613861565b600060209050601f8311600181146139585760008415613946578287015190505b61395085826138d2565b8655506139b8565b601f19841661396686613742565b60005b8281101561398e57848901518255600182019150602085019450602081019050613969565b868310156139ab57848901516139a7601f8916826138b4565b8355505b6001600288020188555050505b505050505050565b6000819050919050565b600060ff82169050919050565b60006139f26139ed6139e8846139c0565b6137c6565b6139ca565b9050919050565b613a02816139d7565b82525050565b6000602082019050613a1d60008301846139f9565b92915050565b7f4e487b7100000000000000000000000000000000000000000000000000000000600052603260045260246000fd5b7f4e487b7100000000000000000000000000000000000000000000000000000000600052603160045260246000fd5b6000613a8c826124d5565b91507fffffffffffffffffffffffffffffffffffffffffffffffffffffffffffffffff8203613abe57613abd613007565b5b600182019050919050565b600082905092915050565b613ade8383613ac9565b67ffffffffffffffff811115613af757613af66128f5565b5b613b018254612e92565b613b0c828285613861565b6000601f831160018114613b3b5760008415613b29578287013590505b613b3385826138d2565b865550613b9b565b601f198416613b4986613742565b60005b82811015613b7157848901358255600182019150602085019450602081019050613b4c565b86831015613b8e5784890135613b8a601f8916826138b4565b8355505b6001600288020188555050505b50505050505050565b7f66697273742074726164652066656520746f6f206c6f77000000000000000000600082015250565b6000613bda60178361256d565b9150613be582613ba4565b602082019050919050565b60006020820190508181036000830152613c0981613bcd565b9050919050565b6000608082019050613c2560008301886128c6565b613c326020830187612538565b613c3f6040830186612538565b8181036060830152613c52818486613328565b90509695505050505050565b600060e082019050613c73600083018b6128c6565b613c80602083018a612538565b613c8d6040830189612538565b8181036060830152613ca0818789613328565b9050613caf6080830186612538565b613cbc60a08301856128c6565b613cc960c0830184612538565b9998505050505050505050565b6000606082019050613ceb60008301866128c6565b613cf86020830185612538565b613d056040830184612538565b949350505050565b6000613d18826124d5565b9150613d23836124d5565b9250828202613d31816124d5565b91508282048414831517613d4857613d47613007565b5b5092915050565b7f4e487b7100000000000000000000000000000000000000000000000000000000600052601260045260246000fd5b6000613d89826124d5565b9150613d94836124d5565b925082613da457613da3613d4f565b5b828204905092915050565b7f6f6e6c792061646d696e206f72206e6674206f776e65722063616e206368616e60008201527f6765207468652073657474696e67000000000000000000000000000000000000602082015250565b6000613e0b602e8361256d565b9150613e1682613daf565b604082019050919050565b60006020820190508181036000830152613e3a81613dfe565b9050919050565b7f646f206e6f7420686176652074686520726967687420746f206d696e74206f7260008201527f206275726e000000000000000000000000000000000000000000000000000000602082015250565b6000613e9d60258361256d565b9150613ea882613e41565b604082019050919050565b60006020820190508181036000830152613ecc81613e90565b905091905056fea26469706673582212202b6a6ade69fe82211ece56835f6100b13527c547f1c7b2a770b37213c157f0f664736f6c63430008110033",
  "linkReferences": {},
  "deployedLinkReferences": {}
}