{
  "_format": "hh-sol-artifact-1",
  "contractName": "DBookPlatform",
  "sourceName": "contracts/DBookPlatform.sol",
  "abi": [
    {
      "anonymous": false,
      "inputs": [
        {
          "indexed": false,
          "internalType": "address",
          "name": "to",
          "type": "address"
        },
        {
          "indexed": false,
          "internalType": "uint256",
          "name": "nftId",
          "type": "uint256"
        },
        {
          "indexed": false,
          "internalType": "uint256",
          "name": "amount",
          "type": "uint256"
        },
        {
          "indexed": false,
          "internalType": "bytes",
          "name": "data",
          "type": "bytes"
        },
        {
          "indexed": false,
          "internalType": "uint256",
          "name": "price",
          "type": "uint256"
        },
        {
          "indexed": false,
          "internalType": "address",
          "name": "publisherAddress",
          "type": "address"
        },
        {
          "indexed": false,
          "internalType": "uint256",
          "name": "publisherRatio",
          "type": "uint256"
        }
      ],
      "name": "Issue",
      "type": "event"
    },
    {
      "anonymous": false,
      "inputs": [
        {
          "indexed": false,
          "internalType": "address",
          "name": "seller",
          "type": "address"
        },
        {
          "indexed": false,
          "internalType": "address",
          "name": "receiver",
          "type": "address"
        },
        {
          "indexed": false,
          "internalType": "uint256",
          "name": "nftId",
          "type": "uint256"
        },
        {
          "indexed": false,
          "internalType": "uint256",
          "name": "nftAmount",
          "type": "uint256"
        },
        {
          "indexed": false,
          "internalType": "bytes",
          "name": "data",
          "type": "bytes"
        },
        {
          "indexed": false,
          "internalType": "uint256",
          "name": "tradeValue",
          "type": "uint256"
        },
        {
          "indexed": false,
          "internalType": "uint256",
          "name": "fee",
          "type": "uint256"
        }
      ],
      "name": "Trade",
      "type": "event"
    },
    {
      "inputs": [
        {
          "internalType": "address",
          "name": "token1155",
          "type": "address"
        },
        {
          "internalType": "address",
          "name": "token20",
          "type": "address"
        },
        {
          "internalType": "string",
          "name": "version",
          "type": "string"
        }
      ],
      "name": "__DBookPlatform_init",
      "outputs": [],
      "stateMutability": "nonpayable",
      "type": "function"
    },
    {
      "inputs": [
        {
          "internalType": "address",
          "name": "minter",
          "type": "address"
        }
      ],
      "name": "addAuth",
      "outputs": [],
      "stateMutability": "nonpayable",
      "type": "function"
    },
    {
      "inputs": [
        {
          "internalType": "uint256",
          "name": "nftId",
          "type": "uint256"
        },
        {
          "internalType": "uint256",
          "name": "amount",
          "type": "uint256"
        }
      ],
      "name": "burn",
      "outputs": [],
      "stateMutability": "nonpayable",
      "type": "function"
    },
    {
      "inputs": [
        {
          "internalType": "address",
          "name": "minter",
          "type": "address"
        }
      ],
      "name": "delAuth",
      "outputs": [],
      "stateMutability": "nonpayable",
      "type": "function"
    },
    {
      "inputs": [],
      "name": "getFee",
      "outputs": [
        {
          "internalType": "uint256",
          "name": "",
          "type": "uint256"
        }
      ],
      "stateMutability": "view",
      "type": "function"
    },
    {
      "inputs": [],
      "name": "getFirstTradeFee",
      "outputs": [
        {
          "internalType": "uint256",
          "name": "",
          "type": "uint256"
        }
      ],
      "stateMutability": "view",
      "type": "function"
    },
    {
      "inputs": [],
      "name": "getFrozen",
      "outputs": [
        {
          "internalType": "bool",
          "name": "",
          "type": "bool"
        }
      ],
      "stateMutability": "view",
      "type": "function"
    },
    {
      "inputs": [],
      "name": "getIssueList",
      "outputs": [
        {
          "internalType": "address[]",
          "name": "",
          "type": "address[]"
        }
      ],
      "stateMutability": "view",
      "type": "function"
    },
    {
      "inputs": [
        {
          "internalType": "uint256",
          "name": "nftId",
          "type": "uint256"
        }
      ],
      "name": "getNftPrice",
      "outputs": [
        {
          "internalType": "uint256",
          "name": "",
          "type": "uint256"
        }
      ],
      "stateMutability": "view",
      "type": "function"
    },
    {
      "inputs": [],
      "name": "getPlatformAddress",
      "outputs": [
        {
          "internalType": "address",
          "name": "",
          "type": "address"
        }
      ],
      "stateMutability": "view",
      "type": "function"
    },
    {
      "inputs": [],
      "name": "getPlatformRatio",
      "outputs": [
        {
          "internalType": "uint256",
          "name": "",
          "type": "uint256"
        }
      ],
      "stateMutability": "view",
      "type": "function"
    },
    {
      "inputs": [
        {
          "internalType": "uint256",
          "name": "nftId",
          "type": "uint256"
        }
      ],
      "name": "getPublisherAddress",
      "outputs": [
        {
          "internalType": "address",
          "name": "",
          "type": "address"
        }
      ],
      "stateMutability": "view",
      "type": "function"
    },
    {
      "inputs": [
        {
          "internalType": "uint256",
          "name": "nftId",
          "type": "uint256"
        }
      ],
      "name": "getPublisherRatio",
      "outputs": [
        {
          "internalType": "uint256",
          "name": "",
          "type": "uint256"
        }
      ],
      "stateMutability": "view",
      "type": "function"
    },
    {
      "inputs": [],
      "name": "getVersion",
      "outputs": [
        {
          "internalType": "string",
          "name": "",
          "type": "string"
        }
      ],
      "stateMutability": "view",
      "type": "function"
    },
    {
      "inputs": [
        {
          "internalType": "address",
          "name": "to",
          "type": "address"
        },
        {
          "internalType": "uint256",
          "name": "nftId",
          "type": "uint256"
        },
        {
          "internalType": "uint256",
          "name": "amount",
          "type": "uint256"
        },
        {
          "internalType": "bytes",
          "name": "data",
          "type": "bytes"
        },
        {
          "internalType": "uint256",
          "name": "price",
          "type": "uint256"
        },
        {
          "internalType": "address",
          "name": "publisherAddress",
          "type": "address"
        },
        {
          "internalType": "uint256",
          "name": "publisherRatio",
          "type": "uint256"
        }
      ],
      "name": "issue",
      "outputs": [],
      "stateMutability": "nonpayable",
      "type": "function"
    },
    {
      "inputs": [
        {
          "internalType": "uint256",
          "name": "payValue",
          "type": "uint256"
        }
      ],
      "name": "payFirstTrade",
      "outputs": [],
      "stateMutability": "payable",
      "type": "function"
    },
    {
      "inputs": [
        {
          "internalType": "address",
          "name": "seller",
          "type": "address"
        },
        {
          "internalType": "uint256",
          "name": "payValue",
          "type": "uint256"
        },
        {
          "internalType": "uint256",
          "name": "mintAmont",
          "type": "uint256"
        },
        {
          "internalType": "address",
          "name": "buyer",
          "type": "address"
        },
        {
          "internalType": "uint256",
          "name": "nftId",
          "type": "uint256"
        },
        {
          "internalType": "uint256",
          "name": "amount",
          "type": "uint256"
        },
        {
          "internalType": "bytes",
          "name": "metaData",
          "type": "bytes"
        }
      ],
      "name": "runFirstTrade",
      "outputs": [],
      "stateMutability": "nonpayable",
      "type": "function"
    },
    {
      "inputs": [
        {
          "internalType": "uint256",
          "name": "fee",
          "type": "uint256"
        }
      ],
      "name": "setFee",
      "outputs": [],
      "stateMutability": "nonpayable",
      "type": "function"
    },
    {
      "inputs": [
        {
          "internalType": "uint256",
          "name": "firstTradeFee",
          "type": "uint256"
        }
      ],
      "name": "setFirstTradeFee",
      "outputs": [],
      "stateMutability": "nonpayable",
      "type": "function"
    },
    {
      "inputs": [
        {
          "internalType": "bool",
          "name": "isFrozen",
          "type": "bool"
        }
      ],
      "name": "setFrozen",
      "outputs": [],
      "stateMutability": "nonpayable",
      "type": "function"
    },
    {
      "inputs": [
        {
          "internalType": "uint256",
          "name": "nftId",
          "type": "uint256"
        },
        {
          "internalType": "uint256",
          "name": "price",
          "type": "uint256"
        }
      ],
      "name": "setNftPrice",
      "outputs": [],
      "stateMutability": "nonpayable",
      "type": "function"
    },
    {
      "inputs": [
        {
          "internalType": "address",
          "name": "platformAddress",
          "type": "address"
        }
      ],
      "name": "setPlatformAddress",
      "outputs": [],
      "stateMutability": "nonpayable",
      "type": "function"
    },
    {
      "inputs": [
        {
          "internalType": "uint256",
          "name": "platformRatio",
          "type": "uint256"
        }
      ],
      "name": "setPlatformRatio",
      "outputs": [],
      "stateMutability": "nonpayable",
      "type": "function"
    },
    {
      "inputs": [
        {
          "internalType": "uint256",
          "name": "nftId",
          "type": "uint256"
        },
        {
          "internalType": "address",
          "name": "publishAddress",
          "type": "address"
        }
      ],
      "name": "setPublisherAddress",
      "outputs": [],
      "stateMutability": "nonpayable",
      "type": "function"
    },
    {
      "inputs": [
        {
          "internalType": "uint256",
          "name": "nftId",
          "type": "uint256"
        },
        {
          "internalType": "uint256",
          "name": "publishRatio",
          "type": "uint256"
        }
      ],
      "name": "setPublisherRatio",
      "outputs": [],
      "stateMutability": "nonpayable",
      "type": "function"
    },
    {
      "inputs": [
        {
          "internalType": "string",
          "name": "version",
          "type": "string"
        }
      ],
      "name": "setVersion",
      "outputs": [],
      "stateMutability": "nonpayable",
      "type": "function"
    },
    {
      "inputs": [
        {
          "internalType": "address",
          "name": "seller",
          "type": "address"
        },
        {
          "internalType": "address",
          "name": "receiver",
          "type": "address"
        },
        {
          "internalType": "uint256",
          "name": "nftId",
          "type": "uint256"
        },
        {
          "internalType": "uint256",
          "name": "nftAmount",
          "type": "uint256"
        },
        {
          "internalType": "bytes",
          "name": "data",
          "type": "bytes"
        },
        {
          "internalType": "uint256",
          "name": "tradeValue",
          "type": "uint256"
        },
        {
          "internalType": "uint256",
          "name": "fee",
          "type": "uint256"
        }
      ],
      "name": "trade",
      "outputs": [],
      "stateMutability": "nonpayable",
      "type": "function"
    },
    {
      "inputs": [
        {
          "internalType": "address payable",
          "name": "_to",
          "type": "address"
        }
      ],
      "name": "withdrawMoneyTo",
      "outputs": [],
      "stateMutability": "nonpayable",
      "type": "function"
    }
  ],
  "bytecode": "0x608060405234801561001057600080fd5b50613adf806100206000396000f3fe6080604052600436106101b75760003560e01c8063788bc78c116100ec578063cacd0b171161008a578063d353f6b811610064578063d353f6b814610ade578063df5297a414610b0c578063e78ec44714610b51578063ed4a28a914610c3f576101b7565b8063cacd0b1714610a27578063cc03c34214610a62578063ced72f8714610ab3576101b7565b80637e932d32116100c65780637e932d321461091f578063a8d4c2101461095c578063b390c0ab146109b7578063bfb55440146109fc576101b7565b8063788bc78c146108055780637a61013f1461088b5780637bf0989a146108d0576101b7565b806349d9edab116101595780635422224e116101335780635422224e146106de5780635eccd72b1461072f57806369fe0e2d1461079b5780637495b353146107d6576101b7565b806349d9edab1461054a5780634de1e8051461065257806350469170146106a3576101b7565b8063213a86f311610195578063213a86f3146102ec57806335b1994b146103da5780633c0c4566146104c85780633f75c6ac1461051f576101b7565b8063043d2ed6146101bc5780630d8e6e2c1461020b5780630ff8d8a51461029b575b600080fd5b3480156101c857600080fd5b506101f5600480360360208110156101df57600080fd5b8101908080359060200190929190505050610cba565b6040518082815260200191505060405180910390f35b34801561021757600080fd5b50610220610cd7565b6040518080602001828103825283818151815260200191508051906020019080838360005b83811015610260578082015181840152602081019050610245565b50505050905090810190601f16801561028d5780820380516001836020036101000a031916815260200191505b509250505060405180910390f35b3480156102a757600080fd5b506102ea600480360360208110156102be57600080fd5b81019080803573ffffffffffffffffffffffffffffffffffffffff169060200190929190505050610d79565b005b3480156102f857600080fd5b506103d8600480360360e081101561030f57600080fd5b81019080803573ffffffffffffffffffffffffffffffffffffffff169060200190929190803573ffffffffffffffffffffffffffffffffffffffff16906020019092919080359060200190929190803590602001909291908035906020019064010000000081111561038057600080fd5b82018360208201111561039257600080fd5b803590602001918460018302840111640100000000831117156103b457600080fd5b90919293919293908035906020019092919080359060200190929190505050610e86565b005b3480156103e657600080fd5b506104c6600480360360e08110156103fd57600080fd5b81019080803573ffffffffffffffffffffffffffffffffffffffff1690602001909291908035906020019092919080359060200190929190803573ffffffffffffffffffffffffffffffffffffffff16906020019092919080359060200190929190803590602001909291908035906020019064010000000081111561048257600080fd5b82018360208201111561049457600080fd5b803590602001918460018302840111640100000000831117156104b657600080fd5b9091929391929390505050611c2c565b005b3480156104d457600080fd5b506104dd612235565b604051808273ffffffffffffffffffffffffffffffffffffffff1673ffffffffffffffffffffffffffffffffffffffff16815260200191505060405180910390f35b34801561052b57600080fd5b5061053461225f565b6040518082815260200191505060405180910390f35b34801561055657600080fd5b506106506004803603606081101561056d57600080fd5b81019080803573ffffffffffffffffffffffffffffffffffffffff169060200190929190803573ffffffffffffffffffffffffffffffffffffffff169060200190929190803590602001906401000000008111156105ca57600080fd5b8201836020820111156105dc57600080fd5b803590602001918460018302840111640100000000831117156105fe57600080fd5b91908080601f016020809104026020016040519081016040528093929190818152602001838380828437600081840152601f19601f820116905080830192505050505050509192919290505050612269565b005b34801561065e57600080fd5b506106a16004803603602081101561067557600080fd5b81019080803573ffffffffffffffffffffffffffffffffffffffff169060200190929190505050612471565b005b3480156106af57600080fd5b506106dc600480360360208110156106c657600080fd5b810190808035906020019092919050505061269a565b005b3480156106ea57600080fd5b5061072d6004803603602081101561070157600080fd5b81019080803573ffffffffffffffffffffffffffffffffffffffff169060200190929190505050612767565b005b34801561073b57600080fd5b50610744612890565b6040518080602001828103825283818151815260200191508051906020019060200280838360005b8381101561078757808201518184015260208101905061076c565b505050509050019250505060405180910390f35b3480156107a757600080fd5b506107d4600480360360208110156107be57600080fd5b810190808035906020019092919050505061291e565b005b3480156107e257600080fd5b506107eb6129eb565b604051808215151515815260200191505060405180910390f35b34801561081157600080fd5b506108896004803603602081101561082857600080fd5b810190808035906020019064010000000081111561084557600080fd5b82018360208201111561085757600080fd5b8035906020019184600183028401116401000000008311171561087957600080fd5b9091929391929390505050612a02565b005b34801561089757600080fd5b506108ce600480360360408110156108ae57600080fd5b810190808035906020019092919080359060200190929190505050612adb565b005b3480156108dc57600080fd5b50610909600480360360208110156108f357600080fd5b8101908080359060200190929190505050612b01565b6040518082815260200191505060405180910390f35b34801561092b57600080fd5b5061095a6004803603602081101561094257600080fd5b81019080803515159060200190929190505050612b1e565b005b34801561096857600080fd5b506109b56004803603604081101561097f57600080fd5b8101908080359060200190929190803573ffffffffffffffffffffffffffffffffffffffff169060200190929190505050612bfe565b005b3480156109c357600080fd5b506109fa600480360360408110156109da57600080fd5b810190808035906020019092919080359060200190929190505050612c5e565b005b348015610a0857600080fd5b50610a11612d33565b6040518082815260200191505060405180910390f35b348015610a3357600080fd5b50610a6060048036036020811015610a4a57600080fd5b8101908080359060200190929190505050612d3d565b005b348015610a6e57600080fd5b50610ab160048036036020811015610a8557600080fd5b81019080803573ffffffffffffffffffffffffffffffffffffffff169060200190929190505050612d47565b005b348015610abf57600080fd5b50610ac8612e4e565b6040518082815260200191505060405180910390f35b610b0a60048036036020811015610af457600080fd5b8101908080359060200190929190505050612e58565b005b348015610b1857600080fd5b50610b4f60048036036040811015610b2f57600080fd5b810190808035906020019092919080359060200190929190505050613085565b005b348015610b5d57600080fd5b50610c3d600480360360e0811015610b7457600080fd5b81019080803573ffffffffffffffffffffffffffffffffffffffff169060200190929190803590602001909291908035906020019092919080359060200190640100000000811115610bc557600080fd5b820183602082011115610bd757600080fd5b80359060200191846001830284011164010000000083111715610bf957600080fd5b909192939192939080359060200190929190803573ffffffffffffffffffffffffffffffffffffffff169060200190929190803590602001909291905050506130ab565b005b348015610c4b57600080fd5b50610c7860048036036020811015610c6257600080fd5b81019080803590602001909291905050506133aa565b604051808273ffffffffffffffffffffffffffffffffffffffff1673ffffffffffffffffffffffffffffffffffffffff16815260200191505060405180910390f35b6000600c6000838152602001908152602001600020549050919050565b606060068054600181600116156101000203166002900480601f016020809104026020016040519081016040528092919081815260200182805460018160011615610100020316600290048015610d6f5780601f10610d4457610100808354040283529160200191610d6f565b820191906000526020600020905b815481529060010190602001808311610d5257829003601f168201915b5050505050905090565b3373ffffffffffffffffffffffffffffffffffffffff16600060029054906101000a900473ffffffffffffffffffffffffffffffffffffffff1673ffffffffffffffffffffffffffffffffffffffff1614610e3c576040517f08c379a000000000000000000000000000000000000000000000000000000000815260040180806020018281038252601a8152602001807f6f6e6c79206f776e65722063616e20646f20746865207461736b00000000000081525060200191505060405180910390fd5b8073ffffffffffffffffffffffffffffffffffffffff166108fc479081150290604051600060405180830381858888f19350505050158015610e82573d6000803e3d6000fd5b5050565b600760009054906101000a900460ff1615610f09576040517f08c379a000000000000000000000000000000000000000000000000000000000815260040180806020018281038252601e8152602001807f43616e206e6f7420776f726b2c626563617573652069732066726f7a6564000081525060200191505060405180910390fd5b600080600080600454851015610f87576040517f08c379a00000000000000000000000000000000000000000000000000000000081526004018080602001828103825260118152602001807f666565206973206e6f7420656e6f75676800000000000000000000000000000081525060200191505060405180910390fd5b848601600260009054906101000a900473ffffffffffffffffffffffffffffffffffffffff1673ffffffffffffffffffffffffffffffffffffffff166370a08231336040518263ffffffff1660e01b8152600401808273ffffffffffffffffffffffffffffffffffffffff1673ffffffffffffffffffffffffffffffffffffffff16815260200191505060206040518083038186803b15801561102957600080fd5b505afa15801561103d573d6000803e3d6000fd5b505050506040513d602081101561105357600080fd5b810190808051906020019092919050505010156110d8576040517f08c379a00000000000000000000000000000000000000000000000000000000081526004018080602001828103825260158152602001807f62616c616e6365206973206e6f7420656e6f756768000000000000000000000081525060200191505060405180910390fd5b6000600d60008c8152602001908152602001600020541415611162576040517f08c379a00000000000000000000000000000000000000000000000000000000081526004018080602001828103825260198152602001807f6e667420496420646f6573206e6f74207365742070726963650000000000000081525060200191505060405180910390fd5b88600d60008c815260200190815260200160002054028610156111ed576040517f08c379a00000000000000000000000000000000000000000000000000000000081526004018080602001828103825260198152602001807f74726163652076616c7565206973206e6f7420656e6f7567680000000000000081525060200191505060405180910390fd5b6000600c60008c8152602001908152602001600020541415611277576040517f08c379a00000000000000000000000000000000000000000000000000000000081526004018080602001828103825260198152602001807f6e667420496420646f6573206e6f742073657420726174696f0000000000000081525060200191505060405180910390fd5b600073ffffffffffffffffffffffffffffffffffffffff16600b60008c815260200190815260200160002060009054906101000a900473ffffffffffffffffffffffffffffffffffffffff1673ffffffffffffffffffffffffffffffffffffffff16141561134d576040517f08c379a000000000000000000000000000000000000000000000000000000000815260040180806020018281038252601d8152602001807f6e667420496420646f6573206e6f7420736574207075626c697368657200000081525060200191505060405180910390fd5b88600160009054906101000a900473ffffffffffffffffffffffffffffffffffffffff1673ffffffffffffffffffffffffffffffffffffffff1662fdd58e8e8d6040518363ffffffff1660e01b8152600401808373ffffffffffffffffffffffffffffffffffffffff1673ffffffffffffffffffffffffffffffffffffffff1681526020018281526020019250505060206040518083038186803b1580156113f457600080fd5b505afa158015611408573d6000803e3d6000fd5b505050506040513d602081101561141e57600080fd5b81019080805190602001909291905050501015611486576040517f08c379a0000000000000000000000000000000000000000000000000000000008152600401808060200182810382526025815260200180613a856025913960400191505060405180910390fd5b600160009054906101000a900473ffffffffffffffffffffffffffffffffffffffff1673ffffffffffffffffffffffffffffffffffffffff1663f242432a8d8d8d8d8d8d6040518763ffffffff1660e01b8152600401808773ffffffffffffffffffffffffffffffffffffffff1673ffffffffffffffffffffffffffffffffffffffff1681526020018673ffffffffffffffffffffffffffffffffffffffff1673ffffffffffffffffffffffffffffffffffffffff168152602001858152602001848152602001806020018281038252848482818152602001925080828437600081840152601f19601f820116905080830192505050975050505050505050600060405180830381600087803b15801561159f57600080fd5b505af11580156115b3573d6000803e3d6000fd5b505050506115f2856115e46008546115d66005548b6133e790919063ffffffff16565b61346d90919063ffffffff16565b6134b790919063ffffffff16565b9350600260009054906101000a900473ffffffffffffffffffffffffffffffffffffffff1673ffffffffffffffffffffffffffffffffffffffff166323b872dd33600960009054906101000a900473ffffffffffffffffffffffffffffffffffffffff16876040518463ffffffff1660e01b8152600401808473ffffffffffffffffffffffffffffffffffffffff1673ffffffffffffffffffffffffffffffffffffffff1681526020018373ffffffffffffffffffffffffffffffffffffffff1673ffffffffffffffffffffffffffffffffffffffff1681526020018281526020019350505050602060405180830381600087803b1580156116f357600080fd5b505af1158015611707573d6000803e3d6000fd5b505050506040513d602081101561171d57600080fd5b81019080805190602001909291905050509050806117a3576040517f08c379a00000000000000000000000000000000000000000000000000000000081526004018080602001828103825260178152602001807f73656e6420746f20706c6174666f726d206661696c656400000000000000000081525060200191505060405180910390fd5b6117dd6008546117cf600c60008e815260200190815260200160002054896133e790919063ffffffff16565b61346d90919063ffffffff16565b9250600260009054906101000a900473ffffffffffffffffffffffffffffffffffffffff1673ffffffffffffffffffffffffffffffffffffffff166323b872dd33600b60008e815260200190815260200160002060009054906101000a900473ffffffffffffffffffffffffffffffffffffffff16866040518463ffffffff1660e01b8152600401808473ffffffffffffffffffffffffffffffffffffffff1673ffffffffffffffffffffffffffffffffffffffff1681526020018373ffffffffffffffffffffffffffffffffffffffff1673ffffffffffffffffffffffffffffffffffffffff1681526020018281526020019350505050602060405180830381600087803b1580156118ef57600080fd5b505af1158015611903573d6000803e3d6000fd5b505050506040513d602081101561191957600080fd5b810190808051906020019092919050505090508061199f576040517f08c379a00000000000000000000000000000000000000000000000000000000081526004018080602001828103825260188152602001807f73656e6420746f207075626c6973686572206661696c6564000000000000000081525060200191505060405180910390fd5b82848703039150600260009054906101000a900473ffffffffffffffffffffffffffffffffffffffff1673ffffffffffffffffffffffffffffffffffffffff166323b872dd338e856040518463ffffffff1660e01b8152600401808473ffffffffffffffffffffffffffffffffffffffff1673ffffffffffffffffffffffffffffffffffffffff1681526020018373ffffffffffffffffffffffffffffffffffffffff1673ffffffffffffffffffffffffffffffffffffffff1681526020018281526020019350505050602060405180830381600087803b158015611a8357600080fd5b505af1158015611a97573d6000803e3d6000fd5b505050506040513d6020811015611aad57600080fd5b8101908080519060200190929190505050905080611b33576040517f08c379a00000000000000000000000000000000000000000000000000000000081526004018080602001828103825260158152602001807f73656e6420746f2073656c6c6572206661696c6564000000000000000000000081525060200191505060405180910390fd5b7f46e2575a969a2d3e4018a6f8fa81b789ba49d49fec3af90112b37a34b9f64dae8c8c8c8c8c8c8c8c604051808973ffffffffffffffffffffffffffffffffffffffff1673ffffffffffffffffffffffffffffffffffffffff1681526020018873ffffffffffffffffffffffffffffffffffffffff1673ffffffffffffffffffffffffffffffffffffffff168152602001878152602001868152602001806020018481526020018381526020018281038252868682818152602001925080828437600081840152601f19601f820116905080830192505050995050505050505050505060405180910390a1505050505050505050505050565b6000871115611dc6576000600260009054906101000a900473ffffffffffffffffffffffffffffffffffffffff1673ffffffffffffffffffffffffffffffffffffffff166323b872dd338b8b6040518463ffffffff1660e01b8152600401808473ffffffffffffffffffffffffffffffffffffffff1673ffffffffffffffffffffffffffffffffffffffff1681526020018373ffffffffffffffffffffffffffffffffffffffff1673ffffffffffffffffffffffffffffffffffffffff1681526020018281526020019350505050602060405180830381600087803b158015611d1457600080fd5b505af1158015611d28573d6000803e3d6000fd5b505050506040513d6020811015611d3e57600080fd5b8101908080519060200190929190505050905080611dc4576040517f08c379a00000000000000000000000000000000000000000000000000000000081526004018080602001828103825260178152602001807f73656e6420746f20706c6174666f726d206661696c656400000000000000000081525060200191505060405180910390fd5b505b6000861115611fc1576000600160009054906101000a900473ffffffffffffffffffffffffffffffffffffffff1673ffffffffffffffffffffffffffffffffffffffff1662fdd58e8a876040518363ffffffff1660e01b8152600401808373ffffffffffffffffffffffffffffffffffffffff1673ffffffffffffffffffffffffffffffffffffffff1681526020018281526020019250505060206040518083038186803b158015611e7757600080fd5b505afa158015611e8b573d6000803e3d6000fd5b505050506040513d6020811015611ea157600080fd5b8101908080519060200190929190505050905060008111611fbf57600160009054906101000a900473ffffffffffffffffffffffffffffffffffffffff1673ffffffffffffffffffffffffffffffffffffffff1663731133e98a878a6040518463ffffffff1660e01b8152600401808473ffffffffffffffffffffffffffffffffffffffff1673ffffffffffffffffffffffffffffffffffffffff16815260200183815260200182815260200180602001828103825260048152602001807f3078303100000000000000000000000000000000000000000000000000000000815250602001945050505050600060405180830381600087803b158015611fa657600080fd5b505af1158015611fba573d6000803e3d6000fd5b505050505b505b82600160009054906101000a900473ffffffffffffffffffffffffffffffffffffffff1673ffffffffffffffffffffffffffffffffffffffff1662fdd58e8a876040518363ffffffff1660e01b8152600401808373ffffffffffffffffffffffffffffffffffffffff1673ffffffffffffffffffffffffffffffffffffffff1681526020018281526020019250505060206040518083038186803b15801561206857600080fd5b505afa15801561207c573d6000803e3d6000fd5b505050506040513d602081101561209257600080fd5b810190808051906020019092919050505010156120fa576040517f08c379a0000000000000000000000000000000000000000000000000000000008152600401808060200182810382526025815260200180613a856025913960400191505060405180910390fd5b600160009054906101000a900473ffffffffffffffffffffffffffffffffffffffff1673ffffffffffffffffffffffffffffffffffffffff1663f242432a8987878787876040518763ffffffff1660e01b8152600401808773ffffffffffffffffffffffffffffffffffffffff1673ffffffffffffffffffffffffffffffffffffffff1681526020018673ffffffffffffffffffffffffffffffffffffffff1673ffffffffffffffffffffffffffffffffffffffff168152602001858152602001848152602001806020018281038252848482818152602001925080828437600081840152601f19601f820116905080830192505050975050505050505050600060405180830381600087803b15801561221357600080fd5b505af1158015612227573d6000803e3d6000fd5b505050505050505050505050565b6000600960009054906101000a900473ffffffffffffffffffffffffffffffffffffffff16905090565b6000600a54905090565b600060019054906101000a900460ff1680612288575061228761353f565b5b8061229f57506000809054906101000a900460ff16155b6122f4576040517f08c379a000000000000000000000000000000000000000000000000000000000815260040180806020018281038252602e8152602001806139e3602e913960400191505060405180910390fd5b60008060019054906101000a900460ff161590508015612344576001600060016101000a81548160ff02191690831515021790555060016000806101000a81548160ff0219169083151502179055505b83600160006101000a81548173ffffffffffffffffffffffffffffffffffffffff021916908373ffffffffffffffffffffffffffffffffffffffff16021790555082600260006101000a81548173ffffffffffffffffffffffffffffffffffffffff021916908373ffffffffffffffffffffffffffffffffffffffff16021790555033600060026101000a81548173ffffffffffffffffffffffffffffffffffffffff021916908373ffffffffffffffffffffffffffffffffffffffff160217905550816006908051906020019061241d9291906138bd565b506000600760006101000a81548160ff0219169083151502179055506127106008819055506000600a81905550801561246b5760008060016101000a81548160ff0219169083151502179055505b50505050565b3373ffffffffffffffffffffffffffffffffffffffff16600060029054906101000a900473ffffffffffffffffffffffffffffffffffffffff1673ffffffffffffffffffffffffffffffffffffffff1614612534576040517f08c379a000000000000000000000000000000000000000000000000000000000815260040180806020018281038252601a8152602001807f6f6e6c79206f776e65722063616e20646f20746865207461736b00000000000081525060200191505060405180910390fd5b6000600380549050905060008090505b81811015612695578273ffffffffffffffffffffffffffffffffffffffff166003828154811061257057fe5b9060005260206000200160009054906101000a900473ffffffffffffffffffffffffffffffffffffffff1673ffffffffffffffffffffffffffffffffffffffff16141561268857600360018303815481106125c757fe5b9060005260206000200160009054906101000a900473ffffffffffffffffffffffffffffffffffffffff16600382815481106125ff57fe5b9060005260206000200160006101000a81548173ffffffffffffffffffffffffffffffffffffffff021916908373ffffffffffffffffffffffffffffffffffffffff160217905550600380548061265257fe5b6001900381819060005260206000200160006101000a81549073ffffffffffffffffffffffffffffffffffffffff021916905590555b8080600101915050612544565b505050565b3373ffffffffffffffffffffffffffffffffffffffff16600060029054906101000a900473ffffffffffffffffffffffffffffffffffffffff1673ffffffffffffffffffffffffffffffffffffffff161461275d576040517f08c379a000000000000000000000000000000000000000000000000000000000815260040180806020018281038252601a8152602001807f6f6e6c79206f776e65722063616e20646f20746865207461736b00000000000081525060200191505060405180910390fd5b8060058190555050565b3373ffffffffffffffffffffffffffffffffffffffff16600060029054906101000a900473ffffffffffffffffffffffffffffffffffffffff1673ffffffffffffffffffffffffffffffffffffffff161461282a576040517f08c379a000000000000000000000000000000000000000000000000000000000815260040180806020018281038252601a8152602001807f6f6e6c79206f776e65722063616e20646f20746865207461736b00000000000081525060200191505060405180910390fd5b6003819080600181540180825580915050600190039060005260206000200160009091909190916101000a81548173ffffffffffffffffffffffffffffffffffffffff021916908373ffffffffffffffffffffffffffffffffffffffff16021790555050565b6060600380548060200260200160405190810160405280929190818152602001828054801561291457602002820191906000526020600020905b8160009054906101000a900473ffffffffffffffffffffffffffffffffffffffff1673ffffffffffffffffffffffffffffffffffffffff16815260200190600101908083116128ca575b5050505050905090565b3373ffffffffffffffffffffffffffffffffffffffff16600060029054906101000a900473ffffffffffffffffffffffffffffffffffffffff1673ffffffffffffffffffffffffffffffffffffffff16146129e1576040517f08c379a000000000000000000000000000000000000000000000000000000000815260040180806020018281038252601a8152602001807f6f6e6c79206f776e65722063616e20646f20746865207461736b00000000000081525060200191505060405180910390fd5b8060048190555050565b6000600760009054906101000a900460ff16905090565b3373ffffffffffffffffffffffffffffffffffffffff16600060029054906101000a900473ffffffffffffffffffffffffffffffffffffffff1673ffffffffffffffffffffffffffffffffffffffff1614612ac5576040517f08c379a000000000000000000000000000000000000000000000000000000000815260040180806020018281038252601a8152602001807f6f6e6c79206f776e65722063616e20646f20746865207461736b00000000000081525060200191505060405180910390fd5b818160069190612ad692919061393d565b505050565b612ae58233613550565b80600d6000848152602001908152602001600020819055505050565b6000600d6000838152602001908152602001600020549050919050565b3373ffffffffffffffffffffffffffffffffffffffff16600060029054906101000a900473ffffffffffffffffffffffffffffffffffffffff1673ffffffffffffffffffffffffffffffffffffffff1614612be1576040517f08c379a000000000000000000000000000000000000000000000000000000000815260040180806020018281038252601a8152602001807f6f6e6c79206f776e65722063616e20646f20746865207461736b00000000000081525060200191505060405180910390fd5b80600760006101000a81548160ff02191690831515021790555050565b612c088233613550565b80600b600084815260200190815260200160002060006101000a81548173ffffffffffffffffffffffffffffffffffffffff021916908373ffffffffffffffffffffffffffffffffffffffff1602179055505050565b612c666136eb565b600160009054906101000a900473ffffffffffffffffffffffffffffffffffffffff1673ffffffffffffffffffffffffffffffffffffffff1663f5298aca3384846040518463ffffffff1660e01b8152600401808473ffffffffffffffffffffffffffffffffffffffff1673ffffffffffffffffffffffffffffffffffffffff1681526020018381526020018281526020019350505050600060405180830381600087803b158015612d1757600080fd5b505af1158015612d2b573d6000803e3d6000fd5b505050505050565b6000600554905090565b80600a8190555050565b3373ffffffffffffffffffffffffffffffffffffffff16600060029054906101000a900473ffffffffffffffffffffffffffffffffffffffff1673ffffffffffffffffffffffffffffffffffffffff1614612e0a576040517f08c379a000000000000000000000000000000000000000000000000000000000815260040180806020018281038252601a8152602001807f6f6e6c79206f776e65722063616e20646f20746865207461736b00000000000081525060200191505060405180910390fd5b80600960006101000a81548173ffffffffffffffffffffffffffffffffffffffff021916908373ffffffffffffffffffffffffffffffffffffffff16021790555050565b6000600454905090565b600a54341015612ed0576040517f08c379a00000000000000000000000000000000000000000000000000000000081526004018080602001828103825260178152602001807f66697273742074726164652066656520746f6f206c6f7700000000000000000081525060200191505060405180910390fd5b6000600260009054906101000a900473ffffffffffffffffffffffffffffffffffffffff1673ffffffffffffffffffffffffffffffffffffffff166323b872dd33600960009054906101000a900473ffffffffffffffffffffffffffffffffffffffff16856040518463ffffffff1660e01b8152600401808473ffffffffffffffffffffffffffffffffffffffff1673ffffffffffffffffffffffffffffffffffffffff1681526020018373ffffffffffffffffffffffffffffffffffffffff1673ffffffffffffffffffffffffffffffffffffffff1681526020018281526020019350505050602060405180830381600087803b158015612fd157600080fd5b505af1158015612fe5573d6000803e3d6000fd5b505050506040513d6020811015612ffb57600080fd5b8101908080519060200190929190505050905080613081576040517f08c379a00000000000000000000000000000000000000000000000000000000081526004018080602001828103825260178152602001807f73656e6420746f20706c6174666f726d206661696c656400000000000000000081525060200191505060405180910390fd5b5050565b61308f8233613550565b80600c6000848152602001908152602001600020819055505050565b600760009054906101000a900460ff161561312e576040517f08c379a000000000000000000000000000000000000000000000000000000000815260040180806020018281038252601e8152602001807f43616e206e6f7420776f726b2c626563617573652069732066726f7a6564000081525060200191505060405180910390fd5b6131366136eb565b82600d60008981526020019081526020016000208190555081600b600089815260200190815260200160002060006101000a81548173ffffffffffffffffffffffffffffffffffffffff021916908373ffffffffffffffffffffffffffffffffffffffff16021790555080600c600089815260200190815260200160002081905550600160009054906101000a900473ffffffffffffffffffffffffffffffffffffffff1673ffffffffffffffffffffffffffffffffffffffff1663731133e989898989896040518663ffffffff1660e01b8152600401808673ffffffffffffffffffffffffffffffffffffffff1673ffffffffffffffffffffffffffffffffffffffff168152602001858152602001848152602001806020018281038252848482818152602001925080828437600081840152601f19601f8201169050808301925050509650505050505050600060405180830381600087803b15801561329d57600080fd5b505af11580156132b1573d6000803e3d6000fd5b505050507fd7c8bfbe90e1b1a4bbd6ffc3ab55539ade4b4c7d505c11c15dd00dbda3f784128888888888888888604051808973ffffffffffffffffffffffffffffffffffffffff1673ffffffffffffffffffffffffffffffffffffffff168152602001888152602001878152602001806020018581526020018473ffffffffffffffffffffffffffffffffffffffff1673ffffffffffffffffffffffffffffffffffffffff1681526020018381526020018281038252878782818152602001925080828437600081840152601f19601f820116905080830192505050995050505050505050505060405180910390a15050505050505050565b6000600b600083815260200190815260200160002060009054906101000a900473ffffffffffffffffffffffffffffffffffffffff169050919050565b6000808314156133fa5760009050613467565b600082840290508284828161340b57fe5b0414613462576040517f08c379a0000000000000000000000000000000000000000000000000000000008152600401808060200182810382526021815260200180613a116021913960400191505060405180910390fd5b809150505b92915050565b60006134af83836040518060400160405280601a81526020017f536166654d6174683a206469766973696f6e206279207a65726f0000000000008152506137e4565b905092915050565b600080828401905083811015613535576040517f08c379a000000000000000000000000000000000000000000000000000000000815260040180806020018281038252601b8152602001807f536166654d6174683a206164646974696f6e206f766572666c6f77000000000081525060200191505060405180910390fd5b8091505092915050565b600061354a306138aa565b15905090565b6000600160009054906101000a900473ffffffffffffffffffffffffffffffffffffffff1673ffffffffffffffffffffffffffffffffffffffff1662fdd58e83856040518363ffffffff1660e01b8152600401808373ffffffffffffffffffffffffffffffffffffffff1673ffffffffffffffffffffffffffffffffffffffff1681526020018281526020019250505060206040518083038186803b1580156135f857600080fd5b505afa15801561360c573d6000803e3d6000fd5b505050506040513d602081101561362257600080fd5b81019080805190602001909291905050509050600060029054906101000a900473ffffffffffffffffffffffffffffffffffffffff1673ffffffffffffffffffffffffffffffffffffffff163373ffffffffffffffffffffffffffffffffffffffff1614806136915750600081115b6136e6576040517f08c379a000000000000000000000000000000000000000000000000000000000815260040180806020018281038252602e815260200180613a32602e913960400191505060405180910390fd5b505050565b60006003805490509050600080905060008090505b82811015613789576003818154811061371557fe5b9060005260206000200160009054906101000a900473ffffffffffffffffffffffffffffffffffffffff1673ffffffffffffffffffffffffffffffffffffffff163373ffffffffffffffffffffffffffffffffffffffff16141561377c5760019150613789565b8080600101915050613700565b50806137e0576040517f08c379a0000000000000000000000000000000000000000000000000000000008152600401808060200182810382526025815260200180613a606025913960400191505060405180910390fd5b5050565b60008083118290613890576040517f08c379a00000000000000000000000000000000000000000000000000000000081526004018080602001828103825283818151815260200191508051906020019080838360005b8381101561385557808201518184015260208101905061383a565b50505050905090810190601f1680156138825780820380516001836020036101000a031916815260200191505b509250505060405180910390fd5b50600083858161389c57fe5b049050809150509392505050565b600080823b905060008111915050919050565b828054600181600116156101000203166002900490600052602060002090601f016020900481019282601f106138fe57805160ff191683800117855561392c565b8280016001018555821561392c579182015b8281111561392b578251825591602001919060010190613910565b5b50905061393991906139bd565b5090565b828054600181600116156101000203166002900490600052602060002090601f016020900481019282601f1061397e57803560ff19168380011785556139ac565b828001600101855582156139ac579182015b828111156139ab578235825591602001919060010190613990565b5b5090506139b991906139bd565b5090565b6139df91905b808211156139db5760008160009055506001016139c3565b5090565b9056fe496e697469616c697a61626c653a20636f6e747261637420697320616c726561647920696e697469616c697a6564536166654d6174683a206d756c7469706c69636174696f6e206f766572666c6f776f6e6c792061646d696e206f72206e6674206f776e65722063616e206368616e6765207468652073657474696e67646f206e6f7420686176652074686520726967687420746f206d696e74206f72206275726e73656c6c6c657220646f206e6f74206861766520656e6f756768206e6674206e756d626572a264697066735822122028a270c8f7d3ba990f6aefadfae5d782a6fc82b851a4084775a77e2b809142b564736f6c63430006060033",
  "linkReferences": {},
  "deployedLinkReferences": {}
}