{
  "_format": "hh-sol-artifact-1",
  "contractName": "DBook1155",
  "sourceName": "contracts/DBook1155.sol",
  "abi": [
    {
      "inputs": [
        {
          "internalType": "string",
          "name": "name",
          "type": "string"
        },
        {
          "internalType": "string",
          "name": "symbol",
          "type": "string"
        },
        {
          "internalType": "string",
          "name": "uri",
          "type": "string"
        }
      ],
      "stateMutability": "nonpayable",
      "type": "constructor"
    },
    {
      "anonymous": false,
      "inputs": [
        {
          "indexed": true,
          "internalType": "address",
          "name": "account",
          "type": "address"
        },
        {
          "indexed": true,
          "internalType": "address",
          "name": "operator",
          "type": "address"
        },
        {
          "indexed": false,
          "internalType": "bool",
          "name": "approved",
          "type": "bool"
        }
      ],
      "name": "ApprovalForAll",
      "type": "event"
    },
    {
      "anonymous": false,
      "inputs": [
        {
          "indexed": true,
          "internalType": "address",
          "name": "previousOwner",
          "type": "address"
        },
        {
          "indexed": true,
          "internalType": "address",
          "name": "newOwner",
          "type": "address"
        }
      ],
      "name": "OwnershipTransferred",
      "type": "event"
    },
    {
      "anonymous": false,
      "inputs": [
        {
          "indexed": true,
          "internalType": "address",
          "name": "operator",
          "type": "address"
        },
        {
          "indexed": true,
          "internalType": "address",
          "name": "from",
          "type": "address"
        },
        {
          "indexed": true,
          "internalType": "address",
          "name": "to",
          "type": "address"
        },
        {
          "indexed": false,
          "internalType": "uint256[]",
          "name": "ids",
          "type": "uint256[]"
        },
        {
          "indexed": false,
          "internalType": "uint256[]",
          "name": "values",
          "type": "uint256[]"
        }
      ],
      "name": "TransferBatch",
      "type": "event"
    },
    {
      "anonymous": false,
      "inputs": [
        {
          "indexed": true,
          "internalType": "address",
          "name": "operator",
          "type": "address"
        },
        {
          "indexed": true,
          "internalType": "address",
          "name": "from",
          "type": "address"
        },
        {
          "indexed": true,
          "internalType": "address",
          "name": "to",
          "type": "address"
        },
        {
          "indexed": false,
          "internalType": "uint256",
          "name": "id",
          "type": "uint256"
        },
        {
          "indexed": false,
          "internalType": "uint256",
          "name": "value",
          "type": "uint256"
        }
      ],
      "name": "TransferSingle",
      "type": "event"
    },
    {
      "anonymous": false,
      "inputs": [
        {
          "indexed": false,
          "internalType": "string",
          "name": "value",
          "type": "string"
        },
        {
          "indexed": true,
          "internalType": "uint256",
          "name": "id",
          "type": "uint256"
        }
      ],
      "name": "URI",
      "type": "event"
    },
    {
      "inputs": [
        {
          "internalType": "address",
          "name": "account",
          "type": "address"
        },
        {
          "internalType": "uint256",
          "name": "id",
          "type": "uint256"
        }
      ],
      "name": "balanceOf",
      "outputs": [
        {
          "internalType": "uint256",
          "name": "",
          "type": "uint256"
        }
      ],
      "stateMutability": "view",
      "type": "function"
    },
    {
      "inputs": [
        {
          "internalType": "address[]",
          "name": "accounts",
          "type": "address[]"
        },
        {
          "internalType": "uint256[]",
          "name": "ids",
          "type": "uint256[]"
        }
      ],
      "name": "balanceOfBatch",
      "outputs": [
        {
          "internalType": "uint256[]",
          "name": "",
          "type": "uint256[]"
        }
      ],
      "stateMutability": "view",
      "type": "function"
    },
    {
      "inputs": [
        {
          "internalType": "address",
          "name": "account",
          "type": "address"
        },
        {
          "internalType": "uint256",
          "name": "tokenId",
          "type": "uint256"
        },
        {
          "internalType": "uint256",
          "name": "amount",
          "type": "uint256"
        }
      ],
      "name": "burn",
      "outputs": [],
      "stateMutability": "nonpayable",
      "type": "function"
    },
    {
      "inputs": [
        {
          "internalType": "address",
          "name": "account",
          "type": "address"
        },
        {
          "internalType": "address",
          "name": "operator",
          "type": "address"
        }
      ],
      "name": "isApprovedForAll",
      "outputs": [
        {
          "internalType": "bool",
          "name": "",
          "type": "bool"
        }
      ],
      "stateMutability": "view",
      "type": "function"
    },
    {
      "inputs": [
        {
          "internalType": "address",
          "name": "to",
          "type": "address"
        },
        {
          "internalType": "uint256",
          "name": "tokenId",
          "type": "uint256"
        },
        {
          "internalType": "uint256",
          "name": "amount",
          "type": "uint256"
        },
        {
          "internalType": "bytes",
          "name": "data",
          "type": "bytes"
        }
      ],
      "name": "mint",
      "outputs": [],
      "stateMutability": "nonpayable",
      "type": "function"
    },
    {
      "inputs": [],
      "name": "name",
      "outputs": [
        {
          "internalType": "string",
          "name": "",
          "type": "string"
        }
      ],
      "stateMutability": "view",
      "type": "function"
    },
    {
      "inputs": [],
      "name": "owner",
      "outputs": [
        {
          "internalType": "address",
          "name": "",
          "type": "address"
        }
      ],
      "stateMutability": "view",
      "type": "function"
    },
    {
      "inputs": [],
      "name": "renounceOwnership",
      "outputs": [],
      "stateMutability": "nonpayable",
      "type": "function"
    },
    {
      "inputs": [
        {
          "internalType": "address",
          "name": "from",
          "type": "address"
        },
        {
          "internalType": "address",
          "name": "to",
          "type": "address"
        },
        {
          "internalType": "uint256[]",
          "name": "ids",
          "type": "uint256[]"
        },
        {
          "internalType": "uint256[]",
          "name": "amounts",
          "type": "uint256[]"
        },
        {
          "internalType": "bytes",
          "name": "data",
          "type": "bytes"
        }
      ],
      "name": "safeBatchTransferFrom",
      "outputs": [],
      "stateMutability": "nonpayable",
      "type": "function"
    },
    {
      "inputs": [
        {
          "internalType": "address",
          "name": "from",
          "type": "address"
        },
        {
          "internalType": "address",
          "name": "to",
          "type": "address"
        },
        {
          "internalType": "uint256",
          "name": "id",
          "type": "uint256"
        },
        {
          "internalType": "uint256",
          "name": "amount",
          "type": "uint256"
        },
        {
          "internalType": "bytes",
          "name": "data",
          "type": "bytes"
        }
      ],
      "name": "safeTransferFrom",
      "outputs": [],
      "stateMutability": "nonpayable",
      "type": "function"
    },
    {
      "inputs": [
        {
          "internalType": "address",
          "name": "operator",
          "type": "address"
        },
        {
          "internalType": "bool",
          "name": "approved",
          "type": "bool"
        }
      ],
      "name": "setApprovalForAll",
      "outputs": [],
      "stateMutability": "nonpayable",
      "type": "function"
    },
    {
      "inputs": [
        {
          "internalType": "address",
          "name": "platformAddress",
          "type": "address"
        }
      ],
      "name": "setPlatformAddress",
      "outputs": [],
      "stateMutability": "nonpayable",
      "type": "function"
    },
    {
      "inputs": [
        {
          "internalType": "bytes4",
          "name": "interfaceId",
          "type": "bytes4"
        }
      ],
      "name": "supportsInterface",
      "outputs": [
        {
          "internalType": "bool",
          "name": "",
          "type": "bool"
        }
      ],
      "stateMutability": "view",
      "type": "function"
    },
    {
      "inputs": [],
      "name": "symbol",
      "outputs": [
        {
          "internalType": "string",
          "name": "",
          "type": "string"
        }
      ],
      "stateMutability": "view",
      "type": "function"
    },
    {
      "inputs": [
        {
          "internalType": "address",
          "name": "newOwner",
          "type": "address"
        }
      ],
      "name": "transferOwnership",
      "outputs": [],
      "stateMutability": "nonpayable",
      "type": "function"
    },
    {
      "inputs": [
        {
          "internalType": "uint256",
          "name": "",
          "type": "uint256"
        }
      ],
      "name": "uri",
      "outputs": [
        {
          "internalType": "string",
          "name": "",
          "type": "string"
        }
      ],
      "stateMutability": "view",
      "type": "function"
    }
  ],
  "bytecode": "0x60806040523480156200001157600080fd5b50604051620039e3380380620039e3833981810160405281019062000037919062000385565b80620000506301ffc9a760e01b6200017e60201b60201c565b62000061816200025660201b60201c565b6200007963d9b67a2660e01b6200017e60201b60201c565b62000091630e89341c60e01b6200017e60201b60201c565b506000620000a46200027260201b60201c565b905080600460006101000a81548173ffffffffffffffffffffffffffffffffffffffff021916908373ffffffffffffffffffffffffffffffffffffffff1602179055508073ffffffffffffffffffffffffffffffffffffffff16600073ffffffffffffffffffffffffffffffffffffffff167f8be0079c531659141344cd1fd0a4f28419497f9722a3daafe3b4186f6b6457e060405160405180910390a35082600590805190602001906200015b9291906200027a565b508160069080519060200190620001749291906200027a565b505050506200052c565b63ffffffff60e01b817bffffffffffffffffffffffffffffffffffffffffffffffffffffffff19161415620001ea576040517f08c379a0000000000000000000000000000000000000000000000000000000008152600401620001e19062000468565b60405180910390fd5b6001600080837bffffffffffffffffffffffffffffffffffffffffffffffffffffffff19167bffffffffffffffffffffffffffffffffffffffffffffffffffffffff1916815260200190815260200160002060006101000a81548160ff02191690831515021790555050565b80600390805190602001906200026e9291906200027a565b5050565b600033905090565b828054600181600116156101000203166002900490600052602060002090601f016020900481019282601f10620002bd57805160ff1916838001178555620002ee565b82800160010185558215620002ee579182015b82811115620002ed578251825591602001919060010190620002d0565b5b509050620002fd919062000301565b5090565b6200032691905b808211156200032257600081600090555060010162000308565b5090565b90565b600082601f8301126200033b57600080fd5b8151620003526200034c82620004b8565b6200048a565b915080825260208301602083018583830111156200036f57600080fd5b6200037c838284620004f6565b50505092915050565b6000806000606084860312156200039b57600080fd5b600084015167ffffffffffffffff811115620003b657600080fd5b620003c48682870162000329565b935050602084015167ffffffffffffffff811115620003e257600080fd5b620003f08682870162000329565b925050604084015167ffffffffffffffff8111156200040e57600080fd5b6200041c8682870162000329565b9150509250925092565b600062000435601c83620004e5565b91507f4552433136353a20696e76616c696420696e74657266616365206964000000006000830152602082019050919050565b60006020820190508181036000830152620004838162000426565b9050919050565b6000604051905081810181811067ffffffffffffffff82111715620004ae57600080fd5b8060405250919050565b600067ffffffffffffffff821115620004d057600080fd5b601f19601f8301169050602081019050919050565b600082825260208201905092915050565b60005b8381101562000516578082015181840152602081019050620004f9565b8381111562000526576000848401525b50505050565b6134a7806200053c6000396000f3fe608060405234801561001057600080fd5b50600436106100ff5760003560e01c80638da5cb5b11610097578063e985e9c511610066578063e985e9c514610298578063f242432a146102c8578063f2fde38b146102e4578063f5298aca14610300576100ff565b80638da5cb5b1461022457806395d89b4114610242578063a22cb46514610260578063cc03c3421461027c576100ff565b80632eb2c2d6116100d35780632eb2c2d6146101b25780634e1273f4146101ce578063715018a6146101fe578063731133e914610208576100ff565b8062fdd58e1461010457806301ffc9a71461013457806306fdde03146101645780630e89341c14610182575b600080fd5b61011e60048036038101906101199190612505565b61031c565b60405161012b91906131a2565b60405180910390f35b61014e6004803603810190610149919061267c565b6103e6565b60405161015b9190612f65565b60405180910390f35b61016c61044d565b6040516101799190612f80565b60405180910390f35b61019c600480360381019061019791906126ce565b6104ef565b6040516101a99190612f80565b60405180910390f35b6101cc60048036038101906101c7919061237b565b610593565b005b6101e860048036038101906101e39190612610565b610957565b6040516101f59190612f0c565b60405180910390f35b610206610b20565b005b610222600480360381019061021d9190612590565b610c78565b005b61022c610d5f565b6040516102399190612e2f565b60405180910390f35b61024a610d89565b6040516102579190612f80565b60405180910390f35b61027a600480360381019061027591906124c9565b610e2b565b005b61029660048036038101906102919190612316565b610fac565b005b6102b260048036038101906102ad919061233f565b611087565b6040516102bf9190612f65565b60405180910390f35b6102e260048036038101906102dd919061243a565b61111b565b005b6102fe60048036038101906102f99190612316565b61145e565b005b61031a60048036038101906103159190612541565b611625565b005b60008073ffffffffffffffffffffffffffffffffffffffff168373ffffffffffffffffffffffffffffffffffffffff16141561038d576040517f08c379a000000000000000000000000000000000000000000000000000000000815260040161038490612fe2565b60405180910390fd5b6001600083815260200190815260200160002060008473ffffffffffffffffffffffffffffffffffffffff1673ffffffffffffffffffffffffffffffffffffffff16815260200190815260200160002054905092915050565b6000806000837bffffffffffffffffffffffffffffffffffffffffffffffffffffffff19167bffffffffffffffffffffffffffffffffffffffffffffffffffffffff1916815260200190815260200160002060009054906101000a900460ff169050919050565b606060058054600181600116156101000203166002900480601f0160208091040260200160405190810160405280929190818152602001828054600181600116156101000203166002900480156104e55780601f106104ba576101008083540402835291602001916104e5565b820191906000526020600020905b8154815290600101906020018083116104c857829003601f168201915b5050505050905090565b606060038054600181600116156101000203166002900480601f0160208091040260200160405190810160405280929190818152602001828054600181600116156101000203166002900480156105875780601f1061055c57610100808354040283529160200191610587565b820191906000526020600020905b81548152906001019060200180831161056a57829003601f168201915b50505050509050919050565b81518351146105d7576040517f08c379a00000000000000000000000000000000000000000000000000000000081526004016105ce90613142565b60405180910390fd5b600073ffffffffffffffffffffffffffffffffffffffff168473ffffffffffffffffffffffffffffffffffffffff161415610647576040517f08c379a000000000000000000000000000000000000000000000000000000000815260040161063e90613082565b60405180910390fd5b61064f6116c5565b73ffffffffffffffffffffffffffffffffffffffff168573ffffffffffffffffffffffffffffffffffffffff16148061069557506106948561068f6116c5565b611087565b5b6106d4576040517f08c379a00000000000000000000000000000000000000000000000000000000081526004016106cb906130a2565b60405180910390fd5b60006106de6116c5565b90506106ee8187878787876116cd565b60008090505b84518110156108c257600085828151811061070b57fe5b60200260200101519050600085838151811061072357fe5b602002602001015190506107aa816040518060600160405280602a8152602001613448602a91396001600086815260200190815260200160002060008d73ffffffffffffffffffffffffffffffffffffffff1673ffffffffffffffffffffffffffffffffffffffff168152602001908152602001600020546116d59092919063ffffffff16565b6001600084815260200190815260200160002060008b73ffffffffffffffffffffffffffffffffffffffff1673ffffffffffffffffffffffffffffffffffffffff16815260200190815260200160002081905550610861816001600085815260200190815260200160002060008b73ffffffffffffffffffffffffffffffffffffffff1673ffffffffffffffffffffffffffffffffffffffff1681526020019081526020016000205461173090919063ffffffff16565b6001600084815260200190815260200160002060008a73ffffffffffffffffffffffffffffffffffffffff1673ffffffffffffffffffffffffffffffffffffffff1681526020019081526020016000208190555050508060010190506106f4565b508473ffffffffffffffffffffffffffffffffffffffff168673ffffffffffffffffffffffffffffffffffffffff168273ffffffffffffffffffffffffffffffffffffffff167f4a39dc06d4c0dbc64b70af90fd698a233a518aa5d07e595d983b8c0526c8f7fb8787604051610939929190612f2e565b60405180910390a461094f818787878787611785565b505050505050565b6060815183511461099d576040517f08c379a000000000000000000000000000000000000000000000000000000000815260040161099490613122565b60405180910390fd5b6060835167ffffffffffffffff811180156109b757600080fd5b506040519080825280602002602001820160405280156109e65781602001602082028036833780820191505090505b50905060008090505b8451811015610b1557600073ffffffffffffffffffffffffffffffffffffffff16858281518110610a1c57fe5b602002602001015173ffffffffffffffffffffffffffffffffffffffff161415610a7b576040517f08c379a0000000000000000000000000000000000000000000000000000000008152600401610a7290613002565b60405180910390fd5b60016000858381518110610a8b57fe5b602002602001015181526020019081526020016000206000868381518110610aaf57fe5b602002602001015173ffffffffffffffffffffffffffffffffffffffff1673ffffffffffffffffffffffffffffffffffffffff16815260200190815260200160002054828281518110610afe57fe5b6020026020010181815250508060010190506109ef565b508091505092915050565b610b286116c5565b73ffffffffffffffffffffffffffffffffffffffff16600460009054906101000a900473ffffffffffffffffffffffffffffffffffffffff1673ffffffffffffffffffffffffffffffffffffffff1614610bb7576040517f08c379a0000000000000000000000000000000000000000000000000000000008152600401610bae906130e2565b60405180910390fd5b600073ffffffffffffffffffffffffffffffffffffffff16600460009054906101000a900473ffffffffffffffffffffffffffffffffffffffff1673ffffffffffffffffffffffffffffffffffffffff167f8be0079c531659141344cd1fd0a4f28419497f9722a3daafe3b4186f6b6457e060405160405180910390a36000600460006101000a81548173ffffffffffffffffffffffffffffffffffffffff021916908373ffffffffffffffffffffffffffffffffffffffff160217905550565b3373ffffffffffffffffffffffffffffffffffffffff16600760009054906101000a900473ffffffffffffffffffffffffffffffffffffffff1673ffffffffffffffffffffffffffffffffffffffff1614610d08576040517f08c379a0000000000000000000000000000000000000000000000000000000008152600401610cff90613182565b60405180910390fd5b610d5885858585858080601f016020809104026020016040519081016040528093929190818152602001838380828437600081840152601f19601f82011690508083019250505050505050611a12565b5050505050565b6000600460009054906101000a900473ffffffffffffffffffffffffffffffffffffffff16905090565b606060068054600181600116156101000203166002900480601f016020809104026020016040519081016040528092919081815260200182805460018160011615610100020316600290048015610e215780601f10610df657610100808354040283529160200191610e21565b820191906000526020600020905b815481529060010190602001808311610e0457829003601f168201915b5050505050905090565b8173ffffffffffffffffffffffffffffffffffffffff16610e4a6116c5565b73ffffffffffffffffffffffffffffffffffffffff161415610ea1576040517f08c379a0000000000000000000000000000000000000000000000000000000008152600401610e9890613102565b60405180910390fd5b8060026000610eae6116c5565b73ffffffffffffffffffffffffffffffffffffffff1673ffffffffffffffffffffffffffffffffffffffff16815260200190815260200160002060008473ffffffffffffffffffffffffffffffffffffffff1673ffffffffffffffffffffffffffffffffffffffff16815260200190815260200160002060006101000a81548160ff0219169083151502179055508173ffffffffffffffffffffffffffffffffffffffff16610f5b6116c5565b73ffffffffffffffffffffffffffffffffffffffff167f17307eab39ab6107e8899845ad3d59bd9653f200f220920489ca2b5937696c3183604051610fa09190612f65565b60405180910390a35050565b610fb46116c5565b73ffffffffffffffffffffffffffffffffffffffff16600460009054906101000a900473ffffffffffffffffffffffffffffffffffffffff1673ffffffffffffffffffffffffffffffffffffffff1614611043576040517f08c379a000000000000000000000000000000000000000000000000000000000815260040161103a906130e2565b60405180910390fd5b80600760006101000a81548173ffffffffffffffffffffffffffffffffffffffff021916908373ffffffffffffffffffffffffffffffffffffffff16021790555050565b6000600260008473ffffffffffffffffffffffffffffffffffffffff1673ffffffffffffffffffffffffffffffffffffffff16815260200190815260200160002060008373ffffffffffffffffffffffffffffffffffffffff1673ffffffffffffffffffffffffffffffffffffffff16815260200190815260200160002060009054906101000a900460ff16905092915050565b600073ffffffffffffffffffffffffffffffffffffffff168473ffffffffffffffffffffffffffffffffffffffff16141561118b576040517f08c379a000000000000000000000000000000000000000000000000000000000815260040161118290613082565b60405180910390fd5b6111936116c5565b73ffffffffffffffffffffffffffffffffffffffff168573ffffffffffffffffffffffffffffffffffffffff1614806111d957506111d8856111d36116c5565b611087565b5b611218576040517f08c379a000000000000000000000000000000000000000000000000000000000815260040161120f90613062565b60405180910390fd5b60006112226116c5565b905061124281878761123388611bf9565b61123c88611bf9565b876116cd565b6112bf836040518060600160405280602a8152602001613448602a91396001600088815260200190815260200160002060008a73ffffffffffffffffffffffffffffffffffffffff1673ffffffffffffffffffffffffffffffffffffffff168152602001908152602001600020546116d59092919063ffffffff16565b6001600086815260200190815260200160002060008873ffffffffffffffffffffffffffffffffffffffff1673ffffffffffffffffffffffffffffffffffffffff16815260200190815260200160002081905550611376836001600087815260200190815260200160002060008873ffffffffffffffffffffffffffffffffffffffff1673ffffffffffffffffffffffffffffffffffffffff1681526020019081526020016000205461173090919063ffffffff16565b6001600086815260200190815260200160002060008773ffffffffffffffffffffffffffffffffffffffff1673ffffffffffffffffffffffffffffffffffffffff168152602001908152602001600020819055508473ffffffffffffffffffffffffffffffffffffffff168673ffffffffffffffffffffffffffffffffffffffff168273ffffffffffffffffffffffffffffffffffffffff167fc3d58168c5ae7397731d063d5bbf3d657854427343f4c083240f7aacaa2d0f6287876040516114409291906131bd565b60405180910390a4611456818787878787611c69565b505050505050565b6114666116c5565b73ffffffffffffffffffffffffffffffffffffffff16600460009054906101000a900473ffffffffffffffffffffffffffffffffffffffff1673ffffffffffffffffffffffffffffffffffffffff16146114f5576040517f08c379a00000000000000000000000000000000000000000000000000000000081526004016114ec906130e2565b60405180910390fd5b600073ffffffffffffffffffffffffffffffffffffffff168173ffffffffffffffffffffffffffffffffffffffff161415611565576040517f08c379a000000000000000000000000000000000000000000000000000000000815260040161155c90613022565b60405180910390fd5b8073ffffffffffffffffffffffffffffffffffffffff16600460009054906101000a900473ffffffffffffffffffffffffffffffffffffffff1673ffffffffffffffffffffffffffffffffffffffff167f8be0079c531659141344cd1fd0a4f28419497f9722a3daafe3b4186f6b6457e060405160405180910390a380600460006101000a81548173ffffffffffffffffffffffffffffffffffffffff021916908373ffffffffffffffffffffffffffffffffffffffff16021790555050565b3373ffffffffffffffffffffffffffffffffffffffff16600760009054906101000a900473ffffffffffffffffffffffffffffffffffffffff1673ffffffffffffffffffffffffffffffffffffffff16146116b5576040517f08c379a00000000000000000000000000000000000000000000000000000000081526004016116ac90613182565b60405180910390fd5b6116c0838383611ef6565b505050565b600033905090565b505050505050565b600083831115829061171d576040517f08c379a00000000000000000000000000000000000000000000000000000000081526004016117149190612f80565b60405180910390fd5b5060008385039050809150509392505050565b60008082840190508381101561177b576040517f08c379a000000000000000000000000000000000000000000000000000000000815260040161177290613042565b60405180910390fd5b8091505092915050565b6117a48473ffffffffffffffffffffffffffffffffffffffff166120f6565b15611a0a578373ffffffffffffffffffffffffffffffffffffffff1663bc197c8187878686866040518663ffffffff1660e01b81526004016117ea959493929190612e4a565b602060405180830381600087803b15801561180457600080fd5b505af192505050801561183557506040513d601f19601f8201168201806040525081019061183291906126a5565b60015b6119815760006040519050600081526001156118fe5760443d101561185d57600090506118fe565b60046000803e60005160e01c6308c379a0811461187e5760009150506118fe565b60043d036004833e81513d602482011167ffffffffffffffff821117156118aa576000925050506118fe565b808301805167ffffffffffffffff8111156118cc5760009450505050506118fe565b8060208301013d86018111156118ea576000955050505050506118fe565b601f19601f82011660405282955050505050505b806119095750611946565b806040517f08c379a000000000000000000000000000000000000000000000000000000000815260040161193d9190612f80565b60405180910390fd5b6040517f08c379a000000000000000000000000000000000000000000000000000000000815260040161197890612fa2565b60405180910390fd5b63bc197c8160e01b7bffffffffffffffffffffffffffffffffffffffffffffffffffffffff1916817bffffffffffffffffffffffffffffffffffffffffffffffffffffffff191614611a08576040517f08c379a00000000000000000000000000000000000000000000000000000000081526004016119ff90612fc2565b60405180910390fd5b505b505050505050565b600073ffffffffffffffffffffffffffffffffffffffff168473ffffffffffffffffffffffffffffffffffffffff161415611a82576040517f08c379a0000000000000000000000000000000000000000000000000000000008152600401611a7990613162565b60405180910390fd5b6000611a8c6116c5565b9050611aad81600087611a9e88611bf9565b611aa788611bf9565b876116cd565b611b10836001600087815260200190815260200160002060008873ffffffffffffffffffffffffffffffffffffffff1673ffffffffffffffffffffffffffffffffffffffff1681526020019081526020016000205461173090919063ffffffff16565b6001600086815260200190815260200160002060008773ffffffffffffffffffffffffffffffffffffffff1673ffffffffffffffffffffffffffffffffffffffff168152602001908152602001600020819055508473ffffffffffffffffffffffffffffffffffffffff16600073ffffffffffffffffffffffffffffffffffffffff168273ffffffffffffffffffffffffffffffffffffffff167fc3d58168c5ae7397731d063d5bbf3d657854427343f4c083240f7aacaa2d0f628787604051611bdb9291906131bd565b60405180910390a4611bf281600087878787611c69565b5050505050565b606080600167ffffffffffffffff81118015611c1457600080fd5b50604051908082528060200260200182016040528015611c435781602001602082028036833780820191505090505b5090508281600081518110611c5457fe5b60200260200101818152505080915050919050565b611c888473ffffffffffffffffffffffffffffffffffffffff166120f6565b15611eee578373ffffffffffffffffffffffffffffffffffffffff1663f23a6e6187878686866040518663ffffffff1660e01b8152600401611cce959493929190612eb2565b602060405180830381600087803b158015611ce857600080fd5b505af1925050508015611d1957506040513d601f19601f82011682018060405250810190611d1691906126a5565b60015b611e65576000604051905060008152600115611de25760443d1015611d415760009050611de2565b60046000803e60005160e01c6308c379a08114611d62576000915050611de2565b60043d036004833e81513d602482011167ffffffffffffffff82111715611d8e57600092505050611de2565b808301805167ffffffffffffffff811115611db0576000945050505050611de2565b8060208301013d8601811115611dce57600095505050505050611de2565b601f19601f82011660405282955050505050505b80611ded5750611e2a565b806040517f08c379a0000000000000000000000000000000000000000000000000000000008152600401611e219190612f80565b60405180910390fd5b6040517f08c379a0000000000000000000000000000000000000000000000000000000008152600401611e5c90612fa2565b60405180910390fd5b63f23a6e6160e01b7bffffffffffffffffffffffffffffffffffffffffffffffffffffffff1916817bffffffffffffffffffffffffffffffffffffffffffffffffffffffff191614611eec576040517f08c379a0000000000000000000000000000000000000000000000000000000008152600401611ee390612fc2565b60405180910390fd5b505b505050505050565b600073ffffffffffffffffffffffffffffffffffffffff168373ffffffffffffffffffffffffffffffffffffffff161415611f66576040517f08c379a0000000000000000000000000000000000000000000000000000000008152600401611f5d906130c2565b60405180910390fd5b6000611f706116c5565b9050611fa081856000611f8287611bf9565b611f8b87611bf9565b604051806020016040528060008152506116cd565b61201d82604051806060016040528060248152602001613424602491396001600087815260200190815260200160002060008873ffffffffffffffffffffffffffffffffffffffff1673ffffffffffffffffffffffffffffffffffffffff168152602001908152602001600020546116d59092919063ffffffff16565b6001600085815260200190815260200160002060008673ffffffffffffffffffffffffffffffffffffffff1673ffffffffffffffffffffffffffffffffffffffff16815260200190815260200160002081905550600073ffffffffffffffffffffffffffffffffffffffff168473ffffffffffffffffffffffffffffffffffffffff168273ffffffffffffffffffffffffffffffffffffffff167fc3d58168c5ae7397731d063d5bbf3d657854427343f4c083240f7aacaa2d0f6286866040516120e89291906131bd565b60405180910390a450505050565b600080823b905060008111915050919050565b600081359050612118816133c7565b92915050565b600082601f83011261212f57600080fd5b813561214261213d82613213565b6131e6565b9150818183526020840193506020810190508385602084028201111561216757600080fd5b60005b83811015612197578161217d8882612109565b84526020840193506020830192505060018101905061216a565b5050505092915050565b600082601f8301126121b257600080fd5b81356121c56121c08261323b565b6131e6565b915081818352602084019350602081019050838560208402820111156121ea57600080fd5b60005b8381101561221a57816122008882612301565b8452602084019350602083019250506001810190506121ed565b5050505092915050565b600081359050612233816133de565b92915050565b600081359050612248816133f5565b92915050565b60008151905061225d816133f5565b92915050565b60008083601f84011261227557600080fd5b8235905067ffffffffffffffff81111561228e57600080fd5b6020830191508360018202830111156122a657600080fd5b9250929050565b600082601f8301126122be57600080fd5b81356122d16122cc82613263565b6131e6565b915080825260208301602083018583830111156122ed57600080fd5b6122f8838284613374565b50505092915050565b6000813590506123108161340c565b92915050565b60006020828403121561232857600080fd5b600061233684828501612109565b91505092915050565b6000806040838503121561235257600080fd5b600061236085828601612109565b925050602061237185828601612109565b9150509250929050565b600080600080600060a0868803121561239357600080fd5b60006123a188828901612109565b95505060206123b288828901612109565b945050604086013567ffffffffffffffff8111156123cf57600080fd5b6123db888289016121a1565b935050606086013567ffffffffffffffff8111156123f857600080fd5b612404888289016121a1565b925050608086013567ffffffffffffffff81111561242157600080fd5b61242d888289016122ad565b9150509295509295909350565b600080600080600060a0868803121561245257600080fd5b600061246088828901612109565b955050602061247188828901612109565b945050604061248288828901612301565b935050606061249388828901612301565b925050608086013567ffffffffffffffff8111156124b057600080fd5b6124bc888289016122ad565b9150509295509295909350565b600080604083850312156124dc57600080fd5b60006124ea85828601612109565b92505060206124fb85828601612224565b9150509250929050565b6000806040838503121561251857600080fd5b600061252685828601612109565b925050602061253785828601612301565b9150509250929050565b60008060006060848603121561255657600080fd5b600061256486828701612109565b935050602061257586828701612301565b925050604061258686828701612301565b9150509250925092565b6000806000806000608086880312156125a857600080fd5b60006125b688828901612109565b95505060206125c788828901612301565b94505060406125d888828901612301565b935050606086013567ffffffffffffffff8111156125f557600080fd5b61260188828901612263565b92509250509295509295909350565b6000806040838503121561262357600080fd5b600083013567ffffffffffffffff81111561263d57600080fd5b6126498582860161211e565b925050602083013567ffffffffffffffff81111561266657600080fd5b612672858286016121a1565b9150509250929050565b60006020828403121561268e57600080fd5b600061269c84828501612239565b91505092915050565b6000602082840312156126b757600080fd5b60006126c58482850161224e565b91505092915050565b6000602082840312156126e057600080fd5b60006126ee84828501612301565b91505092915050565b60006127038383612e11565b60208301905092915050565b61271881613300565b82525050565b60006127298261329f565b61273381856132cd565b935061273e8361328f565b8060005b8381101561276f57815161275688826126f7565b9750612761836132c0565b925050600181019050612742565b5085935050505092915050565b61278581613312565b82525050565b6000612796826132aa565b6127a081856132de565b93506127b0818560208601613383565b6127b9816133b6565b840191505092915050565b60006127cf826132b5565b6127d981856132ef565b93506127e9818560208601613383565b6127f2816133b6565b840191505092915050565b600061280a6034836132ef565b91507f455243313135353a207472616e7366657220746f206e6f6e204552433131353560008301527f526563656976657220696d706c656d656e7465720000000000000000000000006020830152604082019050919050565b60006128706028836132ef565b91507f455243313135353a204552433131353552656365697665722072656a6563746560008301527f6420746f6b656e730000000000000000000000000000000000000000000000006020830152604082019050919050565b60006128d6602b836132ef565b91507f455243313135353a2062616c616e636520717565727920666f7220746865207a60008301527f65726f20616464726573730000000000000000000000000000000000000000006020830152604082019050919050565b600061293c6031836132ef565b91507f455243313135353a2062617463682062616c616e636520717565727920666f7260008301527f20746865207a65726f20616464726573730000000000000000000000000000006020830152604082019050919050565b60006129a26026836132ef565b91507f4f776e61626c653a206e6577206f776e657220697320746865207a65726f206160008301527f64647265737300000000000000000000000000000000000000000000000000006020830152604082019050919050565b6000612a08601b836132ef565b91507f536166654d6174683a206164646974696f6e206f766572666c6f7700000000006000830152602082019050919050565b6000612a486029836132ef565b91507f455243313135353a2063616c6c6572206973206e6f74206f776e6572206e6f7260008301527f20617070726f76656400000000000000000000000000000000000000000000006020830152604082019050919050565b6000612aae6025836132ef565b91507f455243313135353a207472616e7366657220746f20746865207a65726f20616460008301527f64726573730000000000000000000000000000000000000000000000000000006020830152604082019050919050565b6000612b146032836132ef565b91507f455243313135353a207472616e736665722063616c6c6572206973206e6f742060008301527f6f776e6572206e6f7220617070726f76656400000000000000000000000000006020830152604082019050919050565b6000612b7a6023836132ef565b91507f455243313135353a206275726e2066726f6d20746865207a65726f206164647260008301527f65737300000000000000000000000000000000000000000000000000000000006020830152604082019050919050565b6000612be06020836132ef565b91507f4f776e61626c653a2063616c6c6572206973206e6f7420746865206f776e65726000830152602082019050919050565b6000612c206029836132ef565b91507f455243313135353a2073657474696e6720617070726f76616c2073746174757360008301527f20666f722073656c6600000000000000000000000000000000000000000000006020830152604082019050919050565b6000612c866029836132ef565b91507f455243313135353a206163636f756e747320616e6420696473206c656e67746860008301527f206d69736d6174636800000000000000000000000000000000000000000000006020830152604082019050919050565b6000612cec6028836132ef565b91507f455243313135353a2069647320616e6420616d6f756e7473206c656e6774682060008301527f6d69736d617463680000000000000000000000000000000000000000000000006020830152604082019050919050565b6000612d526021836132ef565b91507f455243313135353a206d696e7420746f20746865207a65726f2061646472657360008301527f73000000000000000000000000000000000000000000000000000000000000006020830152604082019050919050565b6000612db86026836132ef565b91507f6f6e6c7920706c6174666f726d20636f6e74726163742063616e20646f20746860008301527f65207461736b00000000000000000000000000000000000000000000000000006020830152604082019050919050565b612e1a8161336a565b82525050565b612e298161336a565b82525050565b6000602082019050612e44600083018461270f565b92915050565b600060a082019050612e5f600083018861270f565b612e6c602083018761270f565b8181036040830152612e7e818661271e565b90508181036060830152612e92818561271e565b90508181036080830152612ea6818461278b565b90509695505050505050565b600060a082019050612ec7600083018861270f565b612ed4602083018761270f565b612ee16040830186612e20565b612eee6060830185612e20565b8181036080830152612f00818461278b565b90509695505050505050565b60006020820190508181036000830152612f26818461271e565b905092915050565b60006040820190508181036000830152612f48818561271e565b90508181036020830152612f5c818461271e565b90509392505050565b6000602082019050612f7a600083018461277c565b92915050565b60006020820190508181036000830152612f9a81846127c4565b905092915050565b60006020820190508181036000830152612fbb816127fd565b9050919050565b60006020820190508181036000830152612fdb81612863565b9050919050565b60006020820190508181036000830152612ffb816128c9565b9050919050565b6000602082019050818103600083015261301b8161292f565b9050919050565b6000602082019050818103600083015261303b81612995565b9050919050565b6000602082019050818103600083015261305b816129fb565b9050919050565b6000602082019050818103600083015261307b81612a3b565b9050919050565b6000602082019050818103600083015261309b81612aa1565b9050919050565b600060208201905081810360008301526130bb81612b07565b9050919050565b600060208201905081810360008301526130db81612b6d565b9050919050565b600060208201905081810360008301526130fb81612bd3565b9050919050565b6000602082019050818103600083015261311b81612c13565b9050919050565b6000602082019050818103600083015261313b81612c79565b9050919050565b6000602082019050818103600083015261315b81612cdf565b9050919050565b6000602082019050818103600083015261317b81612d45565b9050919050565b6000602082019050818103600083015261319b81612dab565b9050919050565b60006020820190506131b76000830184612e20565b92915050565b60006040820190506131d26000830185612e20565b6131df6020830184612e20565b9392505050565b6000604051905081810181811067ffffffffffffffff8211171561320957600080fd5b8060405250919050565b600067ffffffffffffffff82111561322a57600080fd5b602082029050602081019050919050565b600067ffffffffffffffff82111561325257600080fd5b602082029050602081019050919050565b600067ffffffffffffffff82111561327a57600080fd5b601f19601f8301169050602081019050919050565b6000819050602082019050919050565b600081519050919050565b600081519050919050565b600081519050919050565b6000602082019050919050565b600082825260208201905092915050565b600082825260208201905092915050565b600082825260208201905092915050565b600061330b8261334a565b9050919050565b60008115159050919050565b60007fffffffff0000000000000000000000000000000000000000000000000000000082169050919050565b600073ffffffffffffffffffffffffffffffffffffffff82169050919050565b6000819050919050565b82818337600083830152505050565b60005b838110156133a1578082015181840152602081019050613386565b838111156133b0576000848401525b50505050565b6000601f19601f8301169050919050565b6133d081613300565b81146133db57600080fd5b50565b6133e781613312565b81146133f257600080fd5b50565b6133fe8161331e565b811461340957600080fd5b50565b6134158161336a565b811461342057600080fd5b5056fe455243313135353a206275726e20616d6f756e7420657863656564732062616c616e6365455243313135353a20696e73756666696369656e742062616c616e636520666f72207472616e73666572a2646970667358221220ae4d7c48c9009d90e310ac1fd7d7078b18247b08647bf26150231284f60eea5364736f6c63430006060033",
  "linkReferences": {},
  "deployedLinkReferences": {}
}