{
  "_format": "hh-sol-artifact-1",
  "contractName": "DBook1155",
  "sourceName": "contracts/DBook1155.sol",
  "abi": [
    {
      "inputs": [
        {
          "internalType": "string",
          "name": "name",
          "type": "string"
        },
        {
          "internalType": "string",
          "name": "symbol",
          "type": "string"
        },
        {
          "internalType": "string",
          "name": "uri",
          "type": "string"
        }
      ],
      "stateMutability": "nonpayable",
      "type": "constructor"
    },
    {
      "anonymous": false,
      "inputs": [
        {
          "indexed": true,
          "internalType": "address",
          "name": "account",
          "type": "address"
        },
        {
          "indexed": true,
          "internalType": "address",
          "name": "operator",
          "type": "address"
        },
        {
          "indexed": false,
          "internalType": "bool",
          "name": "approved",
          "type": "bool"
        }
      ],
      "name": "ApprovalForAll",
      "type": "event"
    },
    {
      "anonymous": false,
      "inputs": [
        {
          "indexed": true,
          "internalType": "address",
          "name": "previousOwner",
          "type": "address"
        },
        {
          "indexed": true,
          "internalType": "address",
          "name": "newOwner",
          "type": "address"
        }
      ],
      "name": "OwnershipTransferred",
      "type": "event"
    },
    {
      "anonymous": false,
      "inputs": [
        {
          "indexed": true,
          "internalType": "address",
          "name": "operator",
          "type": "address"
        },
        {
          "indexed": true,
          "internalType": "address",
          "name": "from",
          "type": "address"
        },
        {
          "indexed": true,
          "internalType": "address",
          "name": "to",
          "type": "address"
        },
        {
          "indexed": false,
          "internalType": "uint256[]",
          "name": "ids",
          "type": "uint256[]"
        },
        {
          "indexed": false,
          "internalType": "uint256[]",
          "name": "values",
          "type": "uint256[]"
        }
      ],
      "name": "TransferBatch",
      "type": "event"
    },
    {
      "anonymous": false,
      "inputs": [
        {
          "indexed": true,
          "internalType": "address",
          "name": "operator",
          "type": "address"
        },
        {
          "indexed": true,
          "internalType": "address",
          "name": "from",
          "type": "address"
        },
        {
          "indexed": true,
          "internalType": "address",
          "name": "to",
          "type": "address"
        },
        {
          "indexed": false,
          "internalType": "uint256",
          "name": "id",
          "type": "uint256"
        },
        {
          "indexed": false,
          "internalType": "uint256",
          "name": "value",
          "type": "uint256"
        }
      ],
      "name": "TransferSingle",
      "type": "event"
    },
    {
      "anonymous": false,
      "inputs": [
        {
          "indexed": false,
          "internalType": "string",
          "name": "value",
          "type": "string"
        },
        {
          "indexed": true,
          "internalType": "uint256",
          "name": "id",
          "type": "uint256"
        }
      ],
      "name": "URI",
      "type": "event"
    },
    {
      "inputs": [
        {
          "internalType": "address",
          "name": "account",
          "type": "address"
        },
        {
          "internalType": "uint256",
          "name": "id",
          "type": "uint256"
        }
      ],
      "name": "balanceOf",
      "outputs": [
        {
          "internalType": "uint256",
          "name": "",
          "type": "uint256"
        }
      ],
      "stateMutability": "view",
      "type": "function"
    },
    {
      "inputs": [
        {
          "internalType": "address[]",
          "name": "accounts",
          "type": "address[]"
        },
        {
          "internalType": "uint256[]",
          "name": "ids",
          "type": "uint256[]"
        }
      ],
      "name": "balanceOfBatch",
      "outputs": [
        {
          "internalType": "uint256[]",
          "name": "",
          "type": "uint256[]"
        }
      ],
      "stateMutability": "view",
      "type": "function"
    },
    {
      "inputs": [
        {
          "internalType": "address",
          "name": "account",
          "type": "address"
        },
        {
          "internalType": "address",
          "name": "operator",
          "type": "address"
        }
      ],
      "name": "isApprovedForAll",
      "outputs": [
        {
          "internalType": "bool",
          "name": "",
          "type": "bool"
        }
      ],
      "stateMutability": "view",
      "type": "function"
    },
    {
      "inputs": [
        {
          "internalType": "address",
          "name": "to",
          "type": "address"
        },
        {
          "internalType": "uint256",
          "name": "tokenId",
          "type": "uint256"
        },
        {
          "internalType": "uint256",
          "name": "amount",
          "type": "uint256"
        },
        {
          "internalType": "bytes",
          "name": "data",
          "type": "bytes"
        }
      ],
      "name": "mint",
      "outputs": [],
      "stateMutability": "nonpayable",
      "type": "function"
    },
    {
      "inputs": [],
      "name": "name",
      "outputs": [
        {
          "internalType": "string",
          "name": "",
          "type": "string"
        }
      ],
      "stateMutability": "view",
      "type": "function"
    },
    {
      "inputs": [],
      "name": "owner",
      "outputs": [
        {
          "internalType": "address",
          "name": "",
          "type": "address"
        }
      ],
      "stateMutability": "view",
      "type": "function"
    },
    {
      "inputs": [],
      "name": "renounceOwnership",
      "outputs": [],
      "stateMutability": "nonpayable",
      "type": "function"
    },
    {
      "inputs": [
        {
          "internalType": "address",
          "name": "from",
          "type": "address"
        },
        {
          "internalType": "address",
          "name": "to",
          "type": "address"
        },
        {
          "internalType": "uint256[]",
          "name": "ids",
          "type": "uint256[]"
        },
        {
          "internalType": "uint256[]",
          "name": "amounts",
          "type": "uint256[]"
        },
        {
          "internalType": "bytes",
          "name": "data",
          "type": "bytes"
        }
      ],
      "name": "safeBatchTransferFrom",
      "outputs": [],
      "stateMutability": "nonpayable",
      "type": "function"
    },
    {
      "inputs": [
        {
          "internalType": "address",
          "name": "from",
          "type": "address"
        },
        {
          "internalType": "address",
          "name": "to",
          "type": "address"
        },
        {
          "internalType": "uint256",
          "name": "id",
          "type": "uint256"
        },
        {
          "internalType": "uint256",
          "name": "amount",
          "type": "uint256"
        },
        {
          "internalType": "bytes",
          "name": "data",
          "type": "bytes"
        }
      ],
      "name": "safeTransferFrom",
      "outputs": [],
      "stateMutability": "nonpayable",
      "type": "function"
    },
    {
      "inputs": [
        {
          "internalType": "address",
          "name": "operator",
          "type": "address"
        },
        {
          "internalType": "bool",
          "name": "approved",
          "type": "bool"
        }
      ],
      "name": "setApprovalForAll",
      "outputs": [],
      "stateMutability": "nonpayable",
      "type": "function"
    },
    {
      "inputs": [
        {
          "internalType": "address",
          "name": "platformAddress",
          "type": "address"
        }
      ],
      "name": "setPlatformAddress",
      "outputs": [],
      "stateMutability": "nonpayable",
      "type": "function"
    },
    {
      "inputs": [
        {
          "internalType": "bytes4",
          "name": "interfaceId",
          "type": "bytes4"
        }
      ],
      "name": "supportsInterface",
      "outputs": [
        {
          "internalType": "bool",
          "name": "",
          "type": "bool"
        }
      ],
      "stateMutability": "view",
      "type": "function"
    },
    {
      "inputs": [],
      "name": "symbol",
      "outputs": [
        {
          "internalType": "string",
          "name": "",
          "type": "string"
        }
      ],
      "stateMutability": "view",
      "type": "function"
    },
    {
      "inputs": [
        {
          "internalType": "address",
          "name": "newOwner",
          "type": "address"
        }
      ],
      "name": "transferOwnership",
      "outputs": [],
      "stateMutability": "nonpayable",
      "type": "function"
    },
    {
      "inputs": [
        {
          "internalType": "uint256",
          "name": "",
          "type": "uint256"
        }
      ],
      "name": "uri",
      "outputs": [
        {
          "internalType": "string",
          "name": "",
          "type": "string"
        }
      ],
      "stateMutability": "view",
      "type": "function"
    }
  ],
  "bytecode": "0x60806040523480156200001157600080fd5b506040516200362338038062003623833981810160405281019062000037919062000385565b80620000506301ffc9a760e01b6200017e60201b60201c565b62000061816200025660201b60201c565b6200007963d9b67a2660e01b6200017e60201b60201c565b62000091630e89341c60e01b6200017e60201b60201c565b506000620000a46200027260201b60201c565b905080600460006101000a81548173ffffffffffffffffffffffffffffffffffffffff021916908373ffffffffffffffffffffffffffffffffffffffff1602179055508073ffffffffffffffffffffffffffffffffffffffff16600073ffffffffffffffffffffffffffffffffffffffff167f8be0079c531659141344cd1fd0a4f28419497f9722a3daafe3b4186f6b6457e060405160405180910390a35082600590805190602001906200015b9291906200027a565b508160069080519060200190620001749291906200027a565b505050506200052c565b63ffffffff60e01b817bffffffffffffffffffffffffffffffffffffffffffffffffffffffff19161415620001ea576040517f08c379a0000000000000000000000000000000000000000000000000000000008152600401620001e19062000468565b60405180910390fd5b6001600080837bffffffffffffffffffffffffffffffffffffffffffffffffffffffff19167bffffffffffffffffffffffffffffffffffffffffffffffffffffffff1916815260200190815260200160002060006101000a81548160ff02191690831515021790555050565b80600390805190602001906200026e9291906200027a565b5050565b600033905090565b828054600181600116156101000203166002900490600052602060002090601f016020900481019282601f10620002bd57805160ff1916838001178555620002ee565b82800160010185558215620002ee579182015b82811115620002ed578251825591602001919060010190620002d0565b5b509050620002fd919062000301565b5090565b6200032691905b808211156200032257600081600090555060010162000308565b5090565b90565b600082601f8301126200033b57600080fd5b8151620003526200034c82620004b8565b6200048a565b915080825260208301602083018583830111156200036f57600080fd5b6200037c838284620004f6565b50505092915050565b6000806000606084860312156200039b57600080fd5b600084015167ffffffffffffffff811115620003b657600080fd5b620003c48682870162000329565b935050602084015167ffffffffffffffff811115620003e257600080fd5b620003f08682870162000329565b925050604084015167ffffffffffffffff8111156200040e57600080fd5b6200041c8682870162000329565b9150509250925092565b600062000435601c83620004e5565b91507f4552433136353a20696e76616c696420696e74657266616365206964000000006000830152602082019050919050565b60006020820190508181036000830152620004838162000426565b9050919050565b6000604051905081810181811067ffffffffffffffff82111715620004ae57600080fd5b8060405250919050565b600067ffffffffffffffff821115620004d057600080fd5b601f19601f8301169050602081019050919050565b600082825260208201905092915050565b60005b8381101562000516578082015181840152602081019050620004f9565b8381111562000526576000848401525b50505050565b6130e7806200053c6000396000f3fe608060405234801561001057600080fd5b50600436106100f45760003560e01c8063731133e911610097578063cc03c34211610066578063cc03c34214610271578063e985e9c51461028d578063f242432a146102bd578063f2fde38b146102d9576100f4565b8063731133e9146101fd5780638da5cb5b1461021957806395d89b4114610237578063a22cb46514610255576100f4565b80630e89341c116100d35780630e89341c146101775780632eb2c2d6146101a75780634e1273f4146101c3578063715018a6146101f3576100f4565b8062fdd58e146100f957806301ffc9a71461012957806306fdde0314610159575b600080fd5b610113600480360381019061010e919061223e565b6102f5565b6040516101209190612e06565b60405180910390f35b610143600480360381019061013e9190612366565b6103bf565b6040516101509190612be9565b60405180910390f35b610161610426565b60405161016e9190612c04565b60405180910390f35b610191600480360381019061018c91906123b8565b6104c8565b60405161019e9190612c04565b60405180910390f35b6101c160048036038101906101bc91906120b4565b61056c565b005b6101dd60048036038101906101d891906122fa565b610930565b6040516101ea9190612b90565b60405180910390f35b6101fb610af9565b005b6102176004803603810190610212919061227a565b610c51565b005b610221610d38565b60405161022e9190612ab3565b60405180910390f35b61023f610d62565b60405161024c9190612c04565b60405180910390f35b61026f600480360381019061026a9190612202565b610e04565b005b61028b6004803603810190610286919061204f565b610f85565b005b6102a760048036038101906102a29190612078565b611060565b6040516102b49190612be9565b60405180910390f35b6102d760048036038101906102d29190612173565b6110f4565b005b6102f360048036038101906102ee919061204f565b611437565b005b60008073ffffffffffffffffffffffffffffffffffffffff168373ffffffffffffffffffffffffffffffffffffffff161415610366576040517f08c379a000000000000000000000000000000000000000000000000000000000815260040161035d90612c66565b60405180910390fd5b6001600083815260200190815260200160002060008473ffffffffffffffffffffffffffffffffffffffff1673ffffffffffffffffffffffffffffffffffffffff16815260200190815260200160002054905092915050565b6000806000837bffffffffffffffffffffffffffffffffffffffffffffffffffffffff19167bffffffffffffffffffffffffffffffffffffffffffffffffffffffff1916815260200190815260200160002060009054906101000a900460ff169050919050565b606060058054600181600116156101000203166002900480601f0160208091040260200160405190810160405280929190818152602001828054600181600116156101000203166002900480156104be5780601f10610493576101008083540402835291602001916104be565b820191906000526020600020905b8154815290600101906020018083116104a157829003601f168201915b5050505050905090565b606060038054600181600116156101000203166002900480601f0160208091040260200160405190810160405280929190818152602001828054600181600116156101000203166002900480156105605780601f1061053557610100808354040283529160200191610560565b820191906000526020600020905b81548152906001019060200180831161054357829003601f168201915b50505050509050919050565b81518351146105b0576040517f08c379a00000000000000000000000000000000000000000000000000000000081526004016105a790612da6565b60405180910390fd5b600073ffffffffffffffffffffffffffffffffffffffff168473ffffffffffffffffffffffffffffffffffffffff161415610620576040517f08c379a000000000000000000000000000000000000000000000000000000000815260040161061790612d06565b60405180910390fd5b6106286115fe565b73ffffffffffffffffffffffffffffffffffffffff168573ffffffffffffffffffffffffffffffffffffffff16148061066e575061066d856106686115fe565b611060565b5b6106ad576040517f08c379a00000000000000000000000000000000000000000000000000000000081526004016106a490612d26565b60405180910390fd5b60006106b76115fe565b90506106c7818787878787611606565b60008090505b845181101561089b5760008582815181106106e457fe5b6020026020010151905060008583815181106106fc57fe5b60200260200101519050610783816040518060600160405280602a8152602001613088602a91396001600086815260200190815260200160002060008d73ffffffffffffffffffffffffffffffffffffffff1673ffffffffffffffffffffffffffffffffffffffff1681526020019081526020016000205461160e9092919063ffffffff16565b6001600084815260200190815260200160002060008b73ffffffffffffffffffffffffffffffffffffffff1673ffffffffffffffffffffffffffffffffffffffff1681526020019081526020016000208190555061083a816001600085815260200190815260200160002060008b73ffffffffffffffffffffffffffffffffffffffff1673ffffffffffffffffffffffffffffffffffffffff1681526020019081526020016000205461166990919063ffffffff16565b6001600084815260200190815260200160002060008a73ffffffffffffffffffffffffffffffffffffffff1673ffffffffffffffffffffffffffffffffffffffff1681526020019081526020016000208190555050508060010190506106cd565b508473ffffffffffffffffffffffffffffffffffffffff168673ffffffffffffffffffffffffffffffffffffffff168273ffffffffffffffffffffffffffffffffffffffff167f4a39dc06d4c0dbc64b70af90fd698a233a518aa5d07e595d983b8c0526c8f7fb8787604051610912929190612bb2565b60405180910390a46109288187878787876116be565b505050505050565b60608151835114610976576040517f08c379a000000000000000000000000000000000000000000000000000000000815260040161096d90612d86565b60405180910390fd5b6060835167ffffffffffffffff8111801561099057600080fd5b506040519080825280602002602001820160405280156109bf5781602001602082028036833780820191505090505b50905060008090505b8451811015610aee57600073ffffffffffffffffffffffffffffffffffffffff168582815181106109f557fe5b602002602001015173ffffffffffffffffffffffffffffffffffffffff161415610a54576040517f08c379a0000000000000000000000000000000000000000000000000000000008152600401610a4b90612c86565b60405180910390fd5b60016000858381518110610a6457fe5b602002602001015181526020019081526020016000206000868381518110610a8857fe5b602002602001015173ffffffffffffffffffffffffffffffffffffffff1673ffffffffffffffffffffffffffffffffffffffff16815260200190815260200160002054828281518110610ad757fe5b6020026020010181815250508060010190506109c8565b508091505092915050565b610b016115fe565b73ffffffffffffffffffffffffffffffffffffffff16600460009054906101000a900473ffffffffffffffffffffffffffffffffffffffff1673ffffffffffffffffffffffffffffffffffffffff1614610b90576040517f08c379a0000000000000000000000000000000000000000000000000000000008152600401610b8790612d46565b60405180910390fd5b600073ffffffffffffffffffffffffffffffffffffffff16600460009054906101000a900473ffffffffffffffffffffffffffffffffffffffff1673ffffffffffffffffffffffffffffffffffffffff167f8be0079c531659141344cd1fd0a4f28419497f9722a3daafe3b4186f6b6457e060405160405180910390a36000600460006101000a81548173ffffffffffffffffffffffffffffffffffffffff021916908373ffffffffffffffffffffffffffffffffffffffff160217905550565b3373ffffffffffffffffffffffffffffffffffffffff16600760009054906101000a900473ffffffffffffffffffffffffffffffffffffffff1673ffffffffffffffffffffffffffffffffffffffff1614610ce1576040517f08c379a0000000000000000000000000000000000000000000000000000000008152600401610cd890612de6565b60405180910390fd5b610d3185858585858080601f016020809104026020016040519081016040528093929190818152602001838380828437600081840152601f19601f8201169050808301925050505050505061194b565b5050505050565b6000600460009054906101000a900473ffffffffffffffffffffffffffffffffffffffff16905090565b606060068054600181600116156101000203166002900480601f016020809104026020016040519081016040528092919081815260200182805460018160011615610100020316600290048015610dfa5780601f10610dcf57610100808354040283529160200191610dfa565b820191906000526020600020905b815481529060010190602001808311610ddd57829003601f168201915b5050505050905090565b8173ffffffffffffffffffffffffffffffffffffffff16610e236115fe565b73ffffffffffffffffffffffffffffffffffffffff161415610e7a576040517f08c379a0000000000000000000000000000000000000000000000000000000008152600401610e7190612d66565b60405180910390fd5b8060026000610e876115fe565b73ffffffffffffffffffffffffffffffffffffffff1673ffffffffffffffffffffffffffffffffffffffff16815260200190815260200160002060008473ffffffffffffffffffffffffffffffffffffffff1673ffffffffffffffffffffffffffffffffffffffff16815260200190815260200160002060006101000a81548160ff0219169083151502179055508173ffffffffffffffffffffffffffffffffffffffff16610f346115fe565b73ffffffffffffffffffffffffffffffffffffffff167f17307eab39ab6107e8899845ad3d59bd9653f200f220920489ca2b5937696c3183604051610f799190612be9565b60405180910390a35050565b610f8d6115fe565b73ffffffffffffffffffffffffffffffffffffffff16600460009054906101000a900473ffffffffffffffffffffffffffffffffffffffff1673ffffffffffffffffffffffffffffffffffffffff161461101c576040517f08c379a000000000000000000000000000000000000000000000000000000000815260040161101390612d46565b60405180910390fd5b80600760006101000a81548173ffffffffffffffffffffffffffffffffffffffff021916908373ffffffffffffffffffffffffffffffffffffffff16021790555050565b6000600260008473ffffffffffffffffffffffffffffffffffffffff1673ffffffffffffffffffffffffffffffffffffffff16815260200190815260200160002060008373ffffffffffffffffffffffffffffffffffffffff1673ffffffffffffffffffffffffffffffffffffffff16815260200190815260200160002060009054906101000a900460ff16905092915050565b600073ffffffffffffffffffffffffffffffffffffffff168473ffffffffffffffffffffffffffffffffffffffff161415611164576040517f08c379a000000000000000000000000000000000000000000000000000000000815260040161115b90612d06565b60405180910390fd5b61116c6115fe565b73ffffffffffffffffffffffffffffffffffffffff168573ffffffffffffffffffffffffffffffffffffffff1614806111b257506111b1856111ac6115fe565b611060565b5b6111f1576040517f08c379a00000000000000000000000000000000000000000000000000000000081526004016111e890612ce6565b60405180910390fd5b60006111fb6115fe565b905061121b81878761120c88611b32565b61121588611b32565b87611606565b611298836040518060600160405280602a8152602001613088602a91396001600088815260200190815260200160002060008a73ffffffffffffffffffffffffffffffffffffffff1673ffffffffffffffffffffffffffffffffffffffff1681526020019081526020016000205461160e9092919063ffffffff16565b6001600086815260200190815260200160002060008873ffffffffffffffffffffffffffffffffffffffff1673ffffffffffffffffffffffffffffffffffffffff1681526020019081526020016000208190555061134f836001600087815260200190815260200160002060008873ffffffffffffffffffffffffffffffffffffffff1673ffffffffffffffffffffffffffffffffffffffff1681526020019081526020016000205461166990919063ffffffff16565b6001600086815260200190815260200160002060008773ffffffffffffffffffffffffffffffffffffffff1673ffffffffffffffffffffffffffffffffffffffff168152602001908152602001600020819055508473ffffffffffffffffffffffffffffffffffffffff168673ffffffffffffffffffffffffffffffffffffffff168273ffffffffffffffffffffffffffffffffffffffff167fc3d58168c5ae7397731d063d5bbf3d657854427343f4c083240f7aacaa2d0f628787604051611419929190612e21565b60405180910390a461142f818787878787611ba2565b505050505050565b61143f6115fe565b73ffffffffffffffffffffffffffffffffffffffff16600460009054906101000a900473ffffffffffffffffffffffffffffffffffffffff1673ffffffffffffffffffffffffffffffffffffffff16146114ce576040517f08c379a00000000000000000000000000000000000000000000000000000000081526004016114c590612d46565b60405180910390fd5b600073ffffffffffffffffffffffffffffffffffffffff168173ffffffffffffffffffffffffffffffffffffffff16141561153e576040517f08c379a000000000000000000000000000000000000000000000000000000000815260040161153590612ca6565b60405180910390fd5b8073ffffffffffffffffffffffffffffffffffffffff16600460009054906101000a900473ffffffffffffffffffffffffffffffffffffffff1673ffffffffffffffffffffffffffffffffffffffff167f8be0079c531659141344cd1fd0a4f28419497f9722a3daafe3b4186f6b6457e060405160405180910390a380600460006101000a81548173ffffffffffffffffffffffffffffffffffffffff021916908373ffffffffffffffffffffffffffffffffffffffff16021790555050565b600033905090565b505050505050565b6000838311158290611656576040517f08c379a000000000000000000000000000000000000000000000000000000000815260040161164d9190612c04565b60405180910390fd5b5060008385039050809150509392505050565b6000808284019050838110156116b4576040517f08c379a00000000000000000000000000000000000000000000000000000000081526004016116ab90612cc6565b60405180910390fd5b8091505092915050565b6116dd8473ffffffffffffffffffffffffffffffffffffffff16611e2f565b15611943578373ffffffffffffffffffffffffffffffffffffffff1663bc197c8187878686866040518663ffffffff1660e01b8152600401611723959493929190612ace565b602060405180830381600087803b15801561173d57600080fd5b505af192505050801561176e57506040513d601f19601f8201168201806040525081019061176b919061238f565b60015b6118ba5760006040519050600081526001156118375760443d10156117965760009050611837565b60046000803e60005160e01c6308c379a081146117b7576000915050611837565b60043d036004833e81513d602482011167ffffffffffffffff821117156117e357600092505050611837565b808301805167ffffffffffffffff811115611805576000945050505050611837565b8060208301013d860181111561182357600095505050505050611837565b601f19601f82011660405282955050505050505b80611842575061187f565b806040517f08c379a00000000000000000000000000000000000000000000000000000000081526004016118769190612c04565b60405180910390fd5b6040517f08c379a00000000000000000000000000000000000000000000000000000000081526004016118b190612c26565b60405180910390fd5b63bc197c8160e01b7bffffffffffffffffffffffffffffffffffffffffffffffffffffffff1916817bffffffffffffffffffffffffffffffffffffffffffffffffffffffff191614611941576040517f08c379a000000000000000000000000000000000000000000000000000000000815260040161193890612c46565b60405180910390fd5b505b505050505050565b600073ffffffffffffffffffffffffffffffffffffffff168473ffffffffffffffffffffffffffffffffffffffff1614156119bb576040517f08c379a00000000000000000000000000000000000000000000000000000000081526004016119b290612dc6565b60405180910390fd5b60006119c56115fe565b90506119e6816000876119d788611b32565b6119e088611b32565b87611606565b611a49836001600087815260200190815260200160002060008873ffffffffffffffffffffffffffffffffffffffff1673ffffffffffffffffffffffffffffffffffffffff1681526020019081526020016000205461166990919063ffffffff16565b6001600086815260200190815260200160002060008773ffffffffffffffffffffffffffffffffffffffff1673ffffffffffffffffffffffffffffffffffffffff168152602001908152602001600020819055508473ffffffffffffffffffffffffffffffffffffffff16600073ffffffffffffffffffffffffffffffffffffffff168273ffffffffffffffffffffffffffffffffffffffff167fc3d58168c5ae7397731d063d5bbf3d657854427343f4c083240f7aacaa2d0f628787604051611b14929190612e21565b60405180910390a4611b2b81600087878787611ba2565b5050505050565b606080600167ffffffffffffffff81118015611b4d57600080fd5b50604051908082528060200260200182016040528015611b7c5781602001602082028036833780820191505090505b5090508281600081518110611b8d57fe5b60200260200101818152505080915050919050565b611bc18473ffffffffffffffffffffffffffffffffffffffff16611e2f565b15611e27578373ffffffffffffffffffffffffffffffffffffffff1663f23a6e6187878686866040518663ffffffff1660e01b8152600401611c07959493929190612b36565b602060405180830381600087803b158015611c2157600080fd5b505af1925050508015611c5257506040513d601f19601f82011682018060405250810190611c4f919061238f565b60015b611d9e576000604051905060008152600115611d1b5760443d1015611c7a5760009050611d1b565b60046000803e60005160e01c6308c379a08114611c9b576000915050611d1b565b60043d036004833e81513d602482011167ffffffffffffffff82111715611cc757600092505050611d1b565b808301805167ffffffffffffffff811115611ce9576000945050505050611d1b565b8060208301013d8601811115611d0757600095505050505050611d1b565b601f19601f82011660405282955050505050505b80611d265750611d63565b806040517f08c379a0000000000000000000000000000000000000000000000000000000008152600401611d5a9190612c04565b60405180910390fd5b6040517f08c379a0000000000000000000000000000000000000000000000000000000008152600401611d9590612c26565b60405180910390fd5b63f23a6e6160e01b7bffffffffffffffffffffffffffffffffffffffffffffffffffffffff1916817bffffffffffffffffffffffffffffffffffffffffffffffffffffffff191614611e25576040517f08c379a0000000000000000000000000000000000000000000000000000000008152600401611e1c90612c46565b60405180910390fd5b505b505050505050565b600080823b905060008111915050919050565b600081359050611e518161302b565b92915050565b600082601f830112611e6857600080fd5b8135611e7b611e7682612e77565b612e4a565b91508181835260208401935060208101905083856020840282011115611ea057600080fd5b60005b83811015611ed05781611eb68882611e42565b845260208401935060208301925050600181019050611ea3565b5050505092915050565b600082601f830112611eeb57600080fd5b8135611efe611ef982612e9f565b612e4a565b91508181835260208401935060208101905083856020840282011115611f2357600080fd5b60005b83811015611f535781611f39888261203a565b845260208401935060208301925050600181019050611f26565b5050505092915050565b600081359050611f6c81613042565b92915050565b600081359050611f8181613059565b92915050565b600081519050611f9681613059565b92915050565b60008083601f840112611fae57600080fd5b8235905067ffffffffffffffff811115611fc757600080fd5b602083019150836001820283011115611fdf57600080fd5b9250929050565b600082601f830112611ff757600080fd5b813561200a61200582612ec7565b612e4a565b9150808252602083016020830185838301111561202657600080fd5b612031838284612fd8565b50505092915050565b60008135905061204981613070565b92915050565b60006020828403121561206157600080fd5b600061206f84828501611e42565b91505092915050565b6000806040838503121561208b57600080fd5b600061209985828601611e42565b92505060206120aa85828601611e42565b9150509250929050565b600080600080600060a086880312156120cc57600080fd5b60006120da88828901611e42565b95505060206120eb88828901611e42565b945050604086013567ffffffffffffffff81111561210857600080fd5b61211488828901611eda565b935050606086013567ffffffffffffffff81111561213157600080fd5b61213d88828901611eda565b925050608086013567ffffffffffffffff81111561215a57600080fd5b61216688828901611fe6565b9150509295509295909350565b600080600080600060a0868803121561218b57600080fd5b600061219988828901611e42565b95505060206121aa88828901611e42565b94505060406121bb8882890161203a565b93505060606121cc8882890161203a565b925050608086013567ffffffffffffffff8111156121e957600080fd5b6121f588828901611fe6565b9150509295509295909350565b6000806040838503121561221557600080fd5b600061222385828601611e42565b925050602061223485828601611f5d565b9150509250929050565b6000806040838503121561225157600080fd5b600061225f85828601611e42565b92505060206122708582860161203a565b9150509250929050565b60008060008060006080868803121561229257600080fd5b60006122a088828901611e42565b95505060206122b18882890161203a565b94505060406122c28882890161203a565b935050606086013567ffffffffffffffff8111156122df57600080fd5b6122eb88828901611f9c565b92509250509295509295909350565b6000806040838503121561230d57600080fd5b600083013567ffffffffffffffff81111561232757600080fd5b61233385828601611e57565b925050602083013567ffffffffffffffff81111561235057600080fd5b61235c85828601611eda565b9150509250929050565b60006020828403121561237857600080fd5b600061238684828501611f72565b91505092915050565b6000602082840312156123a157600080fd5b60006123af84828501611f87565b91505092915050565b6000602082840312156123ca57600080fd5b60006123d88482850161203a565b91505092915050565b60006123ed8383612a95565b60208301905092915050565b61240281612f64565b82525050565b600061241382612f03565b61241d8185612f31565b935061242883612ef3565b8060005b8381101561245957815161244088826123e1565b975061244b83612f24565b92505060018101905061242c565b5085935050505092915050565b61246f81612f76565b82525050565b600061248082612f0e565b61248a8185612f42565b935061249a818560208601612fe7565b6124a38161301a565b840191505092915050565b60006124b982612f19565b6124c38185612f53565b93506124d3818560208601612fe7565b6124dc8161301a565b840191505092915050565b60006124f4603483612f53565b91507f455243313135353a207472616e7366657220746f206e6f6e204552433131353560008301527f526563656976657220696d706c656d656e7465720000000000000000000000006020830152604082019050919050565b600061255a602883612f53565b91507f455243313135353a204552433131353552656365697665722072656a6563746560008301527f6420746f6b656e730000000000000000000000000000000000000000000000006020830152604082019050919050565b60006125c0602b83612f53565b91507f455243313135353a2062616c616e636520717565727920666f7220746865207a60008301527f65726f20616464726573730000000000000000000000000000000000000000006020830152604082019050919050565b6000612626603183612f53565b91507f455243313135353a2062617463682062616c616e636520717565727920666f7260008301527f20746865207a65726f20616464726573730000000000000000000000000000006020830152604082019050919050565b600061268c602683612f53565b91507f4f776e61626c653a206e6577206f776e657220697320746865207a65726f206160008301527f64647265737300000000000000000000000000000000000000000000000000006020830152604082019050919050565b60006126f2601b83612f53565b91507f536166654d6174683a206164646974696f6e206f766572666c6f7700000000006000830152602082019050919050565b6000612732602983612f53565b91507f455243313135353a2063616c6c6572206973206e6f74206f776e6572206e6f7260008301527f20617070726f76656400000000000000000000000000000000000000000000006020830152604082019050919050565b6000612798602583612f53565b91507f455243313135353a207472616e7366657220746f20746865207a65726f20616460008301527f64726573730000000000000000000000000000000000000000000000000000006020830152604082019050919050565b60006127fe603283612f53565b91507f455243313135353a207472616e736665722063616c6c6572206973206e6f742060008301527f6f776e6572206e6f7220617070726f76656400000000000000000000000000006020830152604082019050919050565b6000612864602083612f53565b91507f4f776e61626c653a2063616c6c6572206973206e6f7420746865206f776e65726000830152602082019050919050565b60006128a4602983612f53565b91507f455243313135353a2073657474696e6720617070726f76616c2073746174757360008301527f20666f722073656c6600000000000000000000000000000000000000000000006020830152604082019050919050565b600061290a602983612f53565b91507f455243313135353a206163636f756e747320616e6420696473206c656e67746860008301527f206d69736d6174636800000000000000000000000000000000000000000000006020830152604082019050919050565b6000612970602883612f53565b91507f455243313135353a2069647320616e6420616d6f756e7473206c656e6774682060008301527f6d69736d617463680000000000000000000000000000000000000000000000006020830152604082019050919050565b60006129d6602183612f53565b91507f455243313135353a206d696e7420746f20746865207a65726f2061646472657360008301527f73000000000000000000000000000000000000000000000000000000000000006020830152604082019050919050565b6000612a3c602683612f53565b91507f6f6e6c7920706c6174666f726d20636f6e74726163742063616e20646f20746860008301527f65207461736b00000000000000000000000000000000000000000000000000006020830152604082019050919050565b612a9e81612fce565b82525050565b612aad81612fce565b82525050565b6000602082019050612ac860008301846123f9565b92915050565b600060a082019050612ae360008301886123f9565b612af060208301876123f9565b8181036040830152612b028186612408565b90508181036060830152612b168185612408565b90508181036080830152612b2a8184612475565b90509695505050505050565b600060a082019050612b4b60008301886123f9565b612b5860208301876123f9565b612b656040830186612aa4565b612b726060830185612aa4565b8181036080830152612b848184612475565b90509695505050505050565b60006020820190508181036000830152612baa8184612408565b905092915050565b60006040820190508181036000830152612bcc8185612408565b90508181036020830152612be08184612408565b90509392505050565b6000602082019050612bfe6000830184612466565b92915050565b60006020820190508181036000830152612c1e81846124ae565b905092915050565b60006020820190508181036000830152612c3f816124e7565b9050919050565b60006020820190508181036000830152612c5f8161254d565b9050919050565b60006020820190508181036000830152612c7f816125b3565b9050919050565b60006020820190508181036000830152612c9f81612619565b9050919050565b60006020820190508181036000830152612cbf8161267f565b9050919050565b60006020820190508181036000830152612cdf816126e5565b9050919050565b60006020820190508181036000830152612cff81612725565b9050919050565b60006020820190508181036000830152612d1f8161278b565b9050919050565b60006020820190508181036000830152612d3f816127f1565b9050919050565b60006020820190508181036000830152612d5f81612857565b9050919050565b60006020820190508181036000830152612d7f81612897565b9050919050565b60006020820190508181036000830152612d9f816128fd565b9050919050565b60006020820190508181036000830152612dbf81612963565b9050919050565b60006020820190508181036000830152612ddf816129c9565b9050919050565b60006020820190508181036000830152612dff81612a2f565b9050919050565b6000602082019050612e1b6000830184612aa4565b92915050565b6000604082019050612e366000830185612aa4565b612e436020830184612aa4565b9392505050565b6000604051905081810181811067ffffffffffffffff82111715612e6d57600080fd5b8060405250919050565b600067ffffffffffffffff821115612e8e57600080fd5b602082029050602081019050919050565b600067ffffffffffffffff821115612eb657600080fd5b602082029050602081019050919050565b600067ffffffffffffffff821115612ede57600080fd5b601f19601f8301169050602081019050919050565b6000819050602082019050919050565b600081519050919050565b600081519050919050565b600081519050919050565b6000602082019050919050565b600082825260208201905092915050565b600082825260208201905092915050565b600082825260208201905092915050565b6000612f6f82612fae565b9050919050565b60008115159050919050565b60007fffffffff0000000000000000000000000000000000000000000000000000000082169050919050565b600073ffffffffffffffffffffffffffffffffffffffff82169050919050565b6000819050919050565b82818337600083830152505050565b60005b83811015613005578082015181840152602081019050612fea565b83811115613014576000848401525b50505050565b6000601f19601f8301169050919050565b61303481612f64565b811461303f57600080fd5b50565b61304b81612f76565b811461305657600080fd5b50565b61306281612f82565b811461306d57600080fd5b50565b61307981612fce565b811461308457600080fd5b5056fe455243313135353a20696e73756666696369656e742062616c616e636520666f72207472616e73666572a2646970667358221220d9c59eb06b73509ad0249ba54119d4bc93ddd833cf076d63c3f3c5b9cb0cc3a564736f6c63430006060033",
  "linkReferences": {},
  "deployedLinkReferences": {}
}