{
  "_format": "hh-sol-artifact-1",
  "contractName": "DBook1155",
  "sourceName": "contracts/DBook1155.sol",
  "abi": [
    {
      "inputs": [
        {
          "internalType": "string",
          "name": "name",
          "type": "string"
        },
        {
          "internalType": "string",
          "name": "symbol",
          "type": "string"
        },
        {
          "internalType": "string",
          "name": "uri",
          "type": "string"
        }
      ],
      "stateMutability": "nonpayable",
      "type": "constructor"
    },
    {
      "anonymous": false,
      "inputs": [
        {
          "indexed": true,
          "internalType": "address",
          "name": "account",
          "type": "address"
        },
        {
          "indexed": true,
          "internalType": "address",
          "name": "operator",
          "type": "address"
        },
        {
          "indexed": false,
          "internalType": "bool",
          "name": "approved",
          "type": "bool"
        }
      ],
      "name": "ApprovalForAll",
      "type": "event"
    },
    {
      "anonymous": false,
      "inputs": [
        {
          "indexed": true,
          "internalType": "address",
          "name": "previousOwner",
          "type": "address"
        },
        {
          "indexed": true,
          "internalType": "address",
          "name": "newOwner",
          "type": "address"
        }
      ],
      "name": "OwnershipTransferred",
      "type": "event"
    },
    {
      "anonymous": false,
      "inputs": [
        {
          "indexed": true,
          "internalType": "address",
          "name": "operator",
          "type": "address"
        },
        {
          "indexed": true,
          "internalType": "address",
          "name": "from",
          "type": "address"
        },
        {
          "indexed": true,
          "internalType": "address",
          "name": "to",
          "type": "address"
        },
        {
          "indexed": false,
          "internalType": "uint256[]",
          "name": "ids",
          "type": "uint256[]"
        },
        {
          "indexed": false,
          "internalType": "uint256[]",
          "name": "values",
          "type": "uint256[]"
        }
      ],
      "name": "TransferBatch",
      "type": "event"
    },
    {
      "anonymous": false,
      "inputs": [
        {
          "indexed": true,
          "internalType": "address",
          "name": "operator",
          "type": "address"
        },
        {
          "indexed": true,
          "internalType": "address",
          "name": "from",
          "type": "address"
        },
        {
          "indexed": true,
          "internalType": "address",
          "name": "to",
          "type": "address"
        },
        {
          "indexed": false,
          "internalType": "uint256",
          "name": "id",
          "type": "uint256"
        },
        {
          "indexed": false,
          "internalType": "uint256",
          "name": "value",
          "type": "uint256"
        }
      ],
      "name": "TransferSingle",
      "type": "event"
    },
    {
      "anonymous": false,
      "inputs": [
        {
          "indexed": false,
          "internalType": "string",
          "name": "value",
          "type": "string"
        },
        {
          "indexed": true,
          "internalType": "uint256",
          "name": "id",
          "type": "uint256"
        }
      ],
      "name": "URI",
      "type": "event"
    },
    {
      "inputs": [
        {
          "internalType": "address",
          "name": "account",
          "type": "address"
        },
        {
          "internalType": "uint256",
          "name": "id",
          "type": "uint256"
        }
      ],
      "name": "balanceOf",
      "outputs": [
        {
          "internalType": "uint256",
          "name": "",
          "type": "uint256"
        }
      ],
      "stateMutability": "view",
      "type": "function"
    },
    {
      "inputs": [
        {
          "internalType": "address[]",
          "name": "accounts",
          "type": "address[]"
        },
        {
          "internalType": "uint256[]",
          "name": "ids",
          "type": "uint256[]"
        }
      ],
      "name": "balanceOfBatch",
      "outputs": [
        {
          "internalType": "uint256[]",
          "name": "",
          "type": "uint256[]"
        }
      ],
      "stateMutability": "view",
      "type": "function"
    },
    {
      "inputs": [
        {
          "internalType": "address",
          "name": "account",
          "type": "address"
        },
        {
          "internalType": "uint256",
          "name": "tokenId",
          "type": "uint256"
        },
        {
          "internalType": "uint256",
          "name": "amount",
          "type": "uint256"
        }
      ],
      "name": "burn",
      "outputs": [],
      "stateMutability": "nonpayable",
      "type": "function"
    },
    {
      "inputs": [
        {
          "internalType": "address",
          "name": "account",
          "type": "address"
        },
        {
          "internalType": "address",
          "name": "operator",
          "type": "address"
        }
      ],
      "name": "isApprovedForAll",
      "outputs": [
        {
          "internalType": "bool",
          "name": "",
          "type": "bool"
        }
      ],
      "stateMutability": "view",
      "type": "function"
    },
    {
      "inputs": [
        {
          "internalType": "address",
          "name": "to",
          "type": "address"
        },
        {
          "internalType": "uint256",
          "name": "tokenId",
          "type": "uint256"
        },
        {
          "internalType": "uint256",
          "name": "amount",
          "type": "uint256"
        },
        {
          "internalType": "bytes",
          "name": "data",
          "type": "bytes"
        }
      ],
      "name": "mint",
      "outputs": [],
      "stateMutability": "nonpayable",
      "type": "function"
    },
    {
      "inputs": [],
      "name": "name",
      "outputs": [
        {
          "internalType": "string",
          "name": "",
          "type": "string"
        }
      ],
      "stateMutability": "view",
      "type": "function"
    },
    {
      "inputs": [],
      "name": "owner",
      "outputs": [
        {
          "internalType": "address",
          "name": "",
          "type": "address"
        }
      ],
      "stateMutability": "view",
      "type": "function"
    },
    {
      "inputs": [],
      "name": "renounceOwnership",
      "outputs": [],
      "stateMutability": "nonpayable",
      "type": "function"
    },
    {
      "inputs": [
        {
          "internalType": "address",
          "name": "from",
          "type": "address"
        },
        {
          "internalType": "address",
          "name": "to",
          "type": "address"
        },
        {
          "internalType": "uint256[]",
          "name": "ids",
          "type": "uint256[]"
        },
        {
          "internalType": "uint256[]",
          "name": "amounts",
          "type": "uint256[]"
        },
        {
          "internalType": "bytes",
          "name": "data",
          "type": "bytes"
        }
      ],
      "name": "safeBatchTransferFrom",
      "outputs": [],
      "stateMutability": "nonpayable",
      "type": "function"
    },
    {
      "inputs": [
        {
          "internalType": "address",
          "name": "from",
          "type": "address"
        },
        {
          "internalType": "address",
          "name": "to",
          "type": "address"
        },
        {
          "internalType": "uint256",
          "name": "id",
          "type": "uint256"
        },
        {
          "internalType": "uint256",
          "name": "amount",
          "type": "uint256"
        },
        {
          "internalType": "bytes",
          "name": "data",
          "type": "bytes"
        }
      ],
      "name": "safeTransferFrom",
      "outputs": [],
      "stateMutability": "nonpayable",
      "type": "function"
    },
    {
      "inputs": [
        {
          "internalType": "address",
          "name": "operator",
          "type": "address"
        },
        {
          "internalType": "bool",
          "name": "approved",
          "type": "bool"
        }
      ],
      "name": "setApprovalForAll",
      "outputs": [],
      "stateMutability": "nonpayable",
      "type": "function"
    },
    {
      "inputs": [
        {
          "internalType": "address",
          "name": "platformAddress",
          "type": "address"
        }
      ],
      "name": "setPlatformAddress",
      "outputs": [],
      "stateMutability": "nonpayable",
      "type": "function"
    },
    {
      "inputs": [
        {
          "internalType": "bytes4",
          "name": "interfaceId",
          "type": "bytes4"
        }
      ],
      "name": "supportsInterface",
      "outputs": [
        {
          "internalType": "bool",
          "name": "",
          "type": "bool"
        }
      ],
      "stateMutability": "view",
      "type": "function"
    },
    {
      "inputs": [],
      "name": "symbol",
      "outputs": [
        {
          "internalType": "string",
          "name": "",
          "type": "string"
        }
      ],
      "stateMutability": "view",
      "type": "function"
    },
    {
      "inputs": [
        {
          "internalType": "address",
          "name": "newOwner",
          "type": "address"
        }
      ],
      "name": "transferOwnership",
      "outputs": [],
      "stateMutability": "nonpayable",
      "type": "function"
    },
    {
      "inputs": [
        {
          "internalType": "uint256",
          "name": "",
          "type": "uint256"
        }
      ],
      "name": "uri",
      "outputs": [
        {
          "internalType": "string",
          "name": "",
          "type": "string"
        }
      ],
      "stateMutability": "view",
      "type": "function"
    }
  ],
  "bytecode": "0x60806040523480156200001157600080fd5b5060405162003b0138038062003b0183398181016040528101906200003791906200030d565b8062000049816200009760201b60201c565b506200006a6200005e620000ac60201b60201c565b620000b460201b60201c565b82600490816200007b919062000611565b5081600590816200008d919062000611565b50505050620006f8565b8060029081620000a8919062000611565b5050565b600033905090565b6000600360009054906101000a900473ffffffffffffffffffffffffffffffffffffffff16905081600360006101000a81548173ffffffffffffffffffffffffffffffffffffffff021916908373ffffffffffffffffffffffffffffffffffffffff1602179055508173ffffffffffffffffffffffffffffffffffffffff168173ffffffffffffffffffffffffffffffffffffffff167f8be0079c531659141344cd1fd0a4f28419497f9722a3daafe3b4186f6b6457e060405160405180910390a35050565b6000604051905090565b600080fd5b600080fd5b600080fd5b600080fd5b6000601f19601f8301169050919050565b7f4e487b7100000000000000000000000000000000000000000000000000000000600052604160045260246000fd5b620001e38262000198565b810181811067ffffffffffffffff82111715620002055762000204620001a9565b5b80604052505050565b60006200021a6200017a565b9050620002288282620001d8565b919050565b600067ffffffffffffffff8211156200024b576200024a620001a9565b5b620002568262000198565b9050602081019050919050565b60005b838110156200028357808201518184015260208101905062000266565b60008484015250505050565b6000620002a6620002a0846200022d565b6200020e565b905082815260208101848484011115620002c557620002c462000193565b5b620002d284828562000263565b509392505050565b600082601f830112620002f257620002f16200018e565b5b8151620003048482602086016200028f565b91505092915050565b60008060006060848603121562000329576200032862000184565b5b600084015167ffffffffffffffff8111156200034a576200034962000189565b5b6200035886828701620002da565b935050602084015167ffffffffffffffff8111156200037c576200037b62000189565b5b6200038a86828701620002da565b925050604084015167ffffffffffffffff811115620003ae57620003ad62000189565b5b620003bc86828701620002da565b9150509250925092565b600081519050919050565b7f4e487b7100000000000000000000000000000000000000000000000000000000600052602260045260246000fd5b600060028204905060018216806200041957607f821691505b6020821081036200042f576200042e620003d1565b5b50919050565b60008190508160005260206000209050919050565b60006020601f8301049050919050565b600082821b905092915050565b600060088302620004997fffffffffffffffffffffffffffffffffffffffffffffffffffffffffffffffff826200045a565b620004a586836200045a565b95508019841693508086168417925050509392505050565b6000819050919050565b6000819050919050565b6000620004f2620004ec620004e684620004bd565b620004c7565b620004bd565b9050919050565b6000819050919050565b6200050e83620004d1565b620005266200051d82620004f9565b84845462000467565b825550505050565b600090565b6200053d6200052e565b6200054a81848462000503565b505050565b5b8181101562000572576200056660008262000533565b60018101905062000550565b5050565b601f821115620005c1576200058b8162000435565b62000596846200044a565b81016020851015620005a6578190505b620005be620005b5856200044a565b8301826200054f565b50505b505050565b600082821c905092915050565b6000620005e660001984600802620005c6565b1980831691505092915050565b6000620006018383620005d3565b9150826002028217905092915050565b6200061c82620003c6565b67ffffffffffffffff811115620006385762000637620001a9565b5b62000644825462000400565b6200065182828562000576565b600060209050601f83116001811462000689576000841562000674578287015190505b620006808582620005f3565b865550620006f0565b601f198416620006998662000435565b60005b82811015620006c3578489015182556001820191506020850194506020810190506200069c565b86831015620006e35784890151620006df601f891682620005d3565b8355505b6001600288020188555050505b505050505050565b6133f980620007086000396000f3fe608060405234801561001057600080fd5b50600436106100ff5760003560e01c80638da5cb5b11610097578063e985e9c511610066578063e985e9c514610298578063f242432a146102c8578063f2fde38b146102e4578063f5298aca14610300576100ff565b80638da5cb5b1461022457806395d89b4114610242578063a22cb46514610260578063cc03c3421461027c576100ff565b80632eb2c2d6116100d35780632eb2c2d6146101b25780634e1273f4146101ce578063715018a6146101fe578063731133e914610208576100ff565b8062fdd58e1461010457806301ffc9a71461013457806306fdde03146101645780630e89341c14610182575b600080fd5b61011e60048036038101906101199190611dee565b61031c565b60405161012b9190611e3d565b60405180910390f35b61014e60048036038101906101499190611eb0565b6103e4565b60405161015b9190611ef8565b60405180910390f35b61016c6104c6565b6040516101799190611fa3565b60405180910390f35b61019c60048036038101906101979190611fc5565b610558565b6040516101a99190611fa3565b60405180910390f35b6101cc60048036038101906101c791906121ef565b6105ec565b005b6101e860048036038101906101e39190612381565b61068d565b6040516101f591906124b7565b60405180910390f35b6102066107a6565b005b610222600480360381019061021d9190612534565b6107ba565b005b61022c6108a1565b60405161023991906125cb565b60405180910390f35b61024a6108cb565b6040516102579190611fa3565b60405180910390f35b61027a60048036038101906102759190612612565b61095d565b005b61029660048036038101906102919190612652565b610973565b005b6102b260048036038101906102ad919061267f565b6109bf565b6040516102bf9190611ef8565b60405180910390f35b6102e260048036038101906102dd91906126bf565b610a53565b005b6102fe60048036038101906102f99190612652565b610af4565b005b61031a60048036038101906103159190612756565b610b77565b005b60008073ffffffffffffffffffffffffffffffffffffffff168373ffffffffffffffffffffffffffffffffffffffff160361038c576040517f08c379a00000000000000000000000000000000000000000000000000000000081526004016103839061281b565b60405180910390fd5b60008083815260200190815260200160002060008473ffffffffffffffffffffffffffffffffffffffff1673ffffffffffffffffffffffffffffffffffffffff16815260200190815260200160002054905092915050565b60007fd9b67a26000000000000000000000000000000000000000000000000000000007bffffffffffffffffffffffffffffffffffffffffffffffffffffffff1916827bffffffffffffffffffffffffffffffffffffffffffffffffffffffff191614806104af57507f0e89341c000000000000000000000000000000000000000000000000000000007bffffffffffffffffffffffffffffffffffffffffffffffffffffffff1916827bffffffffffffffffffffffffffffffffffffffffffffffffffffffff1916145b806104bf57506104be82610c17565b5b9050919050565b6060600480546104d59061286a565b80601f01602080910402602001604051908101604052809291908181526020018280546105019061286a565b801561054e5780601f106105235761010080835404028352916020019161054e565b820191906000526020600020905b81548152906001019060200180831161053157829003601f168201915b5050505050905090565b6060600280546105679061286a565b80601f01602080910402602001604051908101604052809291908181526020018280546105939061286a565b80156105e05780601f106105b5576101008083540402835291602001916105e0565b820191906000526020600020905b8154815290600101906020018083116105c357829003601f168201915b50505050509050919050565b6105f4610c81565b73ffffffffffffffffffffffffffffffffffffffff168573ffffffffffffffffffffffffffffffffffffffff16148061063a575061063985610634610c81565b6109bf565b5b610679576040517f08c379a00000000000000000000000000000000000000000000000000000000081526004016106709061290d565b60405180910390fd5b6106868585858585610c89565b5050505050565b606081518351146106d3576040517f08c379a00000000000000000000000000000000000000000000000000000000081526004016106ca9061299f565b60405180910390fd5b6000835167ffffffffffffffff8111156106f0576106ef611ff7565b5b60405190808252806020026020018201604052801561071e5781602001602082028036833780820191505090505b50905060005b845181101561079b5761076b858281518110610743576107426129bf565b5b602002602001015185838151811061075e5761075d6129bf565b5b602002602001015161031c565b82828151811061077e5761077d6129bf565b5b6020026020010181815250508061079490612a1d565b9050610724565b508091505092915050565b6107ae610faa565b6107b86000611028565b565b3373ffffffffffffffffffffffffffffffffffffffff16600660009054906101000a900473ffffffffffffffffffffffffffffffffffffffff1673ffffffffffffffffffffffffffffffffffffffff161461084a576040517f08c379a000000000000000000000000000000000000000000000000000000000815260040161084190612ad7565b60405180910390fd5b61089a85858585858080601f016020809104026020016040519081016040528093929190818152602001838380828437600081840152601f19601f820116905080830192505050505050506110ee565b5050505050565b6000600360009054906101000a900473ffffffffffffffffffffffffffffffffffffffff16905090565b6060600580546108da9061286a565b80601f01602080910402602001604051908101604052809291908181526020018280546109069061286a565b80156109535780601f1061092857610100808354040283529160200191610953565b820191906000526020600020905b81548152906001019060200180831161093657829003601f168201915b5050505050905090565b61096f610968610c81565b838361129e565b5050565b61097b610faa565b80600660006101000a81548173ffffffffffffffffffffffffffffffffffffffff021916908373ffffffffffffffffffffffffffffffffffffffff16021790555050565b6000600160008473ffffffffffffffffffffffffffffffffffffffff1673ffffffffffffffffffffffffffffffffffffffff16815260200190815260200160002060008373ffffffffffffffffffffffffffffffffffffffff1673ffffffffffffffffffffffffffffffffffffffff16815260200190815260200160002060009054906101000a900460ff16905092915050565b610a5b610c81565b73ffffffffffffffffffffffffffffffffffffffff168573ffffffffffffffffffffffffffffffffffffffff161480610aa15750610aa085610a9b610c81565b6109bf565b5b610ae0576040517f08c379a0000000000000000000000000000000000000000000000000000000008152600401610ad79061290d565b60405180910390fd5b610aed858585858561140a565b5050505050565b610afc610faa565b600073ffffffffffffffffffffffffffffffffffffffff168173ffffffffffffffffffffffffffffffffffffffff1603610b6b576040517f08c379a0000000000000000000000000000000000000000000000000000000008152600401610b6290612b69565b60405180910390fd5b610b7481611028565b50565b3373ffffffffffffffffffffffffffffffffffffffff16600660009054906101000a900473ffffffffffffffffffffffffffffffffffffffff1673ffffffffffffffffffffffffffffffffffffffff1614610c07576040517f08c379a0000000000000000000000000000000000000000000000000000000008152600401610bfe90612ad7565b60405180910390fd5b610c128383836116a5565b505050565b60007f01ffc9a7000000000000000000000000000000000000000000000000000000007bffffffffffffffffffffffffffffffffffffffffffffffffffffffff1916827bffffffffffffffffffffffffffffffffffffffffffffffffffffffff1916149050919050565b600033905090565b8151835114610ccd576040517f08c379a0000000000000000000000000000000000000000000000000000000008152600401610cc490612bfb565b60405180910390fd5b600073ffffffffffffffffffffffffffffffffffffffff168473ffffffffffffffffffffffffffffffffffffffff1603610d3c576040517f08c379a0000000000000000000000000000000000000000000000000000000008152600401610d3390612c8d565b60405180910390fd5b6000610d46610c81565b9050610d568187878787876118eb565b60005b8451811015610f07576000858281518110610d7757610d766129bf565b5b602002602001015190506000858381518110610d9657610d956129bf565b5b60200260200101519050600080600084815260200190815260200160002060008b73ffffffffffffffffffffffffffffffffffffffff1673ffffffffffffffffffffffffffffffffffffffff16815260200190815260200160002054905081811015610e37576040517f08c379a0000000000000000000000000000000000000000000000000000000008152600401610e2e90612d1f565b60405180910390fd5b81810360008085815260200190815260200160002060008c73ffffffffffffffffffffffffffffffffffffffff1673ffffffffffffffffffffffffffffffffffffffff168152602001908152602001600020819055508160008085815260200190815260200160002060008b73ffffffffffffffffffffffffffffffffffffffff1673ffffffffffffffffffffffffffffffffffffffff1681526020019081526020016000206000828254610eec9190612d3f565b9250508190555050505080610f0090612a1d565b9050610d59565b508473ffffffffffffffffffffffffffffffffffffffff168673ffffffffffffffffffffffffffffffffffffffff168273ffffffffffffffffffffffffffffffffffffffff167f4a39dc06d4c0dbc64b70af90fd698a233a518aa5d07e595d983b8c0526c8f7fb8787604051610f7e929190612d73565b60405180910390a4610f948187878787876118f3565b610fa28187878787876118fb565b505050505050565b610fb2610c81565b73ffffffffffffffffffffffffffffffffffffffff16610fd06108a1565b73ffffffffffffffffffffffffffffffffffffffff1614611026576040517f08c379a000000000000000000000000000000000000000000000000000000000815260040161101d90612df6565b60405180910390fd5b565b6000600360009054906101000a900473ffffffffffffffffffffffffffffffffffffffff16905081600360006101000a81548173ffffffffffffffffffffffffffffffffffffffff021916908373ffffffffffffffffffffffffffffffffffffffff1602179055508173ffffffffffffffffffffffffffffffffffffffff168173ffffffffffffffffffffffffffffffffffffffff167f8be0079c531659141344cd1fd0a4f28419497f9722a3daafe3b4186f6b6457e060405160405180910390a35050565b600073ffffffffffffffffffffffffffffffffffffffff168473ffffffffffffffffffffffffffffffffffffffff160361115d576040517f08c379a000000000000000000000000000000000000000000000000000000000815260040161115490612e88565b60405180910390fd5b6000611167610c81565b9050600061117485611ad2565b9050600061118185611ad2565b9050611192836000898585896118eb565b8460008088815260200190815260200160002060008973ffffffffffffffffffffffffffffffffffffffff1673ffffffffffffffffffffffffffffffffffffffff16815260200190815260200160002060008282546111f19190612d3f565b925050819055508673ffffffffffffffffffffffffffffffffffffffff16600073ffffffffffffffffffffffffffffffffffffffff168473ffffffffffffffffffffffffffffffffffffffff167fc3d58168c5ae7397731d063d5bbf3d657854427343f4c083240f7aacaa2d0f62898960405161126f929190612ea8565b60405180910390a4611286836000898585896118f3565b61129583600089898989611b4c565b50505050505050565b8173ffffffffffffffffffffffffffffffffffffffff168373ffffffffffffffffffffffffffffffffffffffff160361130c576040517f08c379a000000000000000000000000000000000000000000000000000000000815260040161130390612f43565b60405180910390fd5b80600160008573ffffffffffffffffffffffffffffffffffffffff1673ffffffffffffffffffffffffffffffffffffffff16815260200190815260200160002060008473ffffffffffffffffffffffffffffffffffffffff1673ffffffffffffffffffffffffffffffffffffffff16815260200190815260200160002060006101000a81548160ff0219169083151502179055508173ffffffffffffffffffffffffffffffffffffffff168373ffffffffffffffffffffffffffffffffffffffff167f17307eab39ab6107e8899845ad3d59bd9653f200f220920489ca2b5937696c31836040516113fd9190611ef8565b60405180910390a3505050565b600073ffffffffffffffffffffffffffffffffffffffff168473ffffffffffffffffffffffffffffffffffffffff1603611479576040517f08c379a000000000000000000000000000000000000000000000000000000000815260040161147090612c8d565b60405180910390fd5b6000611483610c81565b9050600061149085611ad2565b9050600061149d85611ad2565b90506114ad8389898585896118eb565b600080600088815260200190815260200160002060008a73ffffffffffffffffffffffffffffffffffffffff1673ffffffffffffffffffffffffffffffffffffffff16815260200190815260200160002054905085811015611544576040517f08c379a000000000000000000000000000000000000000000000000000000000815260040161153b90612d1f565b60405180910390fd5b85810360008089815260200190815260200160002060008b73ffffffffffffffffffffffffffffffffffffffff1673ffffffffffffffffffffffffffffffffffffffff168152602001908152602001600020819055508560008089815260200190815260200160002060008a73ffffffffffffffffffffffffffffffffffffffff1673ffffffffffffffffffffffffffffffffffffffff16815260200190815260200160002060008282546115f99190612d3f565b925050819055508773ffffffffffffffffffffffffffffffffffffffff168973ffffffffffffffffffffffffffffffffffffffff168573ffffffffffffffffffffffffffffffffffffffff167fc3d58168c5ae7397731d063d5bbf3d657854427343f4c083240f7aacaa2d0f628a8a604051611676929190612ea8565b60405180910390a461168c848a8a86868a6118f3565b61169a848a8a8a8a8a611b4c565b505050505050505050565b600073ffffffffffffffffffffffffffffffffffffffff168373ffffffffffffffffffffffffffffffffffffffff1603611714576040517f08c379a000000000000000000000000000000000000000000000000000000000815260040161170b90612fd5565b60405180910390fd5b600061171e610c81565b9050600061172b84611ad2565b9050600061173884611ad2565b9050611758838760008585604051806020016040528060008152506118eb565b600080600087815260200190815260200160002060008873ffffffffffffffffffffffffffffffffffffffff1673ffffffffffffffffffffffffffffffffffffffff168152602001908152602001600020549050848110156117ef576040517f08c379a00000000000000000000000000000000000000000000000000000000081526004016117e690613067565b60405180910390fd5b84810360008088815260200190815260200160002060008973ffffffffffffffffffffffffffffffffffffffff1673ffffffffffffffffffffffffffffffffffffffff16815260200190815260200160002081905550600073ffffffffffffffffffffffffffffffffffffffff168773ffffffffffffffffffffffffffffffffffffffff168573ffffffffffffffffffffffffffffffffffffffff167fc3d58168c5ae7397731d063d5bbf3d657854427343f4c083240f7aacaa2d0f6289896040516118bc929190612ea8565b60405180910390a46118e2848860008686604051806020016040528060008152506118f3565b50505050505050565b505050505050565b505050505050565b61191a8473ffffffffffffffffffffffffffffffffffffffff16611d23565b15611aca578373ffffffffffffffffffffffffffffffffffffffff1663bc197c8187878686866040518663ffffffff1660e01b81526004016119609594939291906130dc565b6020604051808303816000875af192505050801561199c57506040513d601f19601f820116820180604052508101906119999190613159565b60015b611a41576119a8613193565b806308c379a003611a0457506119bc6131b5565b806119c75750611a06565b806040517f08c379a00000000000000000000000000000000000000000000000000000000081526004016119fb9190611fa3565b60405180910390fd5b505b6040517f08c379a0000000000000000000000000000000000000000000000000000000008152600401611a38906132b7565b60405180910390fd5b63bc197c8160e01b7bffffffffffffffffffffffffffffffffffffffffffffffffffffffff1916817bffffffffffffffffffffffffffffffffffffffffffffffffffffffff191614611ac8576040517f08c379a0000000000000000000000000000000000000000000000000000000008152600401611abf90613349565b60405180910390fd5b505b505050505050565b60606000600167ffffffffffffffff811115611af157611af0611ff7565b5b604051908082528060200260200182016040528015611b1f5781602001602082028036833780820191505090505b5090508281600081518110611b3757611b366129bf565b5b60200260200101818152505080915050919050565b611b6b8473ffffffffffffffffffffffffffffffffffffffff16611d23565b15611d1b578373ffffffffffffffffffffffffffffffffffffffff1663f23a6e6187878686866040518663ffffffff1660e01b8152600401611bb1959493929190613369565b6020604051808303816000875af1925050508015611bed57506040513d601f19601f82011682018060405250810190611bea9190613159565b60015b611c9257611bf9613193565b806308c379a003611c555750611c0d6131b5565b80611c185750611c57565b806040517f08c379a0000000000000000000000000000000000000000000000000000000008152600401611c4c9190611fa3565b60405180910390fd5b505b6040517f08c379a0000000000000000000000000000000000000000000000000000000008152600401611c89906132b7565b60405180910390fd5b63f23a6e6160e01b7bffffffffffffffffffffffffffffffffffffffffffffffffffffffff1916817bffffffffffffffffffffffffffffffffffffffffffffffffffffffff191614611d19576040517f08c379a0000000000000000000000000000000000000000000000000000000008152600401611d1090613349565b60405180910390fd5b505b505050505050565b6000808273ffffffffffffffffffffffffffffffffffffffff163b119050919050565b6000604051905090565b600080fd5b600080fd5b600073ffffffffffffffffffffffffffffffffffffffff82169050919050565b6000611d8582611d5a565b9050919050565b611d9581611d7a565b8114611da057600080fd5b50565b600081359050611db281611d8c565b92915050565b6000819050919050565b611dcb81611db8565b8114611dd657600080fd5b50565b600081359050611de881611dc2565b92915050565b60008060408385031215611e0557611e04611d50565b5b6000611e1385828601611da3565b9250506020611e2485828601611dd9565b9150509250929050565b611e3781611db8565b82525050565b6000602082019050611e526000830184611e2e565b92915050565b60007fffffffff0000000000000000000000000000000000000000000000000000000082169050919050565b611e8d81611e58565b8114611e9857600080fd5b50565b600081359050611eaa81611e84565b92915050565b600060208284031215611ec657611ec5611d50565b5b6000611ed484828501611e9b565b91505092915050565b60008115159050919050565b611ef281611edd565b82525050565b6000602082019050611f0d6000830184611ee9565b92915050565b600081519050919050565b600082825260208201905092915050565b60005b83811015611f4d578082015181840152602081019050611f32565b60008484015250505050565b6000601f19601f8301169050919050565b6000611f7582611f13565b611f7f8185611f1e565b9350611f8f818560208601611f2f565b611f9881611f59565b840191505092915050565b60006020820190508181036000830152611fbd8184611f6a565b905092915050565b600060208284031215611fdb57611fda611d50565b5b6000611fe984828501611dd9565b91505092915050565b600080fd5b7f4e487b7100000000000000000000000000000000000000000000000000000000600052604160045260246000fd5b61202f82611f59565b810181811067ffffffffffffffff8211171561204e5761204d611ff7565b5b80604052505050565b6000612061611d46565b905061206d8282612026565b919050565b600067ffffffffffffffff82111561208d5761208c611ff7565b5b602082029050602081019050919050565b600080fd5b60006120b66120b184612072565b612057565b905080838252602082019050602084028301858111156120d9576120d861209e565b5b835b8181101561210257806120ee8882611dd9565b8452602084019350506020810190506120db565b5050509392505050565b600082601f83011261212157612120611ff2565b5b81356121318482602086016120a3565b91505092915050565b600080fd5b600067ffffffffffffffff82111561215a57612159611ff7565b5b61216382611f59565b9050602081019050919050565b82818337600083830152505050565b600061219261218d8461213f565b612057565b9050828152602081018484840111156121ae576121ad61213a565b5b6121b9848285612170565b509392505050565b600082601f8301126121d6576121d5611ff2565b5b81356121e684826020860161217f565b91505092915050565b600080600080600060a0868803121561220b5761220a611d50565b5b600061221988828901611da3565b955050602061222a88828901611da3565b945050604086013567ffffffffffffffff81111561224b5761224a611d55565b5b6122578882890161210c565b935050606086013567ffffffffffffffff81111561227857612277611d55565b5b6122848882890161210c565b925050608086013567ffffffffffffffff8111156122a5576122a4611d55565b5b6122b1888289016121c1565b9150509295509295909350565b600067ffffffffffffffff8211156122d9576122d8611ff7565b5b602082029050602081019050919050565b60006122fd6122f8846122be565b612057565b905080838252602082019050602084028301858111156123205761231f61209e565b5b835b8181101561234957806123358882611da3565b845260208401935050602081019050612322565b5050509392505050565b600082601f83011261236857612367611ff2565b5b81356123788482602086016122ea565b91505092915050565b6000806040838503121561239857612397611d50565b5b600083013567ffffffffffffffff8111156123b6576123b5611d55565b5b6123c285828601612353565b925050602083013567ffffffffffffffff8111156123e3576123e2611d55565b5b6123ef8582860161210c565b9150509250929050565b600081519050919050565b600082825260208201905092915050565b6000819050602082019050919050565b61242e81611db8565b82525050565b60006124408383612425565b60208301905092915050565b6000602082019050919050565b6000612464826123f9565b61246e8185612404565b935061247983612415565b8060005b838110156124aa5781516124918882612434565b975061249c8361244c565b92505060018101905061247d565b5085935050505092915050565b600060208201905081810360008301526124d18184612459565b905092915050565b600080fd5b60008083601f8401126124f4576124f3611ff2565b5b8235905067ffffffffffffffff811115612511576125106124d9565b5b60208301915083600182028301111561252d5761252c61209e565b5b9250929050565b6000806000806000608086880312156125505761254f611d50565b5b600061255e88828901611da3565b955050602061256f88828901611dd9565b945050604061258088828901611dd9565b935050606086013567ffffffffffffffff8111156125a1576125a0611d55565b5b6125ad888289016124de565b92509250509295509295909350565b6125c581611d7a565b82525050565b60006020820190506125e060008301846125bc565b92915050565b6125ef81611edd565b81146125fa57600080fd5b50565b60008135905061260c816125e6565b92915050565b6000806040838503121561262957612628611d50565b5b600061263785828601611da3565b9250506020612648858286016125fd565b9150509250929050565b60006020828403121561266857612667611d50565b5b600061267684828501611da3565b91505092915050565b6000806040838503121561269657612695611d50565b5b60006126a485828601611da3565b92505060206126b585828601611da3565b9150509250929050565b600080600080600060a086880312156126db576126da611d50565b5b60006126e988828901611da3565b95505060206126fa88828901611da3565b945050604061270b88828901611dd9565b935050606061271c88828901611dd9565b925050608086013567ffffffffffffffff81111561273d5761273c611d55565b5b612749888289016121c1565b9150509295509295909350565b60008060006060848603121561276f5761276e611d50565b5b600061277d86828701611da3565b935050602061278e86828701611dd9565b925050604061279f86828701611dd9565b9150509250925092565b7f455243313135353a2061646472657373207a65726f206973206e6f742061207660008201527f616c6964206f776e657200000000000000000000000000000000000000000000602082015250565b6000612805602a83611f1e565b9150612810826127a9565b604082019050919050565b60006020820190508181036000830152612834816127f8565b9050919050565b7f4e487b7100000000000000000000000000000000000000000000000000000000600052602260045260246000fd5b6000600282049050600182168061288257607f821691505b6020821081036128955761289461283b565b5b50919050565b7f455243313135353a2063616c6c6572206973206e6f7420746f6b656e206f776e60008201527f6572206f7220617070726f766564000000000000000000000000000000000000602082015250565b60006128f7602e83611f1e565b91506129028261289b565b604082019050919050565b60006020820190508181036000830152612926816128ea565b9050919050565b7f455243313135353a206163636f756e747320616e6420696473206c656e67746860008201527f206d69736d617463680000000000000000000000000000000000000000000000602082015250565b6000612989602983611f1e565b91506129948261292d565b604082019050919050565b600060208201905081810360008301526129b88161297c565b9050919050565b7f4e487b7100000000000000000000000000000000000000000000000000000000600052603260045260246000fd5b7f4e487b7100000000000000000000000000000000000000000000000000000000600052601160045260246000fd5b6000612a2882611db8565b91507fffffffffffffffffffffffffffffffffffffffffffffffffffffffffffffffff8203612a5a57612a596129ee565b5b600182019050919050565b7f6f6e6c7920706c6174666f726d20636f6e74726163742063616e20646f20746860008201527f65207461736b0000000000000000000000000000000000000000000000000000602082015250565b6000612ac1602683611f1e565b9150612acc82612a65565b604082019050919050565b60006020820190508181036000830152612af081612ab4565b9050919050565b7f4f776e61626c653a206e6577206f776e657220697320746865207a65726f206160008201527f6464726573730000000000000000000000000000000000000000000000000000602082015250565b6000612b53602683611f1e565b9150612b5e82612af7565b604082019050919050565b60006020820190508181036000830152612b8281612b46565b9050919050565b7f455243313135353a2069647320616e6420616d6f756e7473206c656e6774682060008201527f6d69736d61746368000000000000000000000000000000000000000000000000602082015250565b6000612be5602883611f1e565b9150612bf082612b89565b604082019050919050565b60006020820190508181036000830152612c1481612bd8565b9050919050565b7f455243313135353a207472616e7366657220746f20746865207a65726f20616460008201527f6472657373000000000000000000000000000000000000000000000000000000602082015250565b6000612c77602583611f1e565b9150612c8282612c1b565b604082019050919050565b60006020820190508181036000830152612ca681612c6a565b9050919050565b7f455243313135353a20696e73756666696369656e742062616c616e636520666f60008201527f72207472616e7366657200000000000000000000000000000000000000000000602082015250565b6000612d09602a83611f1e565b9150612d1482612cad565b604082019050919050565b60006020820190508181036000830152612d3881612cfc565b9050919050565b6000612d4a82611db8565b9150612d5583611db8565b9250828201905080821115612d6d57612d6c6129ee565b5b92915050565b60006040820190508181036000830152612d8d8185612459565b90508181036020830152612da18184612459565b90509392505050565b7f4f776e61626c653a2063616c6c6572206973206e6f7420746865206f776e6572600082015250565b6000612de0602083611f1e565b9150612deb82612daa565b602082019050919050565b60006020820190508181036000830152612e0f81612dd3565b9050919050565b7f455243313135353a206d696e7420746f20746865207a65726f2061646472657360008201527f7300000000000000000000000000000000000000000000000000000000000000602082015250565b6000612e72602183611f1e565b9150612e7d82612e16565b604082019050919050565b60006020820190508181036000830152612ea181612e65565b9050919050565b6000604082019050612ebd6000830185611e2e565b612eca6020830184611e2e565b9392505050565b7f455243313135353a2073657474696e6720617070726f76616c2073746174757360008201527f20666f722073656c660000000000000000000000000000000000000000000000602082015250565b6000612f2d602983611f1e565b9150612f3882612ed1565b604082019050919050565b60006020820190508181036000830152612f5c81612f20565b9050919050565b7f455243313135353a206275726e2066726f6d20746865207a65726f206164647260008201527f6573730000000000000000000000000000000000000000000000000000000000602082015250565b6000612fbf602383611f1e565b9150612fca82612f63565b604082019050919050565b60006020820190508181036000830152612fee81612fb2565b9050919050565b7f455243313135353a206275726e20616d6f756e7420657863656564732062616c60008201527f616e636500000000000000000000000000000000000000000000000000000000602082015250565b6000613051602483611f1e565b915061305c82612ff5565b604082019050919050565b6000602082019050818103600083015261308081613044565b9050919050565b600081519050919050565b600082825260208201905092915050565b60006130ae82613087565b6130b88185613092565b93506130c8818560208601611f2f565b6130d181611f59565b840191505092915050565b600060a0820190506130f160008301886125bc565b6130fe60208301876125bc565b81810360408301526131108186612459565b905081810360608301526131248185612459565b9050818103608083015261313881846130a3565b90509695505050505050565b60008151905061315381611e84565b92915050565b60006020828403121561316f5761316e611d50565b5b600061317d84828501613144565b91505092915050565b60008160e01c9050919050565b600060033d11156131b25760046000803e6131af600051613186565b90505b90565b600060443d10613242576131c7611d46565b60043d036004823e80513d602482011167ffffffffffffffff821117156131ef575050613242565b808201805167ffffffffffffffff81111561320d5750505050613242565b80602083010160043d03850181111561322a575050505050613242565b61323982602001850186612026565b82955050505050505b90565b7f455243313135353a207472616e7366657220746f206e6f6e2d4552433131353560008201527f526563656976657220696d706c656d656e746572000000000000000000000000602082015250565b60006132a1603483611f1e565b91506132ac82613245565b604082019050919050565b600060208201905081810360008301526132d081613294565b9050919050565b7f455243313135353a204552433131353552656365697665722072656a6563746560008201527f6420746f6b656e73000000000000000000000000000000000000000000000000602082015250565b6000613333602883611f1e565b915061333e826132d7565b604082019050919050565b6000602082019050818103600083015261336281613326565b9050919050565b600060a08201905061337e60008301886125bc565b61338b60208301876125bc565b6133986040830186611e2e565b6133a56060830185611e2e565b81810360808301526133b781846130a3565b9050969550505050505056fea2646970667358221220ad2bcfdd29cca593e5937d58ce35a9a1346074e8c1e3b09e013bba1ad81cff8664736f6c63430008110033",
  "linkReferences": {},
  "deployedLinkReferences": {}
}